{
  "main/src/contracts/Vault.sol": {
    "Vault": {
      "abi": [
        {
          "inputs": [],
          "stateMutability": "nonpayable",
          "type": "constructor"
        },
        {
          "anonymous": false,
          "inputs": [
            {
              "indexed": true,
              "internalType": "address",
              "name": "previousOwner",
              "type": "address"
            },
            {
              "indexed": true,
              "internalType": "address",
              "name": "newOwner",
              "type": "address"
            }
          ],
          "name": "OwnershipTransferred",
          "type": "event"
        },
        {
          "anonymous": false,
          "inputs": [
            {
              "indexed": true,
              "internalType": "address",
              "name": "sender",
              "type": "address"
            },
            {
              "indexed": false,
              "internalType": "uint256",
              "name": "value",
              "type": "uint256"
            }
          ],
          "name": "Recieved",
          "type": "event"
        },
        {
          "anonymous": false,
          "inputs": [
            {
              "indexed": true,
              "internalType": "address",
              "name": "addr",
              "type": "address"
            },
            {
              "indexed": false,
              "internalType": "uint256",
              "name": "value",
              "type": "uint256"
            }
          ],
          "name": "Sent",
          "type": "event"
        },
        {
          "anonymous": false,
          "inputs": [
            {
              "indexed": false,
              "internalType": "address[]",
              "name": "whitelist",
              "type": "address[]"
            }
          ],
          "name": "WhitelistSet",
          "type": "event"
        },
        {
          "anonymous": false,
          "inputs": [
            {
              "indexed": false,
              "internalType": "uint256",
              "name": "value",
              "type": "uint256"
            }
          ],
          "name": "Withdrawn",
          "type": "event"
        },
        {
          "inputs": [],
          "name": "contractSigned",
          "outputs": [
            {
              "internalType": "bool",
              "name": "",
              "type": "bool"
            }
          ],
          "stateMutability": "view",
          "type": "function"
        },
        {
          "inputs": [
            {
              "internalType": "address",
              "name": "_reciever",
              "type": "address"
            }
          ],
          "name": "createPaymentTo",
          "outputs": [],
          "stateMutability": "payable",
          "type": "function"
        },
        {
          "inputs": [],
          "name": "createPaymentToAll",
          "outputs": [],
          "stateMutability": "payable",
          "type": "function"
        },
        {
          "inputs": [],
          "name": "currentAmount",
          "outputs": [
            {
              "internalType": "uint256",
              "name": "",
              "type": "uint256"
            }
          ],
          "stateMutability": "view",
          "type": "function"
        },
        {
          "inputs": [],
          "name": "deposit",
          "outputs": [],
          "stateMutability": "payable",
          "type": "function"
        },
        {
          "inputs": [],
          "name": "hasOwnerSigned",
          "outputs": [
            {
              "internalType": "bool",
              "name": "",
              "type": "bool"
            }
          ],
          "stateMutability": "view",
          "type": "function"
        },
        {
          "inputs": [],
          "name": "isContractSigned",
          "outputs": [
            {
              "internalType": "bool",
              "name": "",
              "type": "bool"
            }
          ],
          "stateMutability": "view",
          "type": "function"
        },
        {
          "inputs": [],
          "name": "owner",
          "outputs": [
            {
              "internalType": "address",
              "name": "",
              "type": "address"
            }
          ],
          "stateMutability": "view",
          "type": "function"
        },
        {
          "inputs": [],
          "name": "ownerApprove",
          "outputs": [],
          "stateMutability": "nonpayable",
          "type": "function"
        },
        {
          "inputs": [
            {
              "internalType": "address",
              "name": "",
              "type": "address"
            }
          ],
          "name": "paymentDetails",
          "outputs": [
            {
              "internalType": "uint256",
              "name": "amount",
              "type": "uint256"
            },
            {
              "internalType": "uint256",
              "name": "numberOfTransactions",
              "type": "uint256"
            }
          ],
          "stateMutability": "view",
          "type": "function"
        },
        {
          "inputs": [],
          "name": "receiverApprove",
          "outputs": [],
          "stateMutability": "nonpayable",
          "type": "function"
        },
        {
          "inputs": [
            {
              "internalType": "address",
              "name": "",
              "type": "address"
            }
          ],
          "name": "receivers",
          "outputs": [
            {
              "internalType": "bool",
              "name": "isWhiteListed",
              "type": "bool"
            },
            {
              "internalType": "bool",
              "name": "hasSigned",
              "type": "bool"
            }
          ],
          "stateMutability": "view",
          "type": "function"
        },
        {
          "inputs": [],
          "name": "renounceOwnership",
          "outputs": [],
          "stateMutability": "nonpayable",
          "type": "function"
        },
        {
          "inputs": [
            {
              "internalType": "address",
              "name": "_reciever",
              "type": "address"
            },
            {
              "internalType": "uint256",
              "name": "_amount",
              "type": "uint256"
            },
            {
              "internalType": "uint256",
              "name": "_numberOfTransactions",
              "type": "uint256"
            }
          ],
          "name": "setPaymentDetails",
          "outputs": [],
          "stateMutability": "nonpayable",
          "type": "function"
        },
        {
          "inputs": [
            {
              "internalType": "address[]",
              "name": "_whitelist",
              "type": "address[]"
            }
          ],
          "name": "setWhitelistAddresses",
          "outputs": [],
          "stateMutability": "nonpayable",
          "type": "function"
        },
        {
          "inputs": [
            {
              "internalType": "address",
              "name": "newOwner",
              "type": "address"
            }
          ],
          "name": "transferOwnership",
          "outputs": [],
          "stateMutability": "nonpayable",
          "type": "function"
        },
        {
          "inputs": [],
          "name": "whiteListLength",
          "outputs": [
            {
              "internalType": "uint256",
              "name": "",
              "type": "uint256"
            }
          ],
          "stateMutability": "view",
          "type": "function"
        },
        {
          "inputs": [
            {
              "internalType": "uint256",
              "name": "",
              "type": "uint256"
            }
          ],
          "name": "whitelist",
          "outputs": [
            {
              "internalType": "address",
              "name": "",
              "type": "address"
            }
          ],
          "stateMutability": "view",
          "type": "function"
        },
        {
          "inputs": [],
          "name": "withdraw",
          "outputs": [],
          "stateMutability": "payable",
          "type": "function"
        }
      ],
      "evm": {
        "bytecode": {
          "linkReferences": {},
          "object": "608060405234801561001057600080fd5b5061002161001c610026565b61002a565b61007a565b3390565b600080546001600160a01b038381166001600160a01b0319831681178455604051919092169283917f8be0079c531659141344cd1fd0a4f28419497f9722a3daafe3b4186f6b6457e09190a35050565b611140806100896000396000f3fe6080604052600436106101145760003560e01c80638da5cb5b116100a0578063d0e30db011610064578063d0e30db01461029d578063e65eeb1f146102a5578063f2fde38b146102ba578063f441b1c8146102da578063f52ccc2d146102ef57610114565b80638da5cb5b14610236578063b5a6af781461024b578063c0ef904e14610260578063ce548a3614610268578063cfe684f51461027b57610114565b80633ccfd60b116100e75780633ccfd60b146101a9578063715018a6146101b15780637ebd1b30146101c657806388966cfd146101f357806388c496371461020857610114565b80630c662c5b146101195780630cb8150f14610130578063122553f914610167578063322f094114610187575b600080fd5b34801561012557600080fd5b5061012e61030f565b005b34801561013c57600080fd5b5061015061014b366004610cd5565b610390565b60405161015e929190610e6d565b60405180910390f35b34801561017357600080fd5b5061012e610182366004610cf6565b6103ae565b34801561019357600080fd5b5061019c61046d565b60405161015e9190610e62565b61012e610513565b3480156101bd57600080fd5b5061012e6105f8565b3480156101d257600080fd5b506101e66101e1366004610de9565b610643565b60405161015e9190610e01565b3480156101ff57600080fd5b5061019c61066d565b34801561021457600080fd5b50610228610223366004610cd5565b61067d565b60405161015e929190611050565b34801561024257600080fd5b506101e6610696565b34801561025757600080fd5b5061012e6106a5565b61012e610717565b61012e610276366004610cd5565b61088d565b34801561028757600080fd5b506102906109cf565b60405161015e9190611047565b61012e6109d5565b3480156102b157600080fd5b5061019c610a67565b3480156102c657600080fd5b5061012e6102d5366004610cd5565b610a77565b3480156102e657600080fd5b50610290610ae8565b3480156102fb57600080fd5b5061012e61030a366004610d28565b610aee565b610317610beb565b6001600160a01b0316610328610696565b6001600160a01b0316146103575760405162461bcd60e51b815260040161034e90610fa0565b60405180910390fd5b6000805460ff60a81b1916600160a81b17905561037261046d565b60008054911515600160a01b0260ff60a01b19909216919091179055565b60046020526000908152604090205460ff8082169161010090041682565b6001600160a01b038316600090815260046020526040902054839060ff166103e85760405162461bcd60e51b815260040161034e90610f40565b60006103f48385611076565b90508060025410156104185760405162461bcd60e51b815260040161034e90611003565b60408051808201825285815260208082018681526001600160a01b0389166000908152600590925292812091518255915160019091015560028054839290610461908490611095565b90915550505050505050565b60008054600160a81b900460ff1661048757506000610510565b60035460005b818110156105095760046000600383815481106104ba57634e487b7160e01b600052603260045260246000fd5b60009182526020808320909101546001600160a01b0316835282019290925260400190205460ff610100909104166104f757600092505050610510565b80610501816110c3565b91505061048d565b5060019150505b90565b61051b610beb565b6001600160a01b031661052c610696565b6001600160a01b0316146105525760405162461bcd60e51b815260040161034e90610fa0565b600054600160a01b900460ff161561057c5760405162461bcd60e51b815260040161034e90610f69565b47610585610696565b6001600160a01b03166108fc829081150290604051600060405180830381858888f193505050501580156105bd573d6000803e3d6000fd5b507f430648de173157e069201c943adb2d4e340e7cf5b27b1b09c9cb852f03d63b56816040516105ed9190611047565b60405180910390a150565b610600610beb565b6001600160a01b0316610611610696565b6001600160a01b0316146106375760405162461bcd60e51b815260040161034e90610fa0565b6106416000610bef565b565b6003818154811061065357600080fd5b6000918252602090912001546001600160a01b0316905081565b600054600160a81b900460ff1681565b6005602052600090815260409020805460019091015482565b6000546001600160a01b031690565b3360008181526004602052604090205460ff166106d45760405162461bcd60e51b815260040161034e90610f40565b336000908152600460205260409020805461ff0019166101001790556106f861046d565b60008054911515600160a01b0260ff60a01b1990921691909117905550565b600054600160a01b900460ff166107405760405162461bcd60e51b815260040161034e90610e7f565b6003546000805b828110156107b757600560006003838154811061077457634e487b7160e01b600052603260045260246000fd5b60009182526020808320909101546001600160a01b031683528201929092526040019020546107a3908361105e565b9150806107af816110c3565b915050610747565b50478111156107d85760405162461bcd60e51b815260040161034e90610ef5565b60005b82811015610888576000600560006003848154811061080a57634e487b7160e01b600052603260045260246000fd5b60009182526020808320909101546001600160a01b031683528201929092526040019020600101541115610876576108766003828154811061085c57634e487b7160e01b600052603260045260246000fd5b6000918252602090912001546001600160a01b031661088d565b80610880816110c3565b9150506107db565b505050565b600054600160a01b900460ff166108b65760405162461bcd60e51b815260040161034e90610e7f565b6001600160a01b038116600090815260056020526040902054478111156108ef5760405162461bcd60e51b815260040161034e90610ef5565b6001600160a01b0382166000908152600560205260409020600101546109275760405162461bcd60e51b815260040161034e90610fd5565b6040516001600160a01b0383169082156108fc029083906000818181858888f1935050505015801561095d573d6000803e3d6000fd5b506001600160a01b0382166000908152600560205260408120600101805491610985836110ac565b9190505550816001600160a01b03167f510ffb4dcab972ae9d2007a58e13f1b0881776d23cd8f5cc32f8c5be2dbf70d2826040516109c39190611047565b60405180910390a25050565b60015481565b6109dd610beb565b6001600160a01b03166109ee610696565b6001600160a01b031614610a145760405162461bcd60e51b815260040161034e90610fa0565b3460026000828254610a26919061105e565b909155505060405133907fe03f2fbffd55aceaa08b8e27b348ae6b7607e8a520dfe6a92b053c2ce0ac850a90610a5d903490611047565b60405180910390a2565b600054600160a01b900460ff1681565b610a7f610beb565b6001600160a01b0316610a90610696565b6001600160a01b031614610ab65760405162461bcd60e51b815260040161034e90610fa0565b6001600160a01b038116610adc5760405162461bcd60e51b815260040161034e90610eaf565b610ae581610bef565b50565b60025481565b610af6610beb565b6001600160a01b0316610b07610696565b6001600160a01b031614610b2d5760405162461bcd60e51b815260040161034e90610fa0565b805160015560005b600154811015610ba757600160046000848481518110610b6557634e487b7160e01b600052603260045260246000fd5b6020908102919091018101516001600160a01b03168252810191909152604001600020805460ff1916911515919091179055610ba0816110c3565b9050610b35565b508051610bbb906003906020840190610c3f565b507fbb8d8b423660b82de5f2ac9a04fd44584e1a7caf11aed34e35d06e9741495e30816040516105ed9190610e15565b3390565b600080546001600160a01b038381166001600160a01b0319831681178455604051919092169283917f8be0079c531659141344cd1fd0a4f28419497f9722a3daafe3b4186f6b6457e09190a35050565b828054828255906000526020600020908101928215610c94579160200282015b82811115610c9457825182546001600160a01b0319166001600160a01b03909116178255602090920191600190910190610c5f565b50610ca0929150610ca4565b5090565b5b80821115610ca05760008155600101610ca5565b80356001600160a01b0381168114610cd057600080fd5b919050565b600060208284031215610ce6578081fd5b610cef82610cb9565b9392505050565b600080600060608486031215610d0a578182fd5b610d1384610cb9565b95602085013595506040909401359392505050565b60006020808385031215610d3a578182fd5b823567ffffffffffffffff80821115610d51578384fd5b818501915085601f830112610d64578384fd5b813581811115610d7657610d766110f4565b83810260405185828201018181108582111715610d9557610d956110f4565b604052828152858101935084860182860187018a1015610db3578788fd5b8795505b83861015610ddc57610dc881610cb9565b855260019590950194938601938601610db7565b5098975050505050505050565b600060208284031215610dfa578081fd5b5035919050565b6001600160a01b0391909116815260200190565b6020808252825182820181905260009190848201906040850190845b81811015610e565783516001600160a01b031683529284019291840191600101610e31565b50909695505050505050565b901515815260200190565b91151582521515602082015260400190565b60208082526016908201527510dbdb9d1c9858dd081a5cc81b9bdd081cda59db995960521b604082015260600190565b60208082526026908201527f4f776e61626c653a206e6577206f776e657220697320746865207a65726f206160408201526564647265737360d01b606082015260800190565b6020808252602b908201527f4e6f7420656e6f7567682066756e647320746f2065786563757465207468652060408201526a3a3930b739b0b1ba34b7b760a91b606082015260800190565b6020808252600f908201526e139bdd081dda1a5d195b1a5cdd1959608a1b604082015260600190565b6020808252601a908201527f436f6e747261637420697320616c7265616479207369676e6564000000000000604082015260600190565b6020808252818101527f4f776e61626c653a2063616c6c6572206973206e6f7420746865206f776e6572604082015260600190565b602080825260149082015273139bc81d1c985b9cd858dd1a5bdb9cc81b19599d60621b604082015260600190565b60208082526024908201527f4e6f7420656e6f7567682066756e6473206c6f636b656420696e207468652076604082015263185d5b1d60e21b606082015260800190565b90815260200190565b918252602082015260400190565b60008219821115611071576110716110de565b500190565b6000816000190483118215151615611090576110906110de565b500290565b6000828210156110a7576110a76110de565b500390565b6000816110bb576110bb6110de565b506000190190565b60006000198214156110d7576110d76110de565b5060010190565b634e487b7160e01b600052601160045260246000fd5b634e487b7160e01b600052604160045260246000fdfea264697066735822122047a5c3578685e2d1a5e1895091648b0cfc7d48e2e4b9e4a300c2057f2e1a6ec764736f6c63430008000033",
          "opcodes": "PUSH1 0x80 PUSH1 0x40 MSTORE CALLVALUE DUP1 ISZERO PUSH2 0x10 JUMPI PUSH1 0x0 DUP1 REVERT JUMPDEST POP PUSH2 0x21 PUSH2 0x1C PUSH2 0x26 JUMP JUMPDEST PUSH2 0x2A JUMP JUMPDEST PUSH2 0x7A JUMP JUMPDEST CALLER SWAP1 JUMP JUMPDEST PUSH1 0x0 DUP1 SLOAD PUSH1 0x1 PUSH1 0x1 PUSH1 0xA0 SHL SUB DUP4 DUP2 AND PUSH1 0x1 PUSH1 0x1 PUSH1 0xA0 SHL SUB NOT DUP4 AND DUP2 OR DUP5 SSTORE PUSH1 0x40 MLOAD SWAP2 SWAP1 SWAP3 AND SWAP3 DUP4 SWAP2 PUSH32 0x8BE0079C531659141344CD1FD0A4F28419497F9722A3DAAFE3B4186F6B6457E0 SWAP2 SWAP1 LOG3 POP POP JUMP JUMPDEST PUSH2 0x1140 DUP1 PUSH2 0x89 PUSH1 0x0 CODECOPY PUSH1 0x0 RETURN INVALID PUSH1 0x80 PUSH1 0x40 MSTORE PUSH1 0x4 CALLDATASIZE LT PUSH2 0x114 JUMPI PUSH1 0x0 CALLDATALOAD PUSH1 0xE0 SHR DUP1 PUSH4 0x8DA5CB5B GT PUSH2 0xA0 JUMPI DUP1 PUSH4 0xD0E30DB0 GT PUSH2 0x64 JUMPI DUP1 PUSH4 0xD0E30DB0 EQ PUSH2 0x29D JUMPI DUP1 PUSH4 0xE65EEB1F EQ PUSH2 0x2A5 JUMPI DUP1 PUSH4 0xF2FDE38B EQ PUSH2 0x2BA JUMPI DUP1 PUSH4 0xF441B1C8 EQ PUSH2 0x2DA JUMPI DUP1 PUSH4 0xF52CCC2D EQ PUSH2 0x2EF JUMPI PUSH2 0x114 JUMP JUMPDEST DUP1 PUSH4 0x8DA5CB5B EQ PUSH2 0x236 JUMPI DUP1 PUSH4 0xB5A6AF78 EQ PUSH2 0x24B JUMPI DUP1 PUSH4 0xC0EF904E EQ PUSH2 0x260 JUMPI DUP1 PUSH4 0xCE548A36 EQ PUSH2 0x268 JUMPI DUP1 PUSH4 0xCFE684F5 EQ PUSH2 0x27B JUMPI PUSH2 0x114 JUMP JUMPDEST DUP1 PUSH4 0x3CCFD60B GT PUSH2 0xE7 JUMPI DUP1 PUSH4 0x3CCFD60B EQ PUSH2 0x1A9 JUMPI DUP1 PUSH4 0x715018A6 EQ PUSH2 0x1B1 JUMPI DUP1 PUSH4 0x7EBD1B30 EQ PUSH2 0x1C6 JUMPI DUP1 PUSH4 0x88966CFD EQ PUSH2 0x1F3 JUMPI DUP1 PUSH4 0x88C49637 EQ PUSH2 0x208 JUMPI PUSH2 0x114 JUMP JUMPDEST DUP1 PUSH4 0xC662C5B EQ PUSH2 0x119 JUMPI DUP1 PUSH4 0xCB8150F EQ PUSH2 0x130 JUMPI DUP1 PUSH4 0x122553F9 EQ PUSH2 0x167 JUMPI DUP1 PUSH4 0x322F0941 EQ PUSH2 0x187 JUMPI JUMPDEST PUSH1 0x0 DUP1 REVERT JUMPDEST CALLVALUE DUP1 ISZERO PUSH2 0x125 JUMPI PUSH1 0x0 DUP1 REVERT JUMPDEST POP PUSH2 0x12E PUSH2 0x30F JUMP JUMPDEST STOP JUMPDEST CALLVALUE DUP1 ISZERO PUSH2 0x13C JUMPI PUSH1 0x0 DUP1 REVERT JUMPDEST POP PUSH2 0x150 PUSH2 0x14B CALLDATASIZE PUSH1 0x4 PUSH2 0xCD5 JUMP JUMPDEST PUSH2 0x390 JUMP JUMPDEST PUSH1 0x40 MLOAD PUSH2 0x15E SWAP3 SWAP2 SWAP1 PUSH2 0xE6D JUMP JUMPDEST PUSH1 0x40 MLOAD DUP1 SWAP2 SUB SWAP1 RETURN JUMPDEST CALLVALUE DUP1 ISZERO PUSH2 0x173 JUMPI PUSH1 0x0 DUP1 REVERT JUMPDEST POP PUSH2 0x12E PUSH2 0x182 CALLDATASIZE PUSH1 0x4 PUSH2 0xCF6 JUMP JUMPDEST PUSH2 0x3AE JUMP JUMPDEST CALLVALUE DUP1 ISZERO PUSH2 0x193 JUMPI PUSH1 0x0 DUP1 REVERT JUMPDEST POP PUSH2 0x19C PUSH2 0x46D JUMP JUMPDEST PUSH1 0x40 MLOAD PUSH2 0x15E SWAP2 SWAP1 PUSH2 0xE62 JUMP JUMPDEST PUSH2 0x12E PUSH2 0x513 JUMP JUMPDEST CALLVALUE DUP1 ISZERO PUSH2 0x1BD JUMPI PUSH1 0x0 DUP1 REVERT JUMPDEST POP PUSH2 0x12E PUSH2 0x5F8 JUMP JUMPDEST CALLVALUE DUP1 ISZERO PUSH2 0x1D2 JUMPI PUSH1 0x0 DUP1 REVERT JUMPDEST POP PUSH2 0x1E6 PUSH2 0x1E1 CALLDATASIZE PUSH1 0x4 PUSH2 0xDE9 JUMP JUMPDEST PUSH2 0x643 JUMP JUMPDEST PUSH1 0x40 MLOAD PUSH2 0x15E SWAP2 SWAP1 PUSH2 0xE01 JUMP JUMPDEST CALLVALUE DUP1 ISZERO PUSH2 0x1FF JUMPI PUSH1 0x0 DUP1 REVERT JUMPDEST POP PUSH2 0x19C PUSH2 0x66D JUMP JUMPDEST CALLVALUE DUP1 ISZERO PUSH2 0x214 JUMPI PUSH1 0x0 DUP1 REVERT JUMPDEST POP PUSH2 0x228 PUSH2 0x223 CALLDATASIZE PUSH1 0x4 PUSH2 0xCD5 JUMP JUMPDEST PUSH2 0x67D JUMP JUMPDEST PUSH1 0x40 MLOAD PUSH2 0x15E SWAP3 SWAP2 SWAP1 PUSH2 0x1050 JUMP JUMPDEST CALLVALUE DUP1 ISZERO PUSH2 0x242 JUMPI PUSH1 0x0 DUP1 REVERT JUMPDEST POP PUSH2 0x1E6 PUSH2 0x696 JUMP JUMPDEST CALLVALUE DUP1 ISZERO PUSH2 0x257 JUMPI PUSH1 0x0 DUP1 REVERT JUMPDEST POP PUSH2 0x12E PUSH2 0x6A5 JUMP JUMPDEST PUSH2 0x12E PUSH2 0x717 JUMP JUMPDEST PUSH2 0x12E PUSH2 0x276 CALLDATASIZE PUSH1 0x4 PUSH2 0xCD5 JUMP JUMPDEST PUSH2 0x88D JUMP JUMPDEST CALLVALUE DUP1 ISZERO PUSH2 0x287 JUMPI PUSH1 0x0 DUP1 REVERT JUMPDEST POP PUSH2 0x290 PUSH2 0x9CF JUMP JUMPDEST PUSH1 0x40 MLOAD PUSH2 0x15E SWAP2 SWAP1 PUSH2 0x1047 JUMP JUMPDEST PUSH2 0x12E PUSH2 0x9D5 JUMP JUMPDEST CALLVALUE DUP1 ISZERO PUSH2 0x2B1 JUMPI PUSH1 0x0 DUP1 REVERT JUMPDEST POP PUSH2 0x19C PUSH2 0xA67 JUMP JUMPDEST CALLVALUE DUP1 ISZERO PUSH2 0x2C6 JUMPI PUSH1 0x0 DUP1 REVERT JUMPDEST POP PUSH2 0x12E PUSH2 0x2D5 CALLDATASIZE PUSH1 0x4 PUSH2 0xCD5 JUMP JUMPDEST PUSH2 0xA77 JUMP JUMPDEST CALLVALUE DUP1 ISZERO PUSH2 0x2E6 JUMPI PUSH1 0x0 DUP1 REVERT JUMPDEST POP PUSH2 0x290 PUSH2 0xAE8 JUMP JUMPDEST CALLVALUE DUP1 ISZERO PUSH2 0x2FB JUMPI PUSH1 0x0 DUP1 REVERT JUMPDEST POP PUSH2 0x12E PUSH2 0x30A CALLDATASIZE PUSH1 0x4 PUSH2 0xD28 JUMP JUMPDEST PUSH2 0xAEE JUMP JUMPDEST PUSH2 0x317 PUSH2 0xBEB JUMP JUMPDEST PUSH1 0x1 PUSH1 0x1 PUSH1 0xA0 SHL SUB AND PUSH2 0x328 PUSH2 0x696 JUMP JUMPDEST PUSH1 0x1 PUSH1 0x1 PUSH1 0xA0 SHL SUB AND EQ PUSH2 0x357 JUMPI PUSH1 0x40 MLOAD PUSH3 0x461BCD PUSH1 0xE5 SHL DUP2 MSTORE PUSH1 0x4 ADD PUSH2 0x34E SWAP1 PUSH2 0xFA0 JUMP JUMPDEST PUSH1 0x40 MLOAD DUP1 SWAP2 SUB SWAP1 REVERT JUMPDEST PUSH1 0x0 DUP1 SLOAD PUSH1 0xFF PUSH1 0xA8 SHL NOT AND PUSH1 0x1 PUSH1 0xA8 SHL OR SWAP1 SSTORE PUSH2 0x372 PUSH2 0x46D JUMP JUMPDEST PUSH1 0x0 DUP1 SLOAD SWAP2 ISZERO ISZERO PUSH1 0x1 PUSH1 0xA0 SHL MUL PUSH1 0xFF PUSH1 0xA0 SHL NOT SWAP1 SWAP3 AND SWAP2 SWAP1 SWAP2 OR SWAP1 SSTORE JUMP JUMPDEST PUSH1 0x4 PUSH1 0x20 MSTORE PUSH1 0x0 SWAP1 DUP2 MSTORE PUSH1 0x40 SWAP1 KECCAK256 SLOAD PUSH1 0xFF DUP1 DUP3 AND SWAP2 PUSH2 0x100 SWAP1 DIV AND DUP3 JUMP JUMPDEST PUSH1 0x1 PUSH1 0x1 PUSH1 0xA0 SHL SUB DUP4 AND PUSH1 0x0 SWAP1 DUP2 MSTORE PUSH1 0x4 PUSH1 0x20 MSTORE PUSH1 0x40 SWAP1 KECCAK256 SLOAD DUP4 SWAP1 PUSH1 0xFF AND PUSH2 0x3E8 JUMPI PUSH1 0x40 MLOAD PUSH3 0x461BCD PUSH1 0xE5 SHL DUP2 MSTORE PUSH1 0x4 ADD PUSH2 0x34E SWAP1 PUSH2 0xF40 JUMP JUMPDEST PUSH1 0x0 PUSH2 0x3F4 DUP4 DUP6 PUSH2 0x1076 JUMP JUMPDEST SWAP1 POP DUP1 PUSH1 0x2 SLOAD LT ISZERO PUSH2 0x418 JUMPI PUSH1 0x40 MLOAD PUSH3 0x461BCD PUSH1 0xE5 SHL DUP2 MSTORE PUSH1 0x4 ADD PUSH2 0x34E SWAP1 PUSH2 0x1003 JUMP JUMPDEST PUSH1 0x40 DUP1 MLOAD DUP1 DUP3 ADD DUP3 MSTORE DUP6 DUP2 MSTORE PUSH1 0x20 DUP1 DUP3 ADD DUP7 DUP2 MSTORE PUSH1 0x1 PUSH1 0x1 PUSH1 0xA0 SHL SUB DUP10 AND PUSH1 0x0 SWAP1 DUP2 MSTORE PUSH1 0x5 SWAP1 SWAP3 MSTORE SWAP3 DUP2 KECCAK256 SWAP2 MLOAD DUP3 SSTORE SWAP2 MLOAD PUSH1 0x1 SWAP1 SWAP2 ADD SSTORE PUSH1 0x2 DUP1 SLOAD DUP4 SWAP3 SWAP1 PUSH2 0x461 SWAP1 DUP5 SWAP1 PUSH2 0x1095 JUMP JUMPDEST SWAP1 SWAP2 SSTORE POP POP POP POP POP POP POP JUMP JUMPDEST PUSH1 0x0 DUP1 SLOAD PUSH1 0x1 PUSH1 0xA8 SHL SWAP1 DIV PUSH1 0xFF AND PUSH2 0x487 JUMPI POP PUSH1 0x0 PUSH2 0x510 JUMP JUMPDEST PUSH1 0x3 SLOAD PUSH1 0x0 JUMPDEST DUP2 DUP2 LT ISZERO PUSH2 0x509 JUMPI PUSH1 0x4 PUSH1 0x0 PUSH1 0x3 DUP4 DUP2 SLOAD DUP2 LT PUSH2 0x4BA JUMPI PUSH4 0x4E487B71 PUSH1 0xE0 SHL PUSH1 0x0 MSTORE PUSH1 0x32 PUSH1 0x4 MSTORE PUSH1 0x24 PUSH1 0x0 REVERT JUMPDEST PUSH1 0x0 SWAP2 DUP3 MSTORE PUSH1 0x20 DUP1 DUP4 KECCAK256 SWAP1 SWAP2 ADD SLOAD PUSH1 0x1 PUSH1 0x1 PUSH1 0xA0 SHL SUB AND DUP4 MSTORE DUP3 ADD SWAP3 SWAP1 SWAP3 MSTORE PUSH1 0x40 ADD SWAP1 KECCAK256 SLOAD PUSH1 0xFF PUSH2 0x100 SWAP1 SWAP2 DIV AND PUSH2 0x4F7 JUMPI PUSH1 0x0 SWAP3 POP POP POP PUSH2 0x510 JUMP JUMPDEST DUP1 PUSH2 0x501 DUP2 PUSH2 0x10C3 JUMP JUMPDEST SWAP2 POP POP PUSH2 0x48D JUMP JUMPDEST POP PUSH1 0x1 SWAP2 POP POP JUMPDEST SWAP1 JUMP JUMPDEST PUSH2 0x51B PUSH2 0xBEB JUMP JUMPDEST PUSH1 0x1 PUSH1 0x1 PUSH1 0xA0 SHL SUB AND PUSH2 0x52C PUSH2 0x696 JUMP JUMPDEST PUSH1 0x1 PUSH1 0x1 PUSH1 0xA0 SHL SUB AND EQ PUSH2 0x552 JUMPI PUSH1 0x40 MLOAD PUSH3 0x461BCD PUSH1 0xE5 SHL DUP2 MSTORE PUSH1 0x4 ADD PUSH2 0x34E SWAP1 PUSH2 0xFA0 JUMP JUMPDEST PUSH1 0x0 SLOAD PUSH1 0x1 PUSH1 0xA0 SHL SWAP1 DIV PUSH1 0xFF AND ISZERO PUSH2 0x57C JUMPI PUSH1 0x40 MLOAD PUSH3 0x461BCD PUSH1 0xE5 SHL DUP2 MSTORE PUSH1 0x4 ADD PUSH2 0x34E SWAP1 PUSH2 0xF69 JUMP JUMPDEST SELFBALANCE PUSH2 0x585 PUSH2 0x696 JUMP JUMPDEST PUSH1 0x1 PUSH1 0x1 PUSH1 0xA0 SHL SUB AND PUSH2 0x8FC DUP3 SWAP1 DUP2 ISZERO MUL SWAP1 PUSH1 0x40 MLOAD PUSH1 0x0 PUSH1 0x40 MLOAD DUP1 DUP4 SUB DUP2 DUP6 DUP9 DUP9 CALL SWAP4 POP POP POP POP ISZERO DUP1 ISZERO PUSH2 0x5BD JUMPI RETURNDATASIZE PUSH1 0x0 DUP1 RETURNDATACOPY RETURNDATASIZE PUSH1 0x0 REVERT JUMPDEST POP PUSH32 0x430648DE173157E069201C943ADB2D4E340E7CF5B27B1B09C9CB852F03D63B56 DUP2 PUSH1 0x40 MLOAD PUSH2 0x5ED SWAP2 SWAP1 PUSH2 0x1047 JUMP JUMPDEST PUSH1 0x40 MLOAD DUP1 SWAP2 SUB SWAP1 LOG1 POP JUMP JUMPDEST PUSH2 0x600 PUSH2 0xBEB JUMP JUMPDEST PUSH1 0x1 PUSH1 0x1 PUSH1 0xA0 SHL SUB AND PUSH2 0x611 PUSH2 0x696 JUMP JUMPDEST PUSH1 0x1 PUSH1 0x1 PUSH1 0xA0 SHL SUB AND EQ PUSH2 0x637 JUMPI PUSH1 0x40 MLOAD PUSH3 0x461BCD PUSH1 0xE5 SHL DUP2 MSTORE PUSH1 0x4 ADD PUSH2 0x34E SWAP1 PUSH2 0xFA0 JUMP JUMPDEST PUSH2 0x641 PUSH1 0x0 PUSH2 0xBEF JUMP JUMPDEST JUMP JUMPDEST PUSH1 0x3 DUP2 DUP2 SLOAD DUP2 LT PUSH2 0x653 JUMPI PUSH1 0x0 DUP1 REVERT JUMPDEST PUSH1 0x0 SWAP2 DUP3 MSTORE PUSH1 0x20 SWAP1 SWAP2 KECCAK256 ADD SLOAD PUSH1 0x1 PUSH1 0x1 PUSH1 0xA0 SHL SUB AND SWAP1 POP DUP2 JUMP JUMPDEST PUSH1 0x0 SLOAD PUSH1 0x1 PUSH1 0xA8 SHL SWAP1 DIV PUSH1 0xFF AND DUP2 JUMP JUMPDEST PUSH1 0x5 PUSH1 0x20 MSTORE PUSH1 0x0 SWAP1 DUP2 MSTORE PUSH1 0x40 SWAP1 KECCAK256 DUP1 SLOAD PUSH1 0x1 SWAP1 SWAP2 ADD SLOAD DUP3 JUMP JUMPDEST PUSH1 0x0 SLOAD PUSH1 0x1 PUSH1 0x1 PUSH1 0xA0 SHL SUB AND SWAP1 JUMP JUMPDEST CALLER PUSH1 0x0 DUP2 DUP2 MSTORE PUSH1 0x4 PUSH1 0x20 MSTORE PUSH1 0x40 SWAP1 KECCAK256 SLOAD PUSH1 0xFF AND PUSH2 0x6D4 JUMPI PUSH1 0x40 MLOAD PUSH3 0x461BCD PUSH1 0xE5 SHL DUP2 MSTORE PUSH1 0x4 ADD PUSH2 0x34E SWAP1 PUSH2 0xF40 JUMP JUMPDEST CALLER PUSH1 0x0 SWAP1 DUP2 MSTORE PUSH1 0x4 PUSH1 0x20 MSTORE PUSH1 0x40 SWAP1 KECCAK256 DUP1 SLOAD PUSH2 0xFF00 NOT AND PUSH2 0x100 OR SWAP1 SSTORE PUSH2 0x6F8 PUSH2 0x46D JUMP JUMPDEST PUSH1 0x0 DUP1 SLOAD SWAP2 ISZERO ISZERO PUSH1 0x1 PUSH1 0xA0 SHL MUL PUSH1 0xFF PUSH1 0xA0 SHL NOT SWAP1 SWAP3 AND SWAP2 SWAP1 SWAP2 OR SWAP1 SSTORE POP JUMP JUMPDEST PUSH1 0x0 SLOAD PUSH1 0x1 PUSH1 0xA0 SHL SWAP1 DIV PUSH1 0xFF AND PUSH2 0x740 JUMPI PUSH1 0x40 MLOAD PUSH3 0x461BCD PUSH1 0xE5 SHL DUP2 MSTORE PUSH1 0x4 ADD PUSH2 0x34E SWAP1 PUSH2 0xE7F JUMP JUMPDEST PUSH1 0x3 SLOAD PUSH1 0x0 DUP1 JUMPDEST DUP3 DUP2 LT ISZERO PUSH2 0x7B7 JUMPI PUSH1 0x5 PUSH1 0x0 PUSH1 0x3 DUP4 DUP2 SLOAD DUP2 LT PUSH2 0x774 JUMPI PUSH4 0x4E487B71 PUSH1 0xE0 SHL PUSH1 0x0 MSTORE PUSH1 0x32 PUSH1 0x4 MSTORE PUSH1 0x24 PUSH1 0x0 REVERT JUMPDEST PUSH1 0x0 SWAP2 DUP3 MSTORE PUSH1 0x20 DUP1 DUP4 KECCAK256 SWAP1 SWAP2 ADD SLOAD PUSH1 0x1 PUSH1 0x1 PUSH1 0xA0 SHL SUB AND DUP4 MSTORE DUP3 ADD SWAP3 SWAP1 SWAP3 MSTORE PUSH1 0x40 ADD SWAP1 KECCAK256 SLOAD PUSH2 0x7A3 SWAP1 DUP4 PUSH2 0x105E JUMP JUMPDEST SWAP2 POP DUP1 PUSH2 0x7AF DUP2 PUSH2 0x10C3 JUMP JUMPDEST SWAP2 POP POP PUSH2 0x747 JUMP JUMPDEST POP SELFBALANCE DUP2 GT ISZERO PUSH2 0x7D8 JUMPI PUSH1 0x40 MLOAD PUSH3 0x461BCD PUSH1 0xE5 SHL DUP2 MSTORE PUSH1 0x4 ADD PUSH2 0x34E SWAP1 PUSH2 0xEF5 JUMP JUMPDEST PUSH1 0x0 JUMPDEST DUP3 DUP2 LT ISZERO PUSH2 0x888 JUMPI PUSH1 0x0 PUSH1 0x5 PUSH1 0x0 PUSH1 0x3 DUP5 DUP2 SLOAD DUP2 LT PUSH2 0x80A JUMPI PUSH4 0x4E487B71 PUSH1 0xE0 SHL PUSH1 0x0 MSTORE PUSH1 0x32 PUSH1 0x4 MSTORE PUSH1 0x24 PUSH1 0x0 REVERT JUMPDEST PUSH1 0x0 SWAP2 DUP3 MSTORE PUSH1 0x20 DUP1 DUP4 KECCAK256 SWAP1 SWAP2 ADD SLOAD PUSH1 0x1 PUSH1 0x1 PUSH1 0xA0 SHL SUB AND DUP4 MSTORE DUP3 ADD SWAP3 SWAP1 SWAP3 MSTORE PUSH1 0x40 ADD SWAP1 KECCAK256 PUSH1 0x1 ADD SLOAD GT ISZERO PUSH2 0x876 JUMPI PUSH2 0x876 PUSH1 0x3 DUP3 DUP2 SLOAD DUP2 LT PUSH2 0x85C JUMPI PUSH4 0x4E487B71 PUSH1 0xE0 SHL PUSH1 0x0 MSTORE PUSH1 0x32 PUSH1 0x4 MSTORE PUSH1 0x24 PUSH1 0x0 REVERT JUMPDEST PUSH1 0x0 SWAP2 DUP3 MSTORE PUSH1 0x20 SWAP1 SWAP2 KECCAK256 ADD SLOAD PUSH1 0x1 PUSH1 0x1 PUSH1 0xA0 SHL SUB AND PUSH2 0x88D JUMP JUMPDEST DUP1 PUSH2 0x880 DUP2 PUSH2 0x10C3 JUMP JUMPDEST SWAP2 POP POP PUSH2 0x7DB JUMP JUMPDEST POP POP POP JUMP JUMPDEST PUSH1 0x0 SLOAD PUSH1 0x1 PUSH1 0xA0 SHL SWAP1 DIV PUSH1 0xFF AND PUSH2 0x8B6 JUMPI PUSH1 0x40 MLOAD PUSH3 0x461BCD PUSH1 0xE5 SHL DUP2 MSTORE PUSH1 0x4 ADD PUSH2 0x34E SWAP1 PUSH2 0xE7F JUMP JUMPDEST PUSH1 0x1 PUSH1 0x1 PUSH1 0xA0 SHL SUB DUP2 AND PUSH1 0x0 SWAP1 DUP2 MSTORE PUSH1 0x5 PUSH1 0x20 MSTORE PUSH1 0x40 SWAP1 KECCAK256 SLOAD SELFBALANCE DUP2 GT ISZERO PUSH2 0x8EF JUMPI PUSH1 0x40 MLOAD PUSH3 0x461BCD PUSH1 0xE5 SHL DUP2 MSTORE PUSH1 0x4 ADD PUSH2 0x34E SWAP1 PUSH2 0xEF5 JUMP JUMPDEST PUSH1 0x1 PUSH1 0x1 PUSH1 0xA0 SHL SUB DUP3 AND PUSH1 0x0 SWAP1 DUP2 MSTORE PUSH1 0x5 PUSH1 0x20 MSTORE PUSH1 0x40 SWAP1 KECCAK256 PUSH1 0x1 ADD SLOAD PUSH2 0x927 JUMPI PUSH1 0x40 MLOAD PUSH3 0x461BCD PUSH1 0xE5 SHL DUP2 MSTORE PUSH1 0x4 ADD PUSH2 0x34E SWAP1 PUSH2 0xFD5 JUMP JUMPDEST PUSH1 0x40 MLOAD PUSH1 0x1 PUSH1 0x1 PUSH1 0xA0 SHL SUB DUP4 AND SWAP1 DUP3 ISZERO PUSH2 0x8FC MUL SWAP1 DUP4 SWAP1 PUSH1 0x0 DUP2 DUP2 DUP2 DUP6 DUP9 DUP9 CALL SWAP4 POP POP POP POP ISZERO DUP1 ISZERO PUSH2 0x95D JUMPI RETURNDATASIZE PUSH1 0x0 DUP1 RETURNDATACOPY RETURNDATASIZE PUSH1 0x0 REVERT JUMPDEST POP PUSH1 0x1 PUSH1 0x1 PUSH1 0xA0 SHL SUB DUP3 AND PUSH1 0x0 SWAP1 DUP2 MSTORE PUSH1 0x5 PUSH1 0x20 MSTORE PUSH1 0x40 DUP2 KECCAK256 PUSH1 0x1 ADD DUP1 SLOAD SWAP2 PUSH2 0x985 DUP4 PUSH2 0x10AC JUMP JUMPDEST SWAP2 SWAP1 POP SSTORE POP DUP2 PUSH1 0x1 PUSH1 0x1 PUSH1 0xA0 SHL SUB AND PUSH32 0x510FFB4DCAB972AE9D2007A58E13F1B0881776D23CD8F5CC32F8C5BE2DBF70D2 DUP3 PUSH1 0x40 MLOAD PUSH2 0x9C3 SWAP2 SWAP1 PUSH2 0x1047 JUMP JUMPDEST PUSH1 0x40 MLOAD DUP1 SWAP2 SUB SWAP1 LOG2 POP POP JUMP JUMPDEST PUSH1 0x1 SLOAD DUP2 JUMP JUMPDEST PUSH2 0x9DD PUSH2 0xBEB JUMP JUMPDEST PUSH1 0x1 PUSH1 0x1 PUSH1 0xA0 SHL SUB AND PUSH2 0x9EE PUSH2 0x696 JUMP JUMPDEST PUSH1 0x1 PUSH1 0x1 PUSH1 0xA0 SHL SUB AND EQ PUSH2 0xA14 JUMPI PUSH1 0x40 MLOAD PUSH3 0x461BCD PUSH1 0xE5 SHL DUP2 MSTORE PUSH1 0x4 ADD PUSH2 0x34E SWAP1 PUSH2 0xFA0 JUMP JUMPDEST CALLVALUE PUSH1 0x2 PUSH1 0x0 DUP3 DUP3 SLOAD PUSH2 0xA26 SWAP2 SWAP1 PUSH2 0x105E JUMP JUMPDEST SWAP1 SWAP2 SSTORE POP POP PUSH1 0x40 MLOAD CALLER SWAP1 PUSH32 0xE03F2FBFFD55ACEAA08B8E27B348AE6B7607E8A520DFE6A92B053C2CE0AC850A SWAP1 PUSH2 0xA5D SWAP1 CALLVALUE SWAP1 PUSH2 0x1047 JUMP JUMPDEST PUSH1 0x40 MLOAD DUP1 SWAP2 SUB SWAP1 LOG2 JUMP JUMPDEST PUSH1 0x0 SLOAD PUSH1 0x1 PUSH1 0xA0 SHL SWAP1 DIV PUSH1 0xFF AND DUP2 JUMP JUMPDEST PUSH2 0xA7F PUSH2 0xBEB JUMP JUMPDEST PUSH1 0x1 PUSH1 0x1 PUSH1 0xA0 SHL SUB AND PUSH2 0xA90 PUSH2 0x696 JUMP JUMPDEST PUSH1 0x1 PUSH1 0x1 PUSH1 0xA0 SHL SUB AND EQ PUSH2 0xAB6 JUMPI PUSH1 0x40 MLOAD PUSH3 0x461BCD PUSH1 0xE5 SHL DUP2 MSTORE PUSH1 0x4 ADD PUSH2 0x34E SWAP1 PUSH2 0xFA0 JUMP JUMPDEST PUSH1 0x1 PUSH1 0x1 PUSH1 0xA0 SHL SUB DUP2 AND PUSH2 0xADC JUMPI PUSH1 0x40 MLOAD PUSH3 0x461BCD PUSH1 0xE5 SHL DUP2 MSTORE PUSH1 0x4 ADD PUSH2 0x34E SWAP1 PUSH2 0xEAF JUMP JUMPDEST PUSH2 0xAE5 DUP2 PUSH2 0xBEF JUMP JUMPDEST POP JUMP JUMPDEST PUSH1 0x2 SLOAD DUP2 JUMP JUMPDEST PUSH2 0xAF6 PUSH2 0xBEB JUMP JUMPDEST PUSH1 0x1 PUSH1 0x1 PUSH1 0xA0 SHL SUB AND PUSH2 0xB07 PUSH2 0x696 JUMP JUMPDEST PUSH1 0x1 PUSH1 0x1 PUSH1 0xA0 SHL SUB AND EQ PUSH2 0xB2D JUMPI PUSH1 0x40 MLOAD PUSH3 0x461BCD PUSH1 0xE5 SHL DUP2 MSTORE PUSH1 0x4 ADD PUSH2 0x34E SWAP1 PUSH2 0xFA0 JUMP JUMPDEST DUP1 MLOAD PUSH1 0x1 SSTORE PUSH1 0x0 JUMPDEST PUSH1 0x1 SLOAD DUP2 LT ISZERO PUSH2 0xBA7 JUMPI PUSH1 0x1 PUSH1 0x4 PUSH1 0x0 DUP5 DUP5 DUP2 MLOAD DUP2 LT PUSH2 0xB65 JUMPI PUSH4 0x4E487B71 PUSH1 0xE0 SHL PUSH1 0x0 MSTORE PUSH1 0x32 PUSH1 0x4 MSTORE PUSH1 0x24 PUSH1 0x0 REVERT JUMPDEST PUSH1 0x20 SWAP1 DUP2 MUL SWAP2 SWAP1 SWAP2 ADD DUP2 ADD MLOAD PUSH1 0x1 PUSH1 0x1 PUSH1 0xA0 SHL SUB AND DUP3 MSTORE DUP2 ADD SWAP2 SWAP1 SWAP2 MSTORE PUSH1 0x40 ADD PUSH1 0x0 KECCAK256 DUP1 SLOAD PUSH1 0xFF NOT AND SWAP2 ISZERO ISZERO SWAP2 SWAP1 SWAP2 OR SWAP1 SSTORE PUSH2 0xBA0 DUP2 PUSH2 0x10C3 JUMP JUMPDEST SWAP1 POP PUSH2 0xB35 JUMP JUMPDEST POP DUP1 MLOAD PUSH2 0xBBB SWAP1 PUSH1 0x3 SWAP1 PUSH1 0x20 DUP5 ADD SWAP1 PUSH2 0xC3F JUMP JUMPDEST POP PUSH32 0xBB8D8B423660B82DE5F2AC9A04FD44584E1A7CAF11AED34E35D06E9741495E30 DUP2 PUSH1 0x40 MLOAD PUSH2 0x5ED SWAP2 SWAP1 PUSH2 0xE15 JUMP JUMPDEST CALLER SWAP1 JUMP JUMPDEST PUSH1 0x0 DUP1 SLOAD PUSH1 0x1 PUSH1 0x1 PUSH1 0xA0 SHL SUB DUP4 DUP2 AND PUSH1 0x1 PUSH1 0x1 PUSH1 0xA0 SHL SUB NOT DUP4 AND DUP2 OR DUP5 SSTORE PUSH1 0x40 MLOAD SWAP2 SWAP1 SWAP3 AND SWAP3 DUP4 SWAP2 PUSH32 0x8BE0079C531659141344CD1FD0A4F28419497F9722A3DAAFE3B4186F6B6457E0 SWAP2 SWAP1 LOG3 POP POP JUMP JUMPDEST DUP3 DUP1 SLOAD DUP3 DUP3 SSTORE SWAP1 PUSH1 0x0 MSTORE PUSH1 0x20 PUSH1 0x0 KECCAK256 SWAP1 DUP2 ADD SWAP3 DUP3 ISZERO PUSH2 0xC94 JUMPI SWAP2 PUSH1 0x20 MUL DUP3 ADD JUMPDEST DUP3 DUP2 GT ISZERO PUSH2 0xC94 JUMPI DUP3 MLOAD DUP3 SLOAD PUSH1 0x1 PUSH1 0x1 PUSH1 0xA0 SHL SUB NOT AND PUSH1 0x1 PUSH1 0x1 PUSH1 0xA0 SHL SUB SWAP1 SWAP2 AND OR DUP3 SSTORE PUSH1 0x20 SWAP1 SWAP3 ADD SWAP2 PUSH1 0x1 SWAP1 SWAP2 ADD SWAP1 PUSH2 0xC5F JUMP JUMPDEST POP PUSH2 0xCA0 SWAP3 SWAP2 POP PUSH2 0xCA4 JUMP JUMPDEST POP SWAP1 JUMP JUMPDEST JUMPDEST DUP1 DUP3 GT ISZERO PUSH2 0xCA0 JUMPI PUSH1 0x0 DUP2 SSTORE PUSH1 0x1 ADD PUSH2 0xCA5 JUMP JUMPDEST DUP1 CALLDATALOAD PUSH1 0x1 PUSH1 0x1 PUSH1 0xA0 SHL SUB DUP2 AND DUP2 EQ PUSH2 0xCD0 JUMPI PUSH1 0x0 DUP1 REVERT JUMPDEST SWAP2 SWAP1 POP JUMP JUMPDEST PUSH1 0x0 PUSH1 0x20 DUP3 DUP5 SUB SLT ISZERO PUSH2 0xCE6 JUMPI DUP1 DUP2 REVERT JUMPDEST PUSH2 0xCEF DUP3 PUSH2 0xCB9 JUMP JUMPDEST SWAP4 SWAP3 POP POP POP JUMP JUMPDEST PUSH1 0x0 DUP1 PUSH1 0x0 PUSH1 0x60 DUP5 DUP7 SUB SLT ISZERO PUSH2 0xD0A JUMPI DUP2 DUP3 REVERT JUMPDEST PUSH2 0xD13 DUP5 PUSH2 0xCB9 JUMP JUMPDEST SWAP6 PUSH1 0x20 DUP6 ADD CALLDATALOAD SWAP6 POP PUSH1 0x40 SWAP1 SWAP5 ADD CALLDATALOAD SWAP4 SWAP3 POP POP POP JUMP JUMPDEST PUSH1 0x0 PUSH1 0x20 DUP1 DUP4 DUP6 SUB SLT ISZERO PUSH2 0xD3A JUMPI DUP2 DUP3 REVERT JUMPDEST DUP3 CALLDATALOAD PUSH8 0xFFFFFFFFFFFFFFFF DUP1 DUP3 GT ISZERO PUSH2 0xD51 JUMPI DUP4 DUP5 REVERT JUMPDEST DUP2 DUP6 ADD SWAP2 POP DUP6 PUSH1 0x1F DUP4 ADD SLT PUSH2 0xD64 JUMPI DUP4 DUP5 REVERT JUMPDEST DUP2 CALLDATALOAD DUP2 DUP2 GT ISZERO PUSH2 0xD76 JUMPI PUSH2 0xD76 PUSH2 0x10F4 JUMP JUMPDEST DUP4 DUP2 MUL PUSH1 0x40 MLOAD DUP6 DUP3 DUP3 ADD ADD DUP2 DUP2 LT DUP6 DUP3 GT OR ISZERO PUSH2 0xD95 JUMPI PUSH2 0xD95 PUSH2 0x10F4 JUMP JUMPDEST PUSH1 0x40 MSTORE DUP3 DUP2 MSTORE DUP6 DUP2 ADD SWAP4 POP DUP5 DUP7 ADD DUP3 DUP7 ADD DUP8 ADD DUP11 LT ISZERO PUSH2 0xDB3 JUMPI DUP8 DUP9 REVERT JUMPDEST DUP8 SWAP6 POP JUMPDEST DUP4 DUP7 LT ISZERO PUSH2 0xDDC JUMPI PUSH2 0xDC8 DUP2 PUSH2 0xCB9 JUMP JUMPDEST DUP6 MSTORE PUSH1 0x1 SWAP6 SWAP1 SWAP6 ADD SWAP5 SWAP4 DUP7 ADD SWAP4 DUP7 ADD PUSH2 0xDB7 JUMP JUMPDEST POP SWAP9 SWAP8 POP POP POP POP POP POP POP POP JUMP JUMPDEST PUSH1 0x0 PUSH1 0x20 DUP3 DUP5 SUB SLT ISZERO PUSH2 0xDFA JUMPI DUP1 DUP2 REVERT JUMPDEST POP CALLDATALOAD SWAP2 SWAP1 POP JUMP JUMPDEST PUSH1 0x1 PUSH1 0x1 PUSH1 0xA0 SHL SUB SWAP2 SWAP1 SWAP2 AND DUP2 MSTORE PUSH1 0x20 ADD SWAP1 JUMP JUMPDEST PUSH1 0x20 DUP1 DUP3 MSTORE DUP3 MLOAD DUP3 DUP3 ADD DUP2 SWAP1 MSTORE PUSH1 0x0 SWAP2 SWAP1 DUP5 DUP3 ADD SWAP1 PUSH1 0x40 DUP6 ADD SWAP1 DUP5 JUMPDEST DUP2 DUP2 LT ISZERO PUSH2 0xE56 JUMPI DUP4 MLOAD PUSH1 0x1 PUSH1 0x1 PUSH1 0xA0 SHL SUB AND DUP4 MSTORE SWAP3 DUP5 ADD SWAP3 SWAP2 DUP5 ADD SWAP2 PUSH1 0x1 ADD PUSH2 0xE31 JUMP JUMPDEST POP SWAP1 SWAP7 SWAP6 POP POP POP POP POP POP JUMP JUMPDEST SWAP1 ISZERO ISZERO DUP2 MSTORE PUSH1 0x20 ADD SWAP1 JUMP JUMPDEST SWAP2 ISZERO ISZERO DUP3 MSTORE ISZERO ISZERO PUSH1 0x20 DUP3 ADD MSTORE PUSH1 0x40 ADD SWAP1 JUMP JUMPDEST PUSH1 0x20 DUP1 DUP3 MSTORE PUSH1 0x16 SWAP1 DUP3 ADD MSTORE PUSH22 0x10DBDB9D1C9858DD081A5CC81B9BDD081CDA59DB9959 PUSH1 0x52 SHL PUSH1 0x40 DUP3 ADD MSTORE PUSH1 0x60 ADD SWAP1 JUMP JUMPDEST PUSH1 0x20 DUP1 DUP3 MSTORE PUSH1 0x26 SWAP1 DUP3 ADD MSTORE PUSH32 0x4F776E61626C653A206E6577206F776E657220697320746865207A65726F2061 PUSH1 0x40 DUP3 ADD MSTORE PUSH6 0x646472657373 PUSH1 0xD0 SHL PUSH1 0x60 DUP3 ADD MSTORE PUSH1 0x80 ADD SWAP1 JUMP JUMPDEST PUSH1 0x20 DUP1 DUP3 MSTORE PUSH1 0x2B SWAP1 DUP3 ADD MSTORE PUSH32 0x4E6F7420656E6F7567682066756E647320746F20657865637574652074686520 PUSH1 0x40 DUP3 ADD MSTORE PUSH11 0x3A3930B739B0B1BA34B7B7 PUSH1 0xA9 SHL PUSH1 0x60 DUP3 ADD MSTORE PUSH1 0x80 ADD SWAP1 JUMP JUMPDEST PUSH1 0x20 DUP1 DUP3 MSTORE PUSH1 0xF SWAP1 DUP3 ADD MSTORE PUSH15 0x139BDD081DDA1A5D195B1A5CDD1959 PUSH1 0x8A SHL PUSH1 0x40 DUP3 ADD MSTORE PUSH1 0x60 ADD SWAP1 JUMP JUMPDEST PUSH1 0x20 DUP1 DUP3 MSTORE PUSH1 0x1A SWAP1 DUP3 ADD MSTORE PUSH32 0x436F6E747261637420697320616C7265616479207369676E6564000000000000 PUSH1 0x40 DUP3 ADD MSTORE PUSH1 0x60 ADD SWAP1 JUMP JUMPDEST PUSH1 0x20 DUP1 DUP3 MSTORE DUP2 DUP2 ADD MSTORE PUSH32 0x4F776E61626C653A2063616C6C6572206973206E6F7420746865206F776E6572 PUSH1 0x40 DUP3 ADD MSTORE PUSH1 0x60 ADD SWAP1 JUMP JUMPDEST PUSH1 0x20 DUP1 DUP3 MSTORE PUSH1 0x14 SWAP1 DUP3 ADD MSTORE PUSH20 0x139BC81D1C985B9CD858DD1A5BDB9CC81B19599D PUSH1 0x62 SHL PUSH1 0x40 DUP3 ADD MSTORE PUSH1 0x60 ADD SWAP1 JUMP JUMPDEST PUSH1 0x20 DUP1 DUP3 MSTORE PUSH1 0x24 SWAP1 DUP3 ADD MSTORE PUSH32 0x4E6F7420656E6F7567682066756E6473206C6F636B656420696E207468652076 PUSH1 0x40 DUP3 ADD MSTORE PUSH4 0x185D5B1D PUSH1 0xE2 SHL PUSH1 0x60 DUP3 ADD MSTORE PUSH1 0x80 ADD SWAP1 JUMP JUMPDEST SWAP1 DUP2 MSTORE PUSH1 0x20 ADD SWAP1 JUMP JUMPDEST SWAP2 DUP3 MSTORE PUSH1 0x20 DUP3 ADD MSTORE PUSH1 0x40 ADD SWAP1 JUMP JUMPDEST PUSH1 0x0 DUP3 NOT DUP3 GT ISZERO PUSH2 0x1071 JUMPI PUSH2 0x1071 PUSH2 0x10DE JUMP JUMPDEST POP ADD SWAP1 JUMP JUMPDEST PUSH1 0x0 DUP2 PUSH1 0x0 NOT DIV DUP4 GT DUP3 ISZERO ISZERO AND ISZERO PUSH2 0x1090 JUMPI PUSH2 0x1090 PUSH2 0x10DE JUMP JUMPDEST POP MUL SWAP1 JUMP JUMPDEST PUSH1 0x0 DUP3 DUP3 LT ISZERO PUSH2 0x10A7 JUMPI PUSH2 0x10A7 PUSH2 0x10DE JUMP JUMPDEST POP SUB SWAP1 JUMP JUMPDEST PUSH1 0x0 DUP2 PUSH2 0x10BB JUMPI PUSH2 0x10BB PUSH2 0x10DE JUMP JUMPDEST POP PUSH1 0x0 NOT ADD SWAP1 JUMP JUMPDEST PUSH1 0x0 PUSH1 0x0 NOT DUP3 EQ ISZERO PUSH2 0x10D7 JUMPI PUSH2 0x10D7 PUSH2 0x10DE JUMP JUMPDEST POP PUSH1 0x1 ADD SWAP1 JUMP JUMPDEST PUSH4 0x4E487B71 PUSH1 0xE0 SHL PUSH1 0x0 MSTORE PUSH1 0x11 PUSH1 0x4 MSTORE PUSH1 0x24 PUSH1 0x0 REVERT JUMPDEST PUSH4 0x4E487B71 PUSH1 0xE0 SHL PUSH1 0x0 MSTORE PUSH1 0x41 PUSH1 0x4 MSTORE PUSH1 0x24 PUSH1 0x0 REVERT INVALID LOG2 PUSH5 0x6970667358 0x22 SLT KECCAK256 SELFBALANCE 0xA5 0xC3 JUMPI DUP7 DUP6 0xE2 0xD1 0xA5 0xE1 DUP10 POP SWAP2 PUSH5 0x8B0CFC7D48 0xE2 0xE4 0xB9 0xE4 LOG3 STOP 0xC2 SDIV PUSH32 0x2E1A6EC764736F6C634300080000330000000000000000000000000000000000 "
        },
        "methodIdentifiers": {
          "contractSigned()": "e65eeb1f",
          "createPaymentTo(address)": "ce548a36",
          "createPaymentToAll()": "c0ef904e",
          "currentAmount()": "f441b1c8",
          "deposit()": "d0e30db0",
          "hasOwnerSigned()": "88966cfd",
          "isContractSigned()": "322f0941",
          "owner()": "8da5cb5b",
          "ownerApprove()": "0c662c5b",
          "paymentDetails(address)": "88c49637",
          "receiverApprove()": "b5a6af78",
          "receivers(address)": "0cb8150f",
          "renounceOwnership()": "715018a6",
          "setPaymentDetails(address,uint256,uint256)": "122553f9",
          "setWhitelistAddresses(address[])": "f52ccc2d",
          "transferOwnership(address)": "f2fde38b",
          "whiteListLength()": "cfe684f5",
          "whitelist(uint256)": "7ebd1b30",
          "withdraw()": "3ccfd60b"
        }
      },
      "storageLayout": {
        "storage": [
          {
            "astId": 7,
            "contract": "main/src/contracts/Vault.sol:Vault",
            "label": "_owner",
            "offset": 0,
            "slot": "0",
            "type": "t_address"
          },
          {
            "astId": 168,
            "contract": "main/src/contracts/Vault.sol:Vault",
            "label": "contractSigned",
            "offset": 20,
            "slot": "0",
            "type": "t_bool"
          },
          {
            "astId": 171,
            "contract": "main/src/contracts/Vault.sol:Vault",
            "label": "hasOwnerSigned",
            "offset": 21,
            "slot": "0",
            "type": "t_bool"
          },
          {
            "astId": 174,
            "contract": "main/src/contracts/Vault.sol:Vault",
            "label": "whiteListLength",
            "offset": 0,
            "slot": "1",
            "type": "t_uint256"
          },
          {
            "astId": 177,
            "contract": "main/src/contracts/Vault.sol:Vault",
            "label": "currentAmount",
            "offset": 0,
            "slot": "2",
            "type": "t_uint256"
          },
          {
            "astId": 181,
            "contract": "main/src/contracts/Vault.sol:Vault",
            "label": "whitelist",
            "offset": 0,
            "slot": "3",
            "type": "t_array(t_address)dyn_storage"
          },
          {
            "astId": 186,
            "contract": "main/src/contracts/Vault.sol:Vault",
            "label": "receivers",
            "offset": 0,
            "slot": "4",
            "type": "t_mapping(t_address,t_struct(Reciever)601_storage)"
          },
          {
            "astId": 191,
            "contract": "main/src/contracts/Vault.sol:Vault",
            "label": "paymentDetails",
            "offset": 0,
            "slot": "5",
            "type": "t_mapping(t_address,t_struct(Payment)596_storage)"
          }
        ],
        "types": {
          "t_address": {
            "encoding": "inplace",
            "label": "address",
            "numberOfBytes": "20"
          },
          "t_array(t_address)dyn_storage": {
            "base": "t_address",
            "encoding": "dynamic_array",
            "label": "address[]",
            "numberOfBytes": "32"
          },
          "t_bool": {
            "encoding": "inplace",
            "label": "bool",
            "numberOfBytes": "1"
          },
          "t_mapping(t_address,t_struct(Payment)596_storage)": {
            "encoding": "mapping",
            "key": "t_address",
            "label": "mapping(address => struct IVault.Payment)",
            "numberOfBytes": "32",
            "value": "t_struct(Payment)596_storage"
          },
          "t_mapping(t_address,t_struct(Reciever)601_storage)": {
            "encoding": "mapping",
            "key": "t_address",
            "label": "mapping(address => struct IVault.Reciever)",
            "numberOfBytes": "32",
            "value": "t_struct(Reciever)601_storage"
          },
          "t_struct(Payment)596_storage": {
            "encoding": "inplace",
            "label": "struct IVault.Payment",
            "members": [
              {
                "astId": 593,
                "contract": "main/src/contracts/Vault.sol:Vault",
                "label": "amount",
                "offset": 0,
                "slot": "0",
                "type": "t_uint256"
              },
              {
                "astId": 595,
                "contract": "main/src/contracts/Vault.sol:Vault",
                "label": "numberOfTransactions",
                "offset": 0,
                "slot": "1",
                "type": "t_uint256"
              }
            ],
            "numberOfBytes": "64"
          },
          "t_struct(Reciever)601_storage": {
            "encoding": "inplace",
            "label": "struct IVault.Reciever",
            "members": [
              {
                "astId": 598,
                "contract": "main/src/contracts/Vault.sol:Vault",
                "label": "isWhiteListed",
                "offset": 0,
                "slot": "0",
                "type": "t_bool"
              },
              {
                "astId": 600,
                "contract": "main/src/contracts/Vault.sol:Vault",
                "label": "hasSigned",
                "offset": 1,
                "slot": "0",
                "type": "t_bool"
              }
            ],
            "numberOfBytes": "32"
          },
          "t_uint256": {
            "encoding": "inplace",
            "label": "uint256",
            "numberOfBytes": "32"
          }
        }
      }
    }
  }
}