{
    "_format": "hh-sol-artifact-1",
    "contractName": "VaultRegistry",
    "sourceName": "main/src/contracts/vault/VaultRegistry.sol",
    "abi": [
        {
            "inputs": [
                {
                    "components": [
                        {
                            "internalType": "address",
                            "name": "vaultFactory",
                            "type": "address"
                        },
                        {
                            "internalType": "address",
                            "name": "vaultETHFactory",
                            "type": "address"
                        },
                        {
                            "internalType": "address",
                            "name": "WETH",
                            "type": "address"
                        }
                    ],
                    "internalType": "struct IVaultRegistry.RegistryConfiguration",
                    "name": "config",
                    "type": "tuple"
                }
            ],
            "stateMutability": "nonpayable",
            "type": "constructor"
        },
        {
            "anonymous": false,
            "inputs": [
                {
                    "indexed": false,
                    "internalType": "address",
                    "name": "vault",
                    "type": "address"
                },
                {
                    "indexed": false,
                    "internalType": "address",
                    "name": "asset",
                    "type": "address"
                }
            ],
            "name": "VaultDeployed",
            "type": "event"
        },
        {
            "inputs": [],
            "name": "WETH",
            "outputs": [
                {
                    "internalType": "address",
                    "name": "",
                    "type": "address"
                }
            ],
            "stateMutability": "view",
            "type": "function"
        },
        {
            "inputs": [
                {
                    "internalType": "uint256",
                    "name": "",
                    "type": "uint256"
                }
            ],
            "name": "assets",
            "outputs": [
                {
                    "internalType": "address",
                    "name": "",
                    "type": "address"
                }
            ],
            "stateMutability": "view",
            "type": "function"
        },
        {
            "inputs": [
                {
                    "internalType": "address",
                    "name": "asset",
                    "type": "address"
                }
            ],
            "name": "createVault",
            "outputs": [],
            "stateMutability": "nonpayable",
            "type": "function"
        },
        {
            "inputs": [],
            "name": "createVaultETH",
            "outputs": [],
            "stateMutability": "nonpayable",
            "type": "function"
        },
        {
            "inputs": [],
            "name": "getAllAssets",
            "outputs": [
                {
                    "internalType": "address[]",
                    "name": "",
                    "type": "address[]"
                }
            ],
            "stateMutability": "view",
            "type": "function"
        },
        {
            "inputs": [
                {
                    "internalType": "address",
                    "name": "asset",
                    "type": "address"
                }
            ],
            "name": "getVaultsPerAsset",
            "outputs": [
                {
                    "internalType": "address[]",
                    "name": "",
                    "type": "address[]"
                }
            ],
            "stateMutability": "view",
            "type": "function"
        },
        {
            "inputs": [],
            "name": "vaultETHFactory",
            "outputs": [
                {
                    "internalType": "address",
                    "name": "",
                    "type": "address"
                }
            ],
            "stateMutability": "view",
            "type": "function"
        },
        {
            "inputs": [],
            "name": "vaultFactory",
            "outputs": [
                {
                    "internalType": "address",
                    "name": "",
                    "type": "address"
                }
            ],
            "stateMutability": "view",
            "type": "function"
        },
        {
            "inputs": [
                {
                    "internalType": "address",
                    "name": "",
                    "type": "address"
                },
                {
                    "internalType": "uint256",
                    "name": "",
                    "type": "uint256"
                }
            ],
            "name": "vaultsPerAsset",
            "outputs": [
                {
                    "internalType": "address",
                    "name": "",
                    "type": "address"
                }
            ],
            "stateMutability": "view",
            "type": "function"
        }
    ],
    "bytecode": "0x608060405234801561001057600080fd5b5060405161084e38038061084e83398101604081905261002f91610097565b6040810151600280546001600160a01b03199081166001600160a01b03938416179091558251600080548316918416919091179055602090920151600180549093169116179055610110565b80516001600160a01b038116811461009257600080fd5b919050565b6000606082840312156100a957600080fd5b604051606081016001600160401b03811182821017156100d957634e487b7160e01b600052604160045260246000fd5b6040526100e58361007b565b81526100f36020840161007b565b60208201526101046040840161007b565b60408201529392505050565b61072f8061011f6000396000f3fe608060405234801561001057600080fd5b50600436106100935760003560e01c8063ad5c464811610066578063ad5c4648146100fa578063b4bd6f461461010d578063cf35bdd014610120578063d6ff544a14610133578063d8a06f731461014657600080fd5b80630d3618c5146100985780632acada4d146100c85780636074057d146100dd578063a9783cfa146100e7575b600080fd5b6100ab6100a63660046105c0565b610159565b6040516001600160a01b0390911681526020015b60405180910390f35b6100d0610191565b6040516100bf91906105ec565b6100e56101f3565b005b6001546100ab906001600160a01b031681565b6002546100ab906001600160a01b031681565b6100e561011b366004610639565b610287565b6100ab61012e36600461065d565b610368565b6100d0610141366004610639565b610392565b6000546100ab906001600160a01b031681565b6004602052816000526040600020818154811061017557600080fd5b6000918252602090912001546001600160a01b03169150829050565b606060038054806020026020016040519081016040528092919081815260200182805480156101e957602002820191906000526020600020905b81546001600160a01b031681526001909101906020018083116101cb575b5050505050905090565b600154600254604051635a5eb7a360e11b81526001600160a01b039182166004820152600092919091169063b4bd6f46906024016020604051808303816000875af1158015610246573d6000803e3d6000fd5b505050506040513d601f19601f8201168201806040525081019061026a9190610676565b6002549091506102849082906001600160a01b0316610408565b50565b60408051808201909152600c81526b7661756c74466163746f727960a01b60208201526000546102c091906001600160a01b031661054a565b6102e760405180604001604052806005815260200164185cdcd95d60da1b8152508261054a565b60008054604051635a5eb7a360e11b81526001600160a01b0384811660048301529091169063b4bd6f46906024016020604051808303816000875af1158015610334573d6000803e3d6000fd5b505050506040513d601f19601f820116820180604052508101906103589190610676565b90506103648183610408565b5050565b6003818154811061037857600080fd5b6000918252602090912001546001600160a01b0316905081565b6001600160a01b0381166000908152600460209081526040918290208054835181840281018401909452808452606093928301828280156103fc57602002820191906000526020600020905b81546001600160a01b031681526001909101906020018083116103de575b50505050509050919050565b6001600160a01b038116600090815260046020526040812054900361047357600380546001810182556000919091527fc2575a0e9e593c00f959f8c92f12db2869c3395a3b0502d05e2516446f71f85b0180546001600160a01b0319166001600160a01b0383161790555b6001600160a01b0381811660009081526004602081815260408084208054600181018255908552919093200180546001600160a01b0319169386169384179055905163f2fde38b60e01b8152339181019190915263f2fde38b90602401600060405180830381600087803b1580156104ea57600080fd5b505af11580156104fe573d6000803e3d6000fd5b5050604080516001600160a01b038087168252851660208201527f09d75e12e349f79020715b0ea7b2c707e8acf1889b6d6f1337fce7f4e1b9e5c7935001905060405180910390a15050565b6103648282604051602401610560929190610693565b60408051601f198184030181529190526020810180516001600160e01b031663319af33360e01b17905280516a636f6e736f6c652e6c6f67602083016000808483855afa5050505050565b6001600160a01b038116811461028457600080fd5b600080604083850312156105d357600080fd5b82356105de816105ab565b946020939093013593505050565b6020808252825182820181905260009190848201906040850190845b8181101561062d5783516001600160a01b031683529284019291840191600101610608565b50909695505050505050565b60006020828403121561064b57600080fd5b8135610656816105ab565b9392505050565b60006020828403121561066f57600080fd5b5035919050565b60006020828403121561068857600080fd5b8151610656816105ab565b604081526000835180604084015260005b818110156106c157602081870181015160608684010152016106a4565b818111156106d3576000606083860101525b506001600160a01b0393909316602083015250601f91909101601f19160160600191905056fea2646970667358221220398fe7ac9616950aca4f671bdf3546c3129f066307f2ba627262bf30bdba82f864736f6c634300080e0033",
    "linkReferences": {},
    "deployedLinkReferences": {}
}