{
  "_format": "hh-sol-artifact-1",
  "contractName": "VaultETH",
  "sourceName": "main/src/contracts/vault/VaultETH.sol",
  "abi": [
    {
      "inputs": [
        {
          "internalType": "address",
          "name": "asset_",
          "type": "address"
        }
      ],
      "stateMutability": "nonpayable",
      "type": "constructor"
    },
    {
      "inputs": [],
      "name": "V_ALREADY_SIGNED",
      "type": "error"
    },
    {
      "inputs": [],
      "name": "V_ETH_INSUFFICIENT_AMOUNT",
      "type": "error"
    },
    {
      "inputs": [],
      "name": "V_NOT_ENOUGH_FUNDS_LOCKED",
      "type": "error"
    },
    {
      "inputs": [],
      "name": "V_NOT_SIGNED",
      "type": "error"
    },
    {
      "inputs": [],
      "name": "V_NOT_WHITELISTED",
      "type": "error"
    },
    {
      "inputs": [],
      "name": "V_NO_TRANSACTIONS_LEFT",
      "type": "error"
    },
    {
      "inputs": [],
      "name": "V_SAFE_TRANSFER_NATIVE_FAILED",
      "type": "error"
    },
    {
      "anonymous": false,
      "inputs": [
        {
          "indexed": true,
          "internalType": "address",
          "name": "previousOwner",
          "type": "address"
        },
        {
          "indexed": true,
          "internalType": "address",
          "name": "newOwner",
          "type": "address"
        }
      ],
      "name": "OwnershipTransferred",
      "type": "event"
    },
    {
      "anonymous": false,
      "inputs": [
        {
          "indexed": true,
          "internalType": "address",
          "name": "sender",
          "type": "address"
        },
        {
          "indexed": false,
          "internalType": "uint256",
          "name": "value",
          "type": "uint256"
        }
      ],
      "name": "Recieved",
      "type": "event"
    },
    {
      "anonymous": false,
      "inputs": [
        {
          "indexed": true,
          "internalType": "address",
          "name": "addr",
          "type": "address"
        },
        {
          "indexed": false,
          "internalType": "uint256",
          "name": "value",
          "type": "uint256"
        }
      ],
      "name": "Sent",
      "type": "event"
    },
    {
      "anonymous": false,
      "inputs": [
        {
          "indexed": false,
          "internalType": "address[]",
          "name": "whitelist",
          "type": "address[]"
        }
      ],
      "name": "WhitelistSet",
      "type": "event"
    },
    {
      "anonymous": false,
      "inputs": [
        {
          "indexed": false,
          "internalType": "uint256",
          "name": "value",
          "type": "uint256"
        }
      ],
      "name": "Withdrawn",
      "type": "event"
    },
    {
      "stateMutability": "payable",
      "type": "fallback"
    },
    {
      "inputs": [],
      "name": "asset",
      "outputs": [
        {
          "internalType": "address",
          "name": "",
          "type": "address"
        }
      ],
      "stateMutability": "view",
      "type": "function"
    },
    {
      "inputs": [],
      "name": "contractSigned",
      "outputs": [
        {
          "internalType": "bool",
          "name": "",
          "type": "bool"
        }
      ],
      "stateMutability": "view",
      "type": "function"
    },
    {
      "inputs": [
        {
          "internalType": "address",
          "name": "_receiver",
          "type": "address"
        }
      ],
      "name": "createPaymentTo",
      "outputs": [],
      "stateMutability": "nonpayable",
      "type": "function"
    },
    {
      "inputs": [],
      "name": "createPaymentToAll",
      "outputs": [],
      "stateMutability": "nonpayable",
      "type": "function"
    },
    {
      "inputs": [],
      "name": "currentAmount",
      "outputs": [
        {
          "internalType": "uint256",
          "name": "",
          "type": "uint256"
        }
      ],
      "stateMutability": "view",
      "type": "function"
    },
    {
      "inputs": [],
      "name": "deposit",
      "outputs": [],
      "stateMutability": "payable",
      "type": "function"
    },
    {
      "inputs": [],
      "name": "hasOwnerSigned",
      "outputs": [
        {
          "internalType": "bool",
          "name": "",
          "type": "bool"
        }
      ],
      "stateMutability": "view",
      "type": "function"
    },
    {
      "inputs": [],
      "name": "isContractSigned",
      "outputs": [
        {
          "internalType": "bool",
          "name": "",
          "type": "bool"
        }
      ],
      "stateMutability": "view",
      "type": "function"
    },
    {
      "inputs": [],
      "name": "owner",
      "outputs": [
        {
          "internalType": "address",
          "name": "",
          "type": "address"
        }
      ],
      "stateMutability": "view",
      "type": "function"
    },
    {
      "inputs": [],
      "name": "ownerApprove",
      "outputs": [],
      "stateMutability": "nonpayable",
      "type": "function"
    },
    {
      "inputs": [
        {
          "internalType": "address",
          "name": "",
          "type": "address"
        }
      ],
      "name": "paymentDetails",
      "outputs": [
        {
          "internalType": "uint256",
          "name": "amount",
          "type": "uint256"
        },
        {
          "internalType": "uint256",
          "name": "numberOfTransactions",
          "type": "uint256"
        }
      ],
      "stateMutability": "view",
      "type": "function"
    },
    {
      "inputs": [],
      "name": "receiverApprove",
      "outputs": [],
      "stateMutability": "nonpayable",
      "type": "function"
    },
    {
      "inputs": [
        {
          "internalType": "address",
          "name": "",
          "type": "address"
        }
      ],
      "name": "receivers",
      "outputs": [
        {
          "internalType": "bool",
          "name": "isWhiteListed",
          "type": "bool"
        },
        {
          "internalType": "bool",
          "name": "hasSigned",
          "type": "bool"
        }
      ],
      "stateMutability": "view",
      "type": "function"
    },
    {
      "inputs": [],
      "name": "renounceOwnership",
      "outputs": [],
      "stateMutability": "nonpayable",
      "type": "function"
    },
    {
      "inputs": [
        {
          "internalType": "address",
          "name": "_receiver",
          "type": "address"
        },
        {
          "internalType": "uint256",
          "name": "_amount",
          "type": "uint256"
        },
        {
          "internalType": "uint256",
          "name": "_numberOfTransactions",
          "type": "uint256"
        }
      ],
      "name": "setPaymentDetails",
      "outputs": [],
      "stateMutability": "nonpayable",
      "type": "function"
    },
    {
      "inputs": [
        {
          "internalType": "address[]",
          "name": "_whitelist",
          "type": "address[]"
        }
      ],
      "name": "setWhitelistAddresses",
      "outputs": [],
      "stateMutability": "nonpayable",
      "type": "function"
    },
    {
      "inputs": [
        {
          "internalType": "address",
          "name": "newOwner",
          "type": "address"
        }
      ],
      "name": "transferOwnership",
      "outputs": [],
      "stateMutability": "nonpayable",
      "type": "function"
    },
    {
      "inputs": [
        {
          "internalType": "uint256",
          "name": "",
          "type": "uint256"
        }
      ],
      "name": "whitelist",
      "outputs": [
        {
          "internalType": "address",
          "name": "",
          "type": "address"
        }
      ],
      "stateMutability": "view",
      "type": "function"
    },
    {
      "inputs": [],
      "name": "withdraw",
      "outputs": [],
      "stateMutability": "nonpayable",
      "type": "function"
    },
    {
      "stateMutability": "payable",
      "type": "receive"
    }
  ],
  "bytecode": "0x608060405234801561001057600080fd5b5060405161138f38038061138f83398101604081905261002f916100af565b806100393361005f565b600280546001600160a01b0319166001600160a01b0392909216919091179055506100df565b600080546001600160a01b038381166001600160a01b0319831681178455604051919092169283917f8be0079c531659141344cd1fd0a4f28419497f9722a3daafe3b4186f6b6457e09190a35050565b6000602082840312156100c157600080fd5b81516001600160a01b03811681146100d857600080fd5b9392505050565b6112a1806100ee6000396000f3fe60806040526004361061010c5760003560e01c806388c496371161009a578063d0e30db011610061578063d0e30db014610318578063e65eeb1f14610320578063f2fde38b14610341578063f441b1c814610361578063f52ccc2d1461038557005b806388c49637146102675780638da5cb5b146102b0578063b5a6af78146102ce578063c0ef904e146102e3578063ce548a36146102f857005b806338d52e0f116100de57806338d52e0f146101c45780633ccfd60b146101fc578063715018a6146102115780637ebd1b301461022657806388966cfd1461024657005b80630c662c5b146101155780630cb8150f1461012a578063122553f91461017f578063322f09411461019f57005b3661011357005b005b34801561012157600080fd5b506101136103a5565b34801561013657600080fd5b50610163610145366004610fa2565b60046020526000908152604090205460ff8082169161010090041682565b6040805192151583529015156020830152015b60405180910390f35b34801561018b57600080fd5b5061011361019a366004610fc4565b610411565b3480156101ab57600080fd5b506101b46104d0565b6040519015158152602001610176565b3480156101d057600080fd5b506002546101e4906001600160a01b031681565b6040516001600160a01b039091168152602001610176565b34801561020857600080fd5b50610113610563565b34801561021d57600080fd5b506101136106b7565b34801561023257600080fd5b506101e4610241366004610ff7565b6106ed565b34801561025257600080fd5b506000546101b490600160a81b900460ff1681565b34801561027357600080fd5b5061029b610282366004610fa2565b6005602052600090815260409020805460019091015482565b60408051928352602083019190915201610176565b3480156102bc57600080fd5b506000546001600160a01b03166101e4565b3480156102da57600080fd5b50610113610717565b3480156102ef57600080fd5b5061011361078a565b34801561030457600080fd5b50610113610313366004610fa2565b610987565b610113610b4f565b34801561032c57600080fd5b506000546101b490600160a01b900460ff1681565b34801561034d57600080fd5b5061011361035c366004610fa2565b610bd0565b34801561036d57600080fd5b5061037760015481565b604051908152602001610176565b34801561039157600080fd5b506101136103a0366004611026565b610c6b565b6000546001600160a01b031633146103d85760405162461bcd60e51b81526004016103cf906110eb565b60405180910390fd5b6000805460ff60a81b1916600160a81b1790556103f36104d0565b60008054911515600160a01b0260ff60a01b19909216919091179055565b6001600160a01b038316600090815260046020526040902054839060ff1661044c576040516365b3b45160e11b815260040160405180910390fd5b60006104588385611136565b905080600154101561047d576040516303b0c90b60e01b815260040160405180910390fd5b60408051808201825285815260208082018681526001600160a01b0389166000908152600590925292812091518255915160019182015580548392906104c4908490611155565b90915550505050505050565b60008054600160a81b900460ff166104e85750600090565b60035460005b8181101561055a57600460006003838154811061050d5761050d61116c565b60009182526020808320909101546001600160a01b0316835282019290925260400190205460ff610100909104166105485760009250505090565b8061055281611182565b9150506104ee565b50600191505090565b60008054600160a01b900460ff161580159061057c5750805b1561059a57604051633ca4ed0d60e21b815260040160405180910390fd5b60005460ff600160a01b909104161515811515146105cb57604051639222366360e01b815260040160405180910390fd5b6000546001600160a01b031633146105f55760405162461bcd60e51b81526004016103cf906110eb565b6002546040516370a0823160e01b81523060048201526000916001600160a01b0316906370a0823190602401602060405180830381865afa15801561063e573d6000803e3d6000fd5b505050506040513d601f19601f82011682018060405250810190610662919061119b565b905061067f8161067a6000546001600160a01b031690565b610d40565b6040518181527f430648de173157e069201c943adb2d4e340e7cf5b27b1b09c9cb852f03d63b56906020015b60405180910390a15050565b6000546001600160a01b031633146106e15760405162461bcd60e51b81526004016103cf906110eb565b6106eb6000610e30565b565b600381815481106106fd57600080fd5b6000918252602090912001546001600160a01b0316905081565b3360008181526004602052604090205460ff16610747576040516365b3b45160e11b815260040160405180910390fd5b336000908152600460205260409020805461ff00191661010017905561076b6104d0565b60008054911515600160a01b0260ff60a01b1990921691909117905550565b600054600190600160a01b900460ff16151581148015906107a85750805b156107c657604051633ca4ed0d60e21b815260040160405180910390fd5b60005460ff600160a01b909104161515811515146107f757604051639222366360e01b815260040160405180910390fd5b6003546000805b8281101561086057600560006003838154811061081d5761081d61116c565b60009182526020808320909101546001600160a01b0316835282019290925260400190205461084c90836111b4565b91508061085881611182565b9150506107fe565b506002546040516370a0823160e01b81523060048201526001600160a01b03909116906370a0823190602401602060405180830381865afa1580156108a9573d6000803e3d6000fd5b505050506040513d601f19601f820116820180604052508101906108cd919061119b565b8111156108ed576040516303b0c90b60e01b815260040160405180910390fd5b60005b8281101561098157600060056000600384815481106109115761091161116c565b60009182526020808320909101546001600160a01b03168352820192909252604001902060010154111561096f5761096f600382815481106109555761095561116c565b6000918252602090912001546001600160a01b0316610987565b8061097981611182565b9150506108f0565b50505050565b600054600190600160a01b900460ff16151581148015906109a55750805b156109c357604051633ca4ed0d60e21b815260040160405180910390fd5b60005460ff600160a01b909104161515811515146109f457604051639222366360e01b815260040160405180910390fd5b6001600160a01b03828116600090815260056020526040908190205460025491516370a0823160e01b8152306004820152909291909116906370a0823190602401602060405180830381865afa158015610a52573d6000803e3d6000fd5b505050506040513d601f19601f82011682018060405250810190610a76919061119b565b811115610a96576040516303b0c90b60e01b815260040160405180910390fd5b6001600160a01b0383166000908152600560205260408120600101549003610ad157604051634c850f2960e01b815260040160405180910390fd5b6001600160a01b0383166000908152600560205260408120600101805491610af8836111cc565b9190505550610b078184610d40565b826001600160a01b03167f510ffb4dcab972ae9d2007a58e13f1b0881776d23cd8f5cc32f8c5be2dbf70d282604051610b4291815260200190565b60405180910390a2505050565b6000546001600160a01b03163314610b795760405162461bcd60e51b81526004016103cf906110eb565b610b8234610e80565b3460016000828254610b9491906111b4565b909155505060405134815233907fe03f2fbffd55aceaa08b8e27b348ae6b7607e8a520dfe6a92b053c2ce0ac850a9060200160405180910390a2565b6000546001600160a01b03163314610bfa5760405162461bcd60e51b81526004016103cf906110eb565b6001600160a01b038116610c5f5760405162461bcd60e51b815260206004820152602660248201527f4f776e61626c653a206e6577206f776e657220697320746865207a65726f206160448201526564647265737360d01b60648201526084016103cf565b610c6881610e30565b50565b6000546001600160a01b03163314610c955760405162461bcd60e51b81526004016103cf906110eb565b805160005b81811015610cfc57600160046000858481518110610cba57610cba61116c565b6020908102919091018101516001600160a01b03168252810191909152604001600020805460ff1916911515919091179055610cf581611182565b9050610c9a565b508151610d10906003906020850190610f0c565b507fbb8d8b423660b82de5f2ac9a04fd44584e1a7caf11aed34e35d06e9741495e30826040516106ab91906111e3565b600254604051632e1a7d4d60e01b8152600481018490526001600160a01b0390911690632e1a7d4d90602401600060405180830381600087803b158015610d8657600080fd5b505af1158015610d9a573d6000803e3d6000fd5b5050604080516000808252602082019283905293506001600160a01b03851692508591610dc79190611230565b60006040518083038185875af1925050503d8060008114610e04576040519150601f19603f3d011682016040523d82523d6000602084013e610e09565b606091505b5050905080610e2b576040516376df209f60e11b815260040160405180910390fd5b505050565b600080546001600160a01b038381166001600160a01b0319831681178455604051919092169283917f8be0079c531659141344cd1fd0a4f28419497f9722a3daafe3b4186f6b6457e09190a35050565b348114610ea05760405163778aac8160e01b815260040160405180910390fd5b600260009054906101000a90046001600160a01b03166001600160a01b031663d0e30db0826040518263ffffffff1660e01b81526004016000604051808303818588803b158015610ef057600080fd5b505af1158015610f04573d6000803e3d6000fd5b505050505050565b828054828255906000526020600020908101928215610f61579160200282015b82811115610f6157825182546001600160a01b0319166001600160a01b03909116178255602090920191600190910190610f2c565b50610f6d929150610f71565b5090565b5b80821115610f6d5760008155600101610f72565b80356001600160a01b0381168114610f9d57600080fd5b919050565b600060208284031215610fb457600080fd5b610fbd82610f86565b9392505050565b600080600060608486031215610fd957600080fd5b610fe284610f86565b95602085013595506040909401359392505050565b60006020828403121561100957600080fd5b5035919050565b634e487b7160e01b600052604160045260246000fd5b6000602080838503121561103957600080fd5b823567ffffffffffffffff8082111561105157600080fd5b818501915085601f83011261106557600080fd5b81358181111561107757611077611010565b8060051b604051601f19603f8301168101818110858211171561109c5761109c611010565b6040529182528482019250838101850191888311156110ba57600080fd5b938501935b828510156110df576110d085610f86565b845293850193928501926110bf565b98975050505050505050565b6020808252818101527f4f776e61626c653a2063616c6c6572206973206e6f7420746865206f776e6572604082015260600190565b634e487b7160e01b600052601160045260246000fd5b600081600019048311821515161561115057611150611120565b500290565b60008282101561116757611167611120565b500390565b634e487b7160e01b600052603260045260246000fd5b60006001820161119457611194611120565b5060010190565b6000602082840312156111ad57600080fd5b5051919050565b600082198211156111c7576111c7611120565b500190565b6000816111db576111db611120565b506000190190565b6020808252825182820181905260009190848201906040850190845b818110156112245783516001600160a01b0316835292840192918401916001016111ff565b50909695505050505050565b6000825160005b818110156112515760208186018101518583015201611237565b81811115611260576000828501525b50919091019291505056fea2646970667358221220070d24c5a92acc86eee2404998c29a7e6d77123ab82a8e2c930db6a4fa869f0a64736f6c634300080e0033",
  "linkReferences": {},
  "deployedLinkReferences": {}
}