{
  "contractName": "Vault",
  "abi": [
    {
      "inputs": [],
      "stateMutability": "payable",
      "type": "constructor",
      "payable": true
    },
    {
      "anonymous": false,
      "inputs": [
        {
          "indexed": false,
          "internalType": "address",
          "name": "sender",
          "type": "address"
        },
        {
          "indexed": false,
          "internalType": "uint256",
          "name": "value",
          "type": "uint256"
        }
      ],
      "name": "Recieved",
      "type": "event"
    },
    {
      "anonymous": false,
      "inputs": [
        {
          "indexed": false,
          "internalType": "address",
          "name": "addr",
          "type": "address"
        },
        {
          "indexed": false,
          "internalType": "uint256",
          "name": "value",
          "type": "uint256"
        }
      ],
      "name": "Sent",
      "type": "event"
    },
    {
      "anonymous": false,
      "inputs": [
        {
          "indexed": false,
          "internalType": "address[]",
          "name": "whitelist",
          "type": "address[]"
        }
      ],
      "name": "WhitelistSet",
      "type": "event"
    },
    {
      "anonymous": false,
      "inputs": [
        {
          "indexed": false,
          "internalType": "uint256",
          "name": "value",
          "type": "uint256"
        }
      ],
      "name": "Withdrawed",
      "type": "event"
    },
    {
      "inputs": [],
      "name": "contractSigned",
      "outputs": [
        {
          "internalType": "bool",
          "name": "",
          "type": "bool"
        }
      ],
      "stateMutability": "view",
      "type": "function",
      "constant": true
    },
    {
      "inputs": [],
      "name": "currentAmount",
      "outputs": [
        {
          "internalType": "uint256",
          "name": "",
          "type": "uint256"
        }
      ],
      "stateMutability": "view",
      "type": "function",
      "constant": true
    },
    {
      "inputs": [],
      "name": "owner",
      "outputs": [
        {
          "internalType": "address",
          "name": "addr",
          "type": "address"
        },
        {
          "internalType": "bool",
          "name": "hasSigned",
          "type": "bool"
        }
      ],
      "stateMutability": "view",
      "type": "function",
      "constant": true
    },
    {
      "inputs": [
        {
          "internalType": "address",
          "name": "",
          "type": "address"
        }
      ],
      "name": "paymentDetails",
      "outputs": [
        {
          "internalType": "uint256",
          "name": "amount",
          "type": "uint256"
        },
        {
          "internalType": "uint256",
          "name": "numberOfTransactions",
          "type": "uint256"
        }
      ],
      "stateMutability": "view",
      "type": "function",
      "constant": true
    },
    {
      "inputs": [
        {
          "internalType": "address",
          "name": "",
          "type": "address"
        }
      ],
      "name": "recievers",
      "outputs": [
        {
          "internalType": "bool",
          "name": "isWhiteListed",
          "type": "bool"
        },
        {
          "internalType": "bool",
          "name": "hasSigned",
          "type": "bool"
        }
      ],
      "stateMutability": "view",
      "type": "function",
      "constant": true
    },
    {
      "inputs": [],
      "name": "whiteListLength",
      "outputs": [
        {
          "internalType": "uint256",
          "name": "",
          "type": "uint256"
        }
      ],
      "stateMutability": "view",
      "type": "function",
      "constant": true
    },
    {
      "inputs": [
        {
          "internalType": "uint256",
          "name": "",
          "type": "uint256"
        }
      ],
      "name": "whitelist",
      "outputs": [
        {
          "internalType": "address",
          "name": "",
          "type": "address"
        }
      ],
      "stateMutability": "view",
      "type": "function",
      "constant": true
    },
    {
      "inputs": [
        {
          "internalType": "address[]",
          "name": "_whitelist",
          "type": "address[]"
        }
      ],
      "name": "setWhitelistAddresses",
      "outputs": [],
      "stateMutability": "nonpayable",
      "type": "function"
    },
    {
      "inputs": [],
      "name": "receiverApprove",
      "outputs": [],
      "stateMutability": "nonpayable",
      "type": "function"
    },
    {
      "inputs": [],
      "name": "ownerApprove",
      "outputs": [],
      "stateMutability": "nonpayable",
      "type": "function"
    },
    {
      "inputs": [],
      "name": "isContractSigned",
      "outputs": [
        {
          "internalType": "bool",
          "name": "",
          "type": "bool"
        }
      ],
      "stateMutability": "view",
      "type": "function",
      "constant": true
    },
    {
      "inputs": [],
      "name": "deposit",
      "outputs": [],
      "stateMutability": "payable",
      "type": "function",
      "payable": true
    },
    {
      "inputs": [],
      "name": "withdraw",
      "outputs": [],
      "stateMutability": "payable",
      "type": "function",
      "payable": true
    },
    {
      "inputs": [
        {
          "internalType": "address",
          "name": "_reciever",
          "type": "address"
        },
        {
          "internalType": "uint256",
          "name": "_amount",
          "type": "uint256"
        },
        {
          "internalType": "uint256",
          "name": "_numberOfTransactions",
          "type": "uint256"
        }
      ],
      "name": "setPaymentDetails",
      "outputs": [],
      "stateMutability": "nonpayable",
      "type": "function"
    },
    {
      "inputs": [
        {
          "internalType": "address",
          "name": "_reciever",
          "type": "address"
        }
      ],
      "name": "createPaymentTo",
      "outputs": [],
      "stateMutability": "payable",
      "type": "function",
      "payable": true
    },
    {
      "inputs": [],
      "name": "createPaymentToAll",
      "outputs": [],
      "stateMutability": "payable",
      "type": "function",
      "payable": true
    }
  ],
  "bytecode": "0x6080604052600060015560006004556000600660006101000a81548160ff021916908315150217905550336000800160006101000a81548173ffffffffffffffffffffffffffffffffffffffff021916908373ffffffffffffffffffffffffffffffffffffffff160217905550611a428061007b6000396000f3fe6080604052600436106100f35760003560e01c8063c0ef904e1161008a578063e65eeb1f11610059578063e65eeb1f14610286578063f1b0821e146102b1578063f441b1c8146102ef578063f52ccc2d1461031a576100f3565b8063c0ef904e1461022b578063ce548a3614610235578063cfe684f514610251578063d0e30db01461027c576100f3565b80637ebd1b30116100c65780637ebd1b301461016d57806388c49637146101aa5780638da5cb5b146101e857806390ca723614610214576100f3565b80630c662c5b146100f8578063122553f91461010f578063322f0941146101385780633ccfd60b14610163575b600080fd5b34801561010457600080fd5b5061010d610343565b005b34801561011b57600080fd5b5061013660048036038101906101319190611115565b6103df565b005b34801561014457600080fd5b5061014d61050b565b60405161015a9190611183565b60405180910390f35b61016b610615565b005b34801561017957600080fd5b50610194600480360381019061018f919061119e565b61076b565b6040516101a191906111da565b60405180910390f35b3480156101b657600080fd5b506101d160048036038101906101cc91906111f5565b6107aa565b6040516101df929190611231565b60405180910390f35b3480156101f457600080fd5b506101fd6107ce565b60405161020b92919061125a565b60405180910390f35b34801561022057600080fd5b5061022961080d565b005b61023361089d565b005b61024f600480360381019061024a91906111f5565b610adb565b005b34801561025d57600080fd5b50610266610d15565b6040516102739190611283565b60405180910390f35b610284610d1b565b005b34801561029257600080fd5b5061029b610dcb565b6040516102a89190611183565b60405180910390f35b3480156102bd57600080fd5b506102d860048036038101906102d391906111f5565b610dde565b6040516102e692919061129e565b60405180910390f35b3480156102fb57600080fd5b50610304610e1c565b6040516103119190611283565b60405180910390f35b34801561032657600080fd5b50610341600480360381019061033c9190611420565b610e22565b005b6000800160009054906101000a900473ffffffffffffffffffffffffffffffffffffffff1673ffffffffffffffffffffffffffffffffffffffff163373ffffffffffffffffffffffffffffffffffffffff161461039f57600080fd5b60016000800160146101000a81548160ff0219169083151502179055506103c461050b565b600660006101000a81548160ff021916908315150217905550565b6103e883610f6d565b610427576040517f08c379a000000000000000000000000000000000000000000000000000000000815260040161041e906114c6565b60405180910390fd5b80826104339190611515565b6001541015610477576040517f08c379a000000000000000000000000000000000000000000000000000000000815260040161046e906115e1565b60405180910390fd5b604051806040016040528083815260200182815250600560008573ffffffffffffffffffffffffffffffffffffffff1673ffffffffffffffffffffffffffffffffffffffff168152602001908152602001600020600082015181600001556020820151816001015590505080826104ee9190611515565b600160008282546104ff9190611601565b92505081905550505050565b60008060000160149054906101000a900460ff1661052c5760009050610612565b6000600190506000600380549050905060005b818110156105f157600260006003838154811061055f5761055e611635565b5b9060005260206000200160009054906101000a900473ffffffffffffffffffffffffffffffffffffffff1673ffffffffffffffffffffffffffffffffffffffff1673ffffffffffffffffffffffffffffffffffffffff16815260200190815260200160002060000160019054906101000a900460ff166105de57600092505b80806105e990611664565b91505061053f565b506000800160149054906101000a900460ff16801561060d5750815b925050505b90565b6000800160009054906101000a900473ffffffffffffffffffffffffffffffffffffffff1673ffffffffffffffffffffffffffffffffffffffff163373ffffffffffffffffffffffffffffffffffffffff161461067157600080fd5b600660009054906101000a900460ff16156106c1576040517f08c379a00000000000000000000000000000000000000000000000000000000081526004016106b8906116f9565b60405180910390fd5b60004790506000800160009054906101000a900473ffffffffffffffffffffffffffffffffffffffff1673ffffffffffffffffffffffffffffffffffffffff166108fc829081150290604051600060405180830381858888f19350505050158015610730573d6000803e3d6000fd5b507f11e9d9f7a772129e26cb0560945658c96b41c42ac6712d233e20c894bfcd00fd816040516107609190611283565b60405180910390a150565b6003818154811061077b57600080fd5b906000526020600020016000915054906101000a900473ffffffffffffffffffffffffffffffffffffffff1681565b60056020528060005260406000206000915090508060000154908060010154905082565b60008060000160009054906101000a900473ffffffffffffffffffffffffffffffffffffffff16908060000160149054906101000a900460ff16905082565b61081633610f6d565b61081f57600080fd5b6001600260003373ffffffffffffffffffffffffffffffffffffffff1673ffffffffffffffffffffffffffffffffffffffff16815260200190815260200160002060000160016101000a81548160ff02191690831515021790555061088261050b565b600660006101000a81548160ff021916908315150217905550565b600660009054906101000a900460ff166108ec576040517f08c379a00000000000000000000000000000000000000000000000000000000081526004016108e390611765565b60405180910390fd5b600060038054905090506000805b828110156109a357600560006003838154811061091a57610919611635565b5b9060005260206000200160009054906101000a900473ffffffffffffffffffffffffffffffffffffffff1673ffffffffffffffffffffffffffffffffffffffff1673ffffffffffffffffffffffffffffffffffffffff168152602001908152602001600020600001548261098e9190611785565b9150808061099b90611664565b9150506108fa565b50478111156109e7576040517f08c379a00000000000000000000000000000000000000000000000000000000081526004016109de9061184d565b60405180910390fd5b60005b82811015610ad65760006005600060038481548110610a0c57610a0b611635565b5b9060005260206000200160009054906101000a900473ffffffffffffffffffffffffffffffffffffffff1673ffffffffffffffffffffffffffffffffffffffff1673ffffffffffffffffffffffffffffffffffffffff168152602001908152602001600020600101541115610ac357610ac260038281548110610a9257610a91611635565b5b9060005260206000200160009054906101000a900473ffffffffffffffffffffffffffffffffffffffff16610adb565b5b8080610ace90611664565b9150506109ea565b505050565b600660009054906101000a900460ff16610b2a576040517f08c379a0000000000000000000000000000000000000000000000000000000008152600401610b2190611765565b60405180910390fd5b6000600560008373ffffffffffffffffffffffffffffffffffffffff1673ffffffffffffffffffffffffffffffffffffffff16815260200190815260200160002060000154905047811115610bb4576040517f08c379a0000000000000000000000000000000000000000000000000000000008152600401610bab9061184d565b60405180910390fd5b6000600560008473ffffffffffffffffffffffffffffffffffffffff1673ffffffffffffffffffffffffffffffffffffffff1681526020019081526020016000206001015411610c39576040517f08c379a0000000000000000000000000000000000000000000000000000000008152600401610c30906118b9565b60405180910390fd5b8173ffffffffffffffffffffffffffffffffffffffff166108fc829081150290604051600060405180830381858888f19350505050158015610c7f573d6000803e3d6000fd5b50600560008373ffffffffffffffffffffffffffffffffffffffff1673ffffffffffffffffffffffffffffffffffffffff1681526020019081526020016000206001016000815480929190610cd3906118d9565b91905055507f510ffb4dcab972ae9d2007a58e13f1b0881776d23cd8f5cc32f8c5be2dbf70d28282604051610d09929190611903565b60405180910390a15050565b60045481565b6000800160009054906101000a900473ffffffffffffffffffffffffffffffffffffffff1673ffffffffffffffffffffffffffffffffffffffff163373ffffffffffffffffffffffffffffffffffffffff1614610d7757600080fd5b3460016000828254610d899190611785565b925050819055507fe03f2fbffd55aceaa08b8e27b348ae6b7607e8a520dfe6a92b053c2ce0ac850a3334604051610dc1929190611903565b60405180910390a1565b600660009054906101000a900460ff1681565b60026020528060005260406000206000915090508060000160009054906101000a900460ff16908060000160019054906101000a900460ff16905082565b60015481565b6000800160009054906101000a900473ffffffffffffffffffffffffffffffffffffffff1673ffffffffffffffffffffffffffffffffffffffff163373ffffffffffffffffffffffffffffffffffffffff1614610e7e57600080fd5b805160048190555060005b600454811015610f1b57600160026000848481518110610eac57610eab611635565b5b602002602001015173ffffffffffffffffffffffffffffffffffffffff1673ffffffffffffffffffffffffffffffffffffffff16815260200190815260200160002060000160006101000a81548160ff0219169083151502179055508080610f1390611664565b915050610e89565b508060039080519060200190610f32929190610fc6565b507fbb8d8b423660b82de5f2ac9a04fd44584e1a7caf11aed34e35d06e9741495e3081604051610f6291906119ea565b60405180910390a150565b6000600260008373ffffffffffffffffffffffffffffffffffffffff1673ffffffffffffffffffffffffffffffffffffffff16815260200190815260200160002060000160009054906101000a900460ff169050919050565b82805482825590600052602060002090810192821561103f579160200282015b8281111561103e5782518260006101000a81548173ffffffffffffffffffffffffffffffffffffffff021916908373ffffffffffffffffffffffffffffffffffffffff16021790555091602001919060010190610fe6565b5b50905061104c9190611050565b5090565b5b80821115611069576000816000905550600101611051565b5090565b6000604051905090565b600080fd5b600080fd5b600073ffffffffffffffffffffffffffffffffffffffff82169050919050565b60006110ac82611081565b9050919050565b6110bc816110a1565b81146110c757600080fd5b50565b6000813590506110d9816110b3565b92915050565b6000819050919050565b6110f2816110df565b81146110fd57600080fd5b50565b60008135905061110f816110e9565b92915050565b60008060006060848603121561112e5761112d611077565b5b600061113c868287016110ca565b935050602061114d86828701611100565b925050604061115e86828701611100565b9150509250925092565b60008115159050919050565b61117d81611168565b82525050565b60006020820190506111986000830184611174565b92915050565b6000602082840312156111b4576111b3611077565b5b60006111c284828501611100565b91505092915050565b6111d4816110a1565b82525050565b60006020820190506111ef60008301846111cb565b92915050565b60006020828403121561120b5761120a611077565b5b6000611219848285016110ca565b91505092915050565b61122b816110df565b82525050565b60006040820190506112466000830185611222565b6112536020830184611222565b9392505050565b600060408201905061126f60008301856111cb565b61127c6020830184611174565b9392505050565b60006020820190506112986000830184611222565b92915050565b60006040820190506112b36000830185611174565b6112c06020830184611174565b9392505050565b600080fd5b6000601f19601f8301169050919050565b7f4e487b7100000000000000000000000000000000000000000000000000000000600052604160045260246000fd5b611315826112cc565b810181811067ffffffffffffffff82111715611334576113336112dd565b5b80604052505050565b600061134761106d565b9050611353828261130c565b919050565b600067ffffffffffffffff821115611373576113726112dd565b5b602082029050602081019050919050565b600080fd5b600061139c61139784611358565b61133d565b905080838252602082019050602084028301858111156113bf576113be611384565b5b835b818110156113e857806113d488826110ca565b8452602084019350506020810190506113c1565b5050509392505050565b600082601f830112611407576114066112c7565b5b8135611417848260208601611389565b91505092915050565b60006020828403121561143657611435611077565b5b600082013567ffffffffffffffff8111156114545761145361107c565b5b611460848285016113f2565b91505092915050565b600082825260208201905092915050565b7f41646472657373206973206e6f742077686974656c6973746564000000000000600082015250565b60006114b0601a83611469565b91506114bb8261147a565b602082019050919050565b600060208201905081810360008301526114df816114a3565b9050919050565b7f4e487b7100000000000000000000000000000000000000000000000000000000600052601160045260246000fd5b6000611520826110df565b915061152b836110df565b9250817fffffffffffffffffffffffffffffffffffffffffffffffffffffffffffffffff0483118215151615611564576115636114e6565b5b828202905092915050565b7f4e6f7420656e6f7567682066756e6473206c6f636b656420696e20746865207660008201527f61756c7400000000000000000000000000000000000000000000000000000000602082015250565b60006115cb602483611469565b91506115d68261156f565b604082019050919050565b600060208201905081810360008301526115fa816115be565b9050919050565b600061160c826110df565b9150611617836110df565b92508282101561162a576116296114e6565b5b828203905092915050565b7f4e487b7100000000000000000000000000000000000000000000000000000000600052603260045260246000fd5b600061166f826110df565b91507fffffffffffffffffffffffffffffffffffffffffffffffffffffffffffffffff8214156116a2576116a16114e6565b5b600182019050919050565b7f436f6e747261637420697320616c7265616479207369676e6564000000000000600082015250565b60006116e3601a83611469565b91506116ee826116ad565b602082019050919050565b60006020820190508181036000830152611712816116d6565b9050919050565b7f436f6e7472616374206973206e6f74207369676e656400000000000000000000600082015250565b600061174f601683611469565b915061175a82611719565b602082019050919050565b6000602082019050818103600083015261177e81611742565b9050919050565b6000611790826110df565b915061179b836110df565b9250827fffffffffffffffffffffffffffffffffffffffffffffffffffffffffffffffff038211156117d0576117cf6114e6565b5b828201905092915050565b7f4e6f7420656e6f7567682066756e647320746f2065786563757465207468652060008201527f7472616e73616374696f6e000000000000000000000000000000000000000000602082015250565b6000611837602b83611469565b9150611842826117db565b604082019050919050565b600060208201905081810360008301526118668161182a565b9050919050565b7f4e6f207472616e73616374696f6e73206c656674000000000000000000000000600082015250565b60006118a3601483611469565b91506118ae8261186d565b602082019050919050565b600060208201905081810360008301526118d281611896565b9050919050565b60006118e4826110df565b915060008214156118f8576118f76114e6565b5b600182039050919050565b600060408201905061191860008301856111cb565b6119256020830184611222565b9392505050565b600081519050919050565b600082825260208201905092915050565b6000819050602082019050919050565b611961816110a1565b82525050565b60006119738383611958565b60208301905092915050565b6000602082019050919050565b60006119978261192c565b6119a18185611937565b93506119ac83611948565b8060005b838110156119dd5781516119c48882611967565b97506119cf8361197f565b9250506001810190506119b0565b5085935050505092915050565b60006020820190508181036000830152611a04818461198c565b90509291505056fea2646970667358221220c729ca3279e0abe47521d0da75409b83178974a3fc827cc7d92a4fa257c4429f64736f6c634300080b0033",
  "immutableReferences": {},
  "source": "// SPDX-License-Identifier: GPL-3.0\n\npragma solidity >=0.4.22 <0.9.0;\n\ncontract Vault {\n    struct Payment {\n        uint256 amount;\n        uint256 numberOfTransactions;\n    }\n\n    struct Reciever {\n        bool isWhiteListed;\n        bool hasSigned;\n    }\n\n    struct Owner {\n        address addr;\n        bool hasSigned;\n    }\n\n    event Recieved(address sender, uint value);\n    event WhitelistSet(address[] whitelist);\n    event Sent(address addr, uint256 value);\n    event Withdrawed(uint256 value);\n\n    Owner public owner;\n    uint256 public currentAmount = 0;\n    mapping(address => Reciever) public recievers;\n    address[] public whitelist;\n    uint256 public whiteListLength = 0;\n    mapping(address => Payment) public paymentDetails;\n    bool public contractSigned = false;\n\n    modifier onlyOwner() {\n        require(msg.sender == owner.addr);\n        _;\n    }\n\n    modifier onlyReciever() {\n        require(isWhiteListed(msg.sender));\n        _;\n    }\n\n    constructor() payable {\n        owner.addr = msg.sender;\n    }\n\n    function setWhitelistAddresses(address[] memory _whitelist) public onlyOwner {\n       whiteListLength = _whitelist.length;\n       for(uint i = 0; i < whiteListLength; i++) {\n           recievers[_whitelist[i]].isWhiteListed = true;\n       }\n       whitelist = _whitelist;\n       emit WhitelistSet(_whitelist);\n    }\n\n    function isWhiteListed(address _wallet) internal view returns (bool) {\n        return recievers[_wallet].isWhiteListed;\n    }\n\n    function receiverApprove() public onlyReciever {\n        recievers[msg.sender].hasSigned = true;\n        contractSigned = isContractSigned();\n    }\n\n    function ownerApprove() public onlyOwner {\n        owner.hasSigned = true;\n        contractSigned = isContractSigned();\n    }\n\n    function isContractSigned() public view returns (bool) {\n        if(!owner.hasSigned) {\n            return false;\n        }\n        bool areRecieversSigned = true;\n        uint256 length = whitelist.length;\n        for(uint256 i = 0; i < length; i++) {\n            if(!recievers[whitelist[i]].hasSigned) {\n                areRecieversSigned = false;\n            }\n        }\n        return owner.hasSigned && areRecieversSigned;\n    }\n\n    function deposit() public payable onlyOwner{\n        currentAmount += msg.value;\n        emit Recieved(msg.sender, msg.value);\n    }\n\n    function withdraw() public payable onlyOwner {\n        require(!contractSigned, \"Contract is already signed\");\n        uint256 balanceAmount = address(this).balance;\n        payable(address(owner.addr)).transfer(balanceAmount);\n        emit Withdrawed(balanceAmount);\n    }\n\n\n    function setPaymentDetails(address _reciever, uint256 _amount, uint256 _numberOfTransactions) public {\n        require(isWhiteListed(_reciever), \"Address is not whitelisted\");\n        require(currentAmount >= _amount*_numberOfTransactions, \"Not enough funds locked in the vault\");\n        paymentDetails[_reciever] = Payment({\n            amount: _amount,\n            numberOfTransactions: _numberOfTransactions\n            });\n        currentAmount -= _amount*_numberOfTransactions;\n    }\n\n    function createPaymentTo(address _reciever) public payable {\n        require(contractSigned, \"Contract is not signed\");\n        uint256 amountToBeSent = paymentDetails[_reciever].amount;\n        require(amountToBeSent <= address(this).balance, \"Not enough funds to execute the transaction\");\n        require(paymentDetails[_reciever].numberOfTransactions > 0, \"No transactions left\");\n        payable(address(_reciever)).transfer(amountToBeSent);\n        paymentDetails[_reciever].numberOfTransactions--;\n        emit Sent(address(_reciever), amountToBeSent);\n    }\n\n    function createPaymentToAll() public payable {\n        require(contractSigned, \"Contract is not signed\");\n        uint256 length = whitelist.length;\n        uint256 paymentAmount = 0;\n        for(uint256 i = 0; i < length; i++) {\n                paymentAmount += paymentDetails[whitelist[i]].amount;\n        }\n        require(paymentAmount <= address(this).balance, \"Not enough funds to execute the transaction\");\n        for(uint256 i = 0; i < length; i++) {\n            if(paymentDetails[whitelist[i]].numberOfTransactions > 0) {\n                createPaymentTo(whitelist[i]);\n            }\n        }\n    }\n}\n",
  "sourcePath": "/Users/I538212/Documents/git/fmi-vault/fmi-blockchain-vault/main/src/contracts/Vault.sol",
  "compiler": {
    "name": "solc",
    "version": "0.8.11+commit.d7f03943.Emscripten.clang"
  },
  "schemaVersion": "3.4.4",
  "updatedAt": "2022-01-22T14:50:15.030Z",
  "networkType": "ethereum",
  "devdoc": {
    "kind": "dev",
    "methods": {},
    "version": 1
  },
  "userdoc": {
    "kind": "user",
    "methods": {},
    "version": 1
  }
}