{
  "contractName": "Vault",
  "abi": [
    {
      "inputs": [],
      "stateMutability": "payable",
      "type": "constructor",
      "payable": true
    },
    {
      "anonymous": false,
      "inputs": [
        {
          "indexed": false,
          "internalType": "address",
          "name": "sender",
          "type": "address"
        },
        {
          "indexed": false,
          "internalType": "uint256",
          "name": "value",
          "type": "uint256"
        }
      ],
      "name": "Recieved",
      "type": "event"
    },
    {
      "anonymous": false,
      "inputs": [
        {
          "indexed": false,
          "internalType": "address",
          "name": "addr",
          "type": "address"
        },
        {
          "indexed": false,
          "internalType": "uint256",
          "name": "value",
          "type": "uint256"
        }
      ],
      "name": "Sent",
      "type": "event"
    },
    {
      "anonymous": false,
      "inputs": [
        {
          "indexed": false,
          "internalType": "address[]",
          "name": "whitelist",
          "type": "address[]"
        }
      ],
      "name": "WhitelistSet",
      "type": "event"
    },
    {
      "anonymous": false,
      "inputs": [
        {
          "indexed": false,
          "internalType": "uint256",
          "name": "value",
          "type": "uint256"
        }
      ],
      "name": "Withdrawed",
      "type": "event"
    },
    {
      "inputs": [],
      "name": "currentAmount",
      "outputs": [
        {
          "internalType": "uint256",
          "name": "",
          "type": "uint256"
        }
      ],
      "stateMutability": "view",
      "type": "function",
      "constant": true
    },
    {
      "inputs": [],
      "name": "owner",
      "outputs": [
        {
          "internalType": "address",
          "name": "addr",
          "type": "address"
        },
        {
          "internalType": "bool",
          "name": "hasSigned",
          "type": "bool"
        }
      ],
      "stateMutability": "view",
      "type": "function",
      "constant": true
    },
    {
      "inputs": [
        {
          "internalType": "address",
          "name": "",
          "type": "address"
        }
      ],
      "name": "paymentDetails",
      "outputs": [
        {
          "internalType": "uint256",
          "name": "amount",
          "type": "uint256"
        },
        {
          "internalType": "uint256",
          "name": "numberOfTransactions",
          "type": "uint256"
        }
      ],
      "stateMutability": "view",
      "type": "function",
      "constant": true
    },
    {
      "inputs": [
        {
          "internalType": "address",
          "name": "",
          "type": "address"
        }
      ],
      "name": "recievers",
      "outputs": [
        {
          "internalType": "bool",
          "name": "isWhiteListed",
          "type": "bool"
        },
        {
          "internalType": "bool",
          "name": "hasSigned",
          "type": "bool"
        }
      ],
      "stateMutability": "view",
      "type": "function",
      "constant": true
    },
    {
      "inputs": [
        {
          "internalType": "uint256",
          "name": "",
          "type": "uint256"
        }
      ],
      "name": "whitelist",
      "outputs": [
        {
          "internalType": "address",
          "name": "",
          "type": "address"
        }
      ],
      "stateMutability": "view",
      "type": "function",
      "constant": true
    },
    {
      "inputs": [
        {
          "internalType": "address[]",
          "name": "_whitelist",
          "type": "address[]"
        }
      ],
      "name": "setWhitelistAddresses",
      "outputs": [],
      "stateMutability": "nonpayable",
      "type": "function"
    },
    {
      "inputs": [],
      "name": "recieverApprove",
      "outputs": [],
      "stateMutability": "nonpayable",
      "type": "function"
    },
    {
      "inputs": [],
      "name": "ownerApprove",
      "outputs": [],
      "stateMutability": "nonpayable",
      "type": "function"
    },
    {
      "inputs": [],
      "name": "isContractSigned",
      "outputs": [
        {
          "internalType": "bool",
          "name": "",
          "type": "bool"
        }
      ],
      "stateMutability": "view",
      "type": "function",
      "constant": true
    },
    {
      "inputs": [],
      "name": "deposit",
      "outputs": [],
      "stateMutability": "payable",
      "type": "function",
      "payable": true
    },
    {
      "inputs": [],
      "name": "withdraw",
      "outputs": [],
      "stateMutability": "payable",
      "type": "function",
      "payable": true
    },
    {
      "inputs": [
        {
          "internalType": "address",
          "name": "_reciever",
          "type": "address"
        },
        {
          "internalType": "uint256",
          "name": "_amount",
          "type": "uint256"
        },
        {
          "internalType": "uint256",
          "name": "_numberOfTransactions",
          "type": "uint256"
        }
      ],
      "name": "setPaymentDetails",
      "outputs": [],
      "stateMutability": "nonpayable",
      "type": "function"
    },
    {
      "inputs": [
        {
          "internalType": "address",
          "name": "_reciever",
          "type": "address"
        }
      ],
      "name": "createPaymentTo",
      "outputs": [],
      "stateMutability": "payable",
      "type": "function",
      "payable": true
    },
    {
      "inputs": [],
      "name": "createPaymentToAll",
      "outputs": [],
      "stateMutability": "payable",
      "type": "function",
      "payable": true
    }
  ],
  "bytecode": "0x60806040526000600155336000800160006101000a81548173ffffffffffffffffffffffffffffffffffffffff021916908373ffffffffffffffffffffffffffffffffffffffff1602179055506119608061005b6000396000f3fe6080604052600436106100dd5760003560e01c806390ca72361161007f578063d0e30db011610059578063d0e30db01461023b578063f1b0821e14610245578063f441b1c814610283578063f52ccc2d146102ae576100dd565b806390ca7236146101fe578063c0ef904e14610215578063ce548a361461021f576100dd565b80633ccfd60b116100bb5780633ccfd60b1461014d5780637ebd1b301461015757806388c49637146101945780638da5cb5b146101d2576100dd565b80630c662c5b146100e2578063122553f9146100f9578063322f094114610122575b600080fd5b3480156100ee57600080fd5b506100f76102d7565b005b34801561010557600080fd5b50610120600480360381019061011b9190611033565b610352565b005b34801561012e57600080fd5b5061013761047e565b60405161014491906110a1565b60405180910390f35b610155610588565b005b34801561016357600080fd5b5061017e600480360381019061017991906110bc565b6106d6565b60405161018b91906110f8565b60405180910390f35b3480156101a057600080fd5b506101bb60048036038101906101b69190611113565b610715565b6040516101c992919061114f565b60405180910390f35b3480156101de57600080fd5b506101e7610739565b6040516101f5929190611178565b60405180910390f35b34801561020a57600080fd5b50610213610778565b005b61021d6107e7565b005b61023960048036038101906102349190611113565b610a1d565b005b610243610c4f565b005b34801561025157600080fd5b5061026c60048036038101906102679190611113565b610cff565b60405161027a9291906111a1565b60405180910390f35b34801561028f57600080fd5b50610298610d3d565b6040516102a591906111ca565b60405180910390f35b3480156102ba57600080fd5b506102d560048036038101906102d0919061133e565b610d43565b005b6000800160009054906101000a900473ffffffffffffffffffffffffffffffffffffffff1673ffffffffffffffffffffffffffffffffffffffff163373ffffffffffffffffffffffffffffffffffffffff161461033357600080fd5b60016000800160146101000a81548160ff021916908315150217905550565b61035b83610e8b565b61039a576040517f08c379a0000000000000000000000000000000000000000000000000000000008152600401610391906113e4565b60405180910390fd5b80826103a69190611433565b60015410156103ea576040517f08c379a00000000000000000000000000000000000000000000000000000000081526004016103e1906114ff565b60405180910390fd5b604051806040016040528083815260200182815250600460008573ffffffffffffffffffffffffffffffffffffffff1673ffffffffffffffffffffffffffffffffffffffff168152602001908152602001600020600082015181600001556020820151816001015590505080826104619190611433565b60016000828254610472919061151f565b92505081905550505050565b60008060000160149054906101000a900460ff1661049f5760009050610585565b6000600190506000600380549050905060005b818110156105645760026000600383815481106104d2576104d1611553565b5b9060005260206000200160009054906101000a900473ffffffffffffffffffffffffffffffffffffffff1673ffffffffffffffffffffffffffffffffffffffff1673ffffffffffffffffffffffffffffffffffffffff16815260200190815260200160002060000160019054906101000a900460ff1661055157600092505b808061055c90611582565b9150506104b2565b506000800160149054906101000a900460ff1680156105805750815b925050505b90565b6000800160009054906101000a900473ffffffffffffffffffffffffffffffffffffffff1673ffffffffffffffffffffffffffffffffffffffff163373ffffffffffffffffffffffffffffffffffffffff16146105e457600080fd5b6105ec61047e565b1561062c576040517f08c379a000000000000000000000000000000000000000000000000000000000815260040161062390611617565b60405180910390fd5b60004790506000800160009054906101000a900473ffffffffffffffffffffffffffffffffffffffff1673ffffffffffffffffffffffffffffffffffffffff166108fc829081150290604051600060405180830381858888f1935050505015801561069b573d6000803e3d6000fd5b507f11e9d9f7a772129e26cb0560945658c96b41c42ac6712d233e20c894bfcd00fd816040516106cb91906111ca565b60405180910390a150565b600381815481106106e657600080fd5b906000526020600020016000915054906101000a900473ffffffffffffffffffffffffffffffffffffffff1681565b60046020528060005260406000206000915090508060000154908060010154905082565b60008060000160009054906101000a900473ffffffffffffffffffffffffffffffffffffffff16908060000160149054906101000a900460ff16905082565b61078133610e8b565b61078a57600080fd5b6001600260003373ffffffffffffffffffffffffffffffffffffffff1673ffffffffffffffffffffffffffffffffffffffff16815260200190815260200160002060000160016101000a81548160ff021916908315150217905550565b6107ef61047e565b61082e576040517f08c379a000000000000000000000000000000000000000000000000000000000815260040161082590611683565b60405180910390fd5b600060038054905090506000805b828110156108e557600460006003838154811061085c5761085b611553565b5b9060005260206000200160009054906101000a900473ffffffffffffffffffffffffffffffffffffffff1673ffffffffffffffffffffffffffffffffffffffff1673ffffffffffffffffffffffffffffffffffffffff16815260200190815260200160002060000154826108d091906116a3565b915080806108dd90611582565b91505061083c565b5047811115610929576040517f08c379a00000000000000000000000000000000000000000000000000000000081526004016109209061176b565b60405180910390fd5b60005b82811015610a18576000600460006003848154811061094e5761094d611553565b5b9060005260206000200160009054906101000a900473ffffffffffffffffffffffffffffffffffffffff1673ffffffffffffffffffffffffffffffffffffffff1673ffffffffffffffffffffffffffffffffffffffff168152602001908152602001600020600101541115610a0557610a04600382815481106109d4576109d3611553565b5b9060005260206000200160009054906101000a900473ffffffffffffffffffffffffffffffffffffffff16610a1d565b5b8080610a1090611582565b91505061092c565b505050565b610a2561047e565b610a64576040517f08c379a0000000000000000000000000000000000000000000000000000000008152600401610a5b90611683565b60405180910390fd5b6000600460008373ffffffffffffffffffffffffffffffffffffffff1673ffffffffffffffffffffffffffffffffffffffff16815260200190815260200160002060000154905047811115610aee576040517f08c379a0000000000000000000000000000000000000000000000000000000008152600401610ae59061176b565b60405180910390fd5b6000600460008473ffffffffffffffffffffffffffffffffffffffff1673ffffffffffffffffffffffffffffffffffffffff1681526020019081526020016000206001015411610b73576040517f08c379a0000000000000000000000000000000000000000000000000000000008152600401610b6a906117d7565b60405180910390fd5b8173ffffffffffffffffffffffffffffffffffffffff166108fc829081150290604051600060405180830381858888f19350505050158015610bb9573d6000803e3d6000fd5b50600460008373ffffffffffffffffffffffffffffffffffffffff1673ffffffffffffffffffffffffffffffffffffffff1681526020019081526020016000206001016000815480929190610c0d906117f7565b91905055507f510ffb4dcab972ae9d2007a58e13f1b0881776d23cd8f5cc32f8c5be2dbf70d28282604051610c43929190611821565b60405180910390a15050565b6000800160009054906101000a900473ffffffffffffffffffffffffffffffffffffffff1673ffffffffffffffffffffffffffffffffffffffff163373ffffffffffffffffffffffffffffffffffffffff1614610cab57600080fd5b3460016000828254610cbd91906116a3565b925050819055507fe03f2fbffd55aceaa08b8e27b348ae6b7607e8a520dfe6a92b053c2ce0ac850a3334604051610cf5929190611821565b60405180910390a1565b60026020528060005260406000206000915090508060000160009054906101000a900460ff16908060000160019054906101000a900460ff16905082565b60015481565b6000800160009054906101000a900473ffffffffffffffffffffffffffffffffffffffff1673ffffffffffffffffffffffffffffffffffffffff163373ffffffffffffffffffffffffffffffffffffffff1614610d9f57600080fd5b60008151905060005b81811015610e3857600160026000858481518110610dc957610dc8611553565b5b602002602001015173ffffffffffffffffffffffffffffffffffffffff1673ffffffffffffffffffffffffffffffffffffffff16815260200190815260200160002060000160006101000a81548160ff0219169083151502179055508080610e3090611582565b915050610da8565b508160039080519060200190610e4f929190610ee4565b507fbb8d8b423660b82de5f2ac9a04fd44584e1a7caf11aed34e35d06e9741495e3082604051610e7f9190611908565b60405180910390a15050565b6000600260008373ffffffffffffffffffffffffffffffffffffffff1673ffffffffffffffffffffffffffffffffffffffff16815260200190815260200160002060000160009054906101000a900460ff169050919050565b828054828255906000526020600020908101928215610f5d579160200282015b82811115610f5c5782518260006101000a81548173ffffffffffffffffffffffffffffffffffffffff021916908373ffffffffffffffffffffffffffffffffffffffff16021790555091602001919060010190610f04565b5b509050610f6a9190610f6e565b5090565b5b80821115610f87576000816000905550600101610f6f565b5090565b6000604051905090565b600080fd5b600080fd5b600073ffffffffffffffffffffffffffffffffffffffff82169050919050565b6000610fca82610f9f565b9050919050565b610fda81610fbf565b8114610fe557600080fd5b50565b600081359050610ff781610fd1565b92915050565b6000819050919050565b61101081610ffd565b811461101b57600080fd5b50565b60008135905061102d81611007565b92915050565b60008060006060848603121561104c5761104b610f95565b5b600061105a86828701610fe8565b935050602061106b8682870161101e565b925050604061107c8682870161101e565b9150509250925092565b60008115159050919050565b61109b81611086565b82525050565b60006020820190506110b66000830184611092565b92915050565b6000602082840312156110d2576110d1610f95565b5b60006110e08482850161101e565b91505092915050565b6110f281610fbf565b82525050565b600060208201905061110d60008301846110e9565b92915050565b60006020828403121561112957611128610f95565b5b600061113784828501610fe8565b91505092915050565b61114981610ffd565b82525050565b60006040820190506111646000830185611140565b6111716020830184611140565b9392505050565b600060408201905061118d60008301856110e9565b61119a6020830184611092565b9392505050565b60006040820190506111b66000830185611092565b6111c36020830184611092565b9392505050565b60006020820190506111df6000830184611140565b92915050565b600080fd5b6000601f19601f8301169050919050565b7f4e487b7100000000000000000000000000000000000000000000000000000000600052604160045260246000fd5b611233826111ea565b810181811067ffffffffffffffff82111715611252576112516111fb565b5b80604052505050565b6000611265610f8b565b9050611271828261122a565b919050565b600067ffffffffffffffff821115611291576112906111fb565b5b602082029050602081019050919050565b600080fd5b60006112ba6112b584611276565b61125b565b905080838252602082019050602084028301858111156112dd576112dc6112a2565b5b835b8181101561130657806112f28882610fe8565b8452602084019350506020810190506112df565b5050509392505050565b600082601f830112611325576113246111e5565b5b81356113358482602086016112a7565b91505092915050565b60006020828403121561135457611353610f95565b5b600082013567ffffffffffffffff81111561137257611371610f9a565b5b61137e84828501611310565b91505092915050565b600082825260208201905092915050565b7f41646472657373206973206e6f742077686974656c6973746564000000000000600082015250565b60006113ce601a83611387565b91506113d982611398565b602082019050919050565b600060208201905081810360008301526113fd816113c1565b9050919050565b7f4e487b7100000000000000000000000000000000000000000000000000000000600052601160045260246000fd5b600061143e82610ffd565b915061144983610ffd565b9250817fffffffffffffffffffffffffffffffffffffffffffffffffffffffffffffffff048311821515161561148257611481611404565b5b828202905092915050565b7f4e6f7420656e6f7567682066756e6473206c6f636b656420696e20746865207660008201527f61756c7400000000000000000000000000000000000000000000000000000000602082015250565b60006114e9602483611387565b91506114f48261148d565b604082019050919050565b60006020820190508181036000830152611518816114dc565b9050919050565b600061152a82610ffd565b915061153583610ffd565b92508282101561154857611547611404565b5b828203905092915050565b7f4e487b7100000000000000000000000000000000000000000000000000000000600052603260045260246000fd5b600061158d82610ffd565b91507fffffffffffffffffffffffffffffffffffffffffffffffffffffffffffffffff8214156115c0576115bf611404565b5b600182019050919050565b7f436f6e747261637420697320616c7265616479207369676e6564000000000000600082015250565b6000611601601a83611387565b915061160c826115cb565b602082019050919050565b60006020820190508181036000830152611630816115f4565b9050919050565b7f436f6e7472616374206973206e6f74207369676e656400000000000000000000600082015250565b600061166d601683611387565b915061167882611637565b602082019050919050565b6000602082019050818103600083015261169c81611660565b9050919050565b60006116ae82610ffd565b91506116b983610ffd565b9250827fffffffffffffffffffffffffffffffffffffffffffffffffffffffffffffffff038211156116ee576116ed611404565b5b828201905092915050565b7f4e6f7420656e6f7567682066756e647320746f2065786563757465207468652060008201527f7472616e73616374696f6e000000000000000000000000000000000000000000602082015250565b6000611755602b83611387565b9150611760826116f9565b604082019050919050565b6000602082019050818103600083015261178481611748565b9050919050565b7f4e6f207472616e73616374696f6e73206c656674000000000000000000000000600082015250565b60006117c1601483611387565b91506117cc8261178b565b602082019050919050565b600060208201905081810360008301526117f0816117b4565b9050919050565b600061180282610ffd565b9150600082141561181657611815611404565b5b600182039050919050565b600060408201905061183660008301856110e9565b6118436020830184611140565b9392505050565b600081519050919050565b600082825260208201905092915050565b6000819050602082019050919050565b61187f81610fbf565b82525050565b60006118918383611876565b60208301905092915050565b6000602082019050919050565b60006118b58261184a565b6118bf8185611855565b93506118ca83611866565b8060005b838110156118fb5781516118e28882611885565b97506118ed8361189d565b9250506001810190506118ce565b5085935050505092915050565b6000602082019050818103600083015261192281846118aa565b90509291505056fea264697066735822122061010d60f7f9dcf3d994b22318a6085c35acca5f1deed139a1fb64c135ab3f9f64736f6c634300080b0033",
  "immutableReferences": {},
  "source": "// SPDX-License-Identifier: GPL-3.0\n\npragma solidity >=0.4.22 <0.9.0;\n\ncontract Vault {\n    struct Payment {\n        uint256 amount;\n        uint256 numberOfTransactions;\n    }\n\n    struct Reciever {\n        bool isWhiteListed;\n        bool hasSigned;\n    }\n\n    struct Owner {\n        address addr;\n        bool hasSigned;\n    }\n\n    event Recieved(address sender, uint value);\n    event WhitelistSet(address[] whitelist);\n    event Sent(address addr, uint256 value);\n    event Withdrawed(uint256 value);\n\n    Owner public owner;\n    uint256 public currentAmount = 0;\n    mapping(address => Reciever) public recievers;\n    address[] public whitelist;\n    mapping(address => Payment) public paymentDetails;\n\n    modifier onlyOwner() {\n        require(msg.sender == owner.addr);\n        _;\n    }\n\n    modifier onlyReciever() {\n        require(isWhiteListed(msg.sender));\n        _;\n    }\n\n    constructor() payable {\n        owner.addr = msg.sender;\n    }\n\n    function setWhitelistAddresses(address[] memory _whitelist) public onlyOwner {\n       uint length = _whitelist.length;\n       for(uint i = 0; i < length; i++) {\n           recievers[_whitelist[i]].isWhiteListed = true;\n       }\n       whitelist = _whitelist;\n       emit WhitelistSet(_whitelist);\n    }\n\n    function isWhiteListed(address _wallet) internal view returns (bool) {\n        return recievers[_wallet].isWhiteListed;\n    }\n\n    function recieverApprove() public onlyReciever {\n        recievers[msg.sender].hasSigned = true;\n    }\n\n    function ownerApprove() public onlyOwner {\n        owner.hasSigned = true;\n    }\n\n    function isContractSigned() public view returns (bool) {\n        if(!owner.hasSigned) {\n            return false;\n        }\n        bool areRecieversSigned = true;\n        uint256 length = whitelist.length;\n        for(uint256 i = 0; i < length; i++) {\n            if(!recievers[whitelist[i]].hasSigned) {\n                areRecieversSigned = false;\n            }\n        }\n        return owner.hasSigned && areRecieversSigned;\n    }\n\n    function deposit() public payable onlyOwner{\n        currentAmount += msg.value;\n        emit Recieved(msg.sender, msg.value);\n    }\n\n    function withdraw() public payable onlyOwner {\n        require(!isContractSigned(), \"Contract is already signed\");\n        uint256 balanceAmount = address(this).balance;\n        payable(address(owner.addr)).transfer(balanceAmount);\n        emit Withdrawed(balanceAmount);\n    }\n\n\n    function setPaymentDetails(address _reciever, uint256 _amount, uint256 _numberOfTransactions) public {\n        require(isWhiteListed(_reciever), \"Address is not whitelisted\");\n        require(currentAmount >= _amount*_numberOfTransactions, \"Not enough funds locked in the vault\");\n        paymentDetails[_reciever] = Payment({\n            amount: _amount,\n            numberOfTransactions: _numberOfTransactions\n            });\n        currentAmount -= _amount*_numberOfTransactions;\n    }\n\n    function createPaymentTo(address _reciever) public payable {\n        require(isContractSigned(), \"Contract is not signed\");\n        uint256 amountToBeSent = paymentDetails[_reciever].amount;\n        require(amountToBeSent <= address(this).balance, \"Not enough funds to execute the transaction\");\n        require(paymentDetails[_reciever].numberOfTransactions > 0, \"No transactions left\");\n        payable(address(_reciever)).transfer(amountToBeSent);\n        paymentDetails[_reciever].numberOfTransactions--;\n        emit Sent(address(_reciever), amountToBeSent);\n    }\n\n    function createPaymentToAll() public payable {\n        require(isContractSigned(), \"Contract is not signed\");\n        uint256 length = whitelist.length;\n        uint256 paymentAmount = 0;\n        for(uint256 i = 0; i < length; i++) {\n                paymentAmount += paymentDetails[whitelist[i]].amount;\n        }\n        require(paymentAmount <= address(this).balance, \"Not enough funds to execute the transaction\");\n        for(uint256 i = 0; i < length; i++) {\n            if(paymentDetails[whitelist[i]].numberOfTransactions > 0) {\n                createPaymentTo(whitelist[i]);\n            }\n        }\n    }\n}\n",
  "sourcePath": "/Users/I538212/Documents/git/fmi-vault/fmi-blockchain-vault/main/src/contracts/Vault.sol",
  "compiler": {
    "name": "solc",
    "version": "0.8.11+commit.d7f03943.Emscripten.clang"
  },
  "schemaVersion": "3.4.4",
  "updatedAt": "2022-01-18T15:35:21.313Z",
  "networkType": "ethereum",
  "devdoc": {
    "kind": "dev",
    "methods": {},
    "version": 1
  },
  "userdoc": {
    "kind": "user",
    "methods": {},
    "version": 1
  }
}