{
  "contractName": "Vault",
  "abi": [
    {
      "inputs": [],
      "stateMutability": "payable",
      "type": "constructor",
      "payable": true
    },
    {
      "anonymous": false,
      "inputs": [
        {
          "indexed": false,
          "internalType": "address",
          "name": "sender",
          "type": "address"
        },
        {
          "indexed": false,
          "internalType": "uint256",
          "name": "value",
          "type": "uint256"
        }
      ],
      "name": "Recieved",
      "type": "event"
    },
    {
      "anonymous": false,
      "inputs": [
        {
          "indexed": false,
          "internalType": "address",
          "name": "addr",
          "type": "address"
        },
        {
          "indexed": false,
          "internalType": "uint256",
          "name": "value",
          "type": "uint256"
        }
      ],
      "name": "Sent",
      "type": "event"
    },
    {
      "anonymous": false,
      "inputs": [
        {
          "indexed": false,
          "internalType": "address[]",
          "name": "whitelist",
          "type": "address[]"
        }
      ],
      "name": "WhitelistSet",
      "type": "event"
    },
    {
      "anonymous": false,
      "inputs": [
        {
          "indexed": false,
          "internalType": "uint256",
          "name": "value",
          "type": "uint256"
        }
      ],
      "name": "Withdrawed",
      "type": "event"
    },
    {
      "inputs": [],
      "name": "currentAmount",
      "outputs": [
        {
          "internalType": "uint256",
          "name": "",
          "type": "uint256"
        }
      ],
      "stateMutability": "view",
      "type": "function",
      "constant": true
    },
    {
      "inputs": [
        {
          "internalType": "address",
          "name": "",
          "type": "address"
        }
      ],
      "name": "paymentDetails",
      "outputs": [
        {
          "internalType": "uint256",
          "name": "amount",
          "type": "uint256"
        },
        {
          "internalType": "uint256",
          "name": "numberOfTransactions",
          "type": "uint256"
        }
      ],
      "stateMutability": "view",
      "type": "function",
      "constant": true
    },
    {
      "inputs": [
        {
          "internalType": "address",
          "name": "",
          "type": "address"
        }
      ],
      "name": "recievers",
      "outputs": [
        {
          "internalType": "bool",
          "name": "isWhiteListed",
          "type": "bool"
        },
        {
          "internalType": "bool",
          "name": "hasSigned",
          "type": "bool"
        }
      ],
      "stateMutability": "view",
      "type": "function",
      "constant": true
    },
    {
      "inputs": [
        {
          "internalType": "address[]",
          "name": "_whitelist",
          "type": "address[]"
        }
      ],
      "name": "setWhitelistAddresses",
      "outputs": [],
      "stateMutability": "nonpayable",
      "type": "function"
    },
    {
      "inputs": [],
      "name": "recieverApprove",
      "outputs": [],
      "stateMutability": "nonpayable",
      "type": "function"
    },
    {
      "inputs": [],
      "name": "ownerApprove",
      "outputs": [],
      "stateMutability": "nonpayable",
      "type": "function"
    },
    {
      "inputs": [],
      "name": "deposit",
      "outputs": [],
      "stateMutability": "payable",
      "type": "function",
      "payable": true
    },
    {
      "inputs": [],
      "name": "withdraw",
      "outputs": [],
      "stateMutability": "payable",
      "type": "function",
      "payable": true
    },
    {
      "inputs": [
        {
          "internalType": "address",
          "name": "_reciever",
          "type": "address"
        },
        {
          "internalType": "uint256",
          "name": "_amount",
          "type": "uint256"
        },
        {
          "internalType": "uint256",
          "name": "_numberOfTransactions",
          "type": "uint256"
        }
      ],
      "name": "setPaymentDetails",
      "outputs": [],
      "stateMutability": "nonpayable",
      "type": "function"
    },
    {
      "inputs": [
        {
          "internalType": "address",
          "name": "_reciever",
          "type": "address"
        }
      ],
      "name": "createPaymentTo",
      "outputs": [],
      "stateMutability": "payable",
      "type": "function",
      "payable": true
    },
    {
      "inputs": [],
      "name": "createPaymentToAll",
      "outputs": [],
      "stateMutability": "payable",
      "type": "function",
      "payable": true
    }
  ],
  "bytecode": "0x60806040526000600155336000800160006101000a81548173ffffffffffffffffffffffffffffffffffffffff021916908373ffffffffffffffffffffffffffffffffffffffff1602179055506117f48061005b6000396000f3fe60806040526004361061009c5760003560e01c8063c0ef904e11610064578063c0ef904e14610140578063ce548a361461014a578063d0e30db014610166578063f1b0821e14610170578063f441b1c8146101ae578063f52ccc2d146101d95761009c565b80630c662c5b146100a1578063122553f9146100b85780633ccfd60b146100e157806388c49637146100eb57806390ca723614610129575b600080fd5b3480156100ad57600080fd5b506100b6610202565b005b3480156100c457600080fd5b506100df60048036038101906100da919061102b565b61027d565b005b6100e96103a9565b005b3480156100f757600080fd5b50610112600480360381019061010d919061107e565b6104f6565b6040516101209291906110ba565b60405180910390f35b34801561013557600080fd5b5061013e61051a565b005b610148610589565b005b610164600480360381019061015f919061107e565b610990565b005b61016e610b3d565b005b34801561017c57600080fd5b506101976004803603810190610192919061107e565b610bed565b6040516101a59291906110fe565b60405180910390f35b3480156101ba57600080fd5b506101c3610c2b565b6040516101d09190611127565b60405180910390f35b3480156101e557600080fd5b5061020060048036038101906101fb919061129b565b610c31565b005b6000800160009054906101000a900473ffffffffffffffffffffffffffffffffffffffff1673ffffffffffffffffffffffffffffffffffffffff163373ffffffffffffffffffffffffffffffffffffffff161461025e57600080fd5b60016000800160146101000a81548160ff021916908315150217905550565b61028683610d79565b6102c5576040517f08c379a00000000000000000000000000000000000000000000000000000000081526004016102bc90611341565b60405180910390fd5b80826102d19190611390565b6001541015610315576040517f08c379a000000000000000000000000000000000000000000000000000000000815260040161030c9061145c565b60405180910390fd5b604051806040016040528083815260200182815250600460008573ffffffffffffffffffffffffffffffffffffffff1673ffffffffffffffffffffffffffffffffffffffff1681526020019081526020016000206000820151816000015560208201518160010155905050808261038c9190611390565b6001600082825461039d919061147c565b92505081905550505050565b6000800160009054906101000a900473ffffffffffffffffffffffffffffffffffffffff1673ffffffffffffffffffffffffffffffffffffffff163373ffffffffffffffffffffffffffffffffffffffff161461040557600080fd5b61040d610dd2565b61044c576040517f08c379a0000000000000000000000000000000000000000000000000000000008152600401610443906114fc565b60405180910390fd5b60004790506000800160009054906101000a900473ffffffffffffffffffffffffffffffffffffffff1673ffffffffffffffffffffffffffffffffffffffff166108fc829081150290604051600060405180830381858888f193505050501580156104bb573d6000803e3d6000fd5b507f11e9d9f7a772129e26cb0560945658c96b41c42ac6712d233e20c894bfcd00fd816040516104eb9190611127565b60405180910390a150565b60046020528060005260406000206000915090508060000154908060010154905082565b61052333610d79565b61052c57600080fd5b6001600260003373ffffffffffffffffffffffffffffffffffffffff1673ffffffffffffffffffffffffffffffffffffffff16815260200190815260200160002060000160016101000a81548160ff021916908315150217905550565b610591610dd2565b6105d0576040517f08c379a00000000000000000000000000000000000000000000000000000000081526004016105c7906114fc565b60405180910390fd5b600060038054905090506000805b828110156106875760046000600383815481106105fe576105fd61151c565b5b9060005260206000200160009054906101000a900473ffffffffffffffffffffffffffffffffffffffff1673ffffffffffffffffffffffffffffffffffffffff1673ffffffffffffffffffffffffffffffffffffffff1681526020019081526020016000206000015482610672919061154b565b9150808061067f906115a1565b9150506105de565b50478111156106cb576040517f08c379a00000000000000000000000000000000000000000000000000000000081526004016106c29061165c565b60405180910390fd5b60005b8281101561098b57600060046000600384815481106106f0576106ef61151c565b5b9060005260206000200160009054906101000a900473ffffffffffffffffffffffffffffffffffffffff1673ffffffffffffffffffffffffffffffffffffffff1673ffffffffffffffffffffffffffffffffffffffff16815260200190815260200160002060010154111561097857600060046000600384815481106107795761077861151c565b5b9060005260206000200160009054906101000a900473ffffffffffffffffffffffffffffffffffffffff1673ffffffffffffffffffffffffffffffffffffffff1673ffffffffffffffffffffffffffffffffffffffff168152602001908152602001600020600001549050600382815481106107f8576107f761151c565b5b9060005260206000200160009054906101000a900473ffffffffffffffffffffffffffffffffffffffff1673ffffffffffffffffffffffffffffffffffffffff166108fc829081150290604051600060405180830381858888f19350505050158015610868573d6000803e3d6000fd5b5060046000600384815481106108815761088061151c565b5b9060005260206000200160009054906101000a900473ffffffffffffffffffffffffffffffffffffffff1673ffffffffffffffffffffffffffffffffffffffff1673ffffffffffffffffffffffffffffffffffffffff16815260200190815260200160002060010160008154809291906108fa9061167c565b91905055507f510ffb4dcab972ae9d2007a58e13f1b0881776d23cd8f5cc32f8c5be2dbf70d2600383815481106109345761093361151c565b5b9060005260206000200160009054906101000a900473ffffffffffffffffffffffffffffffffffffffff168260405161096e9291906116b5565b60405180910390a1505b8080610983906115a1565b9150506106ce565b505050565b610998610dd2565b6109d7576040517f08c379a00000000000000000000000000000000000000000000000000000000081526004016109ce906114fc565b60405180910390fd5b6000600460008373ffffffffffffffffffffffffffffffffffffffff1673ffffffffffffffffffffffffffffffffffffffff16815260200190815260200160002060000154905047811115610a61576040517f08c379a0000000000000000000000000000000000000000000000000000000008152600401610a589061165c565b60405180910390fd5b8173ffffffffffffffffffffffffffffffffffffffff166108fc829081150290604051600060405180830381858888f19350505050158015610aa7573d6000803e3d6000fd5b50600460008373ffffffffffffffffffffffffffffffffffffffff1673ffffffffffffffffffffffffffffffffffffffff1681526020019081526020016000206001016000815480929190610afb9061167c565b91905055507f510ffb4dcab972ae9d2007a58e13f1b0881776d23cd8f5cc32f8c5be2dbf70d28282604051610b319291906116b5565b60405180910390a15050565b6000800160009054906101000a900473ffffffffffffffffffffffffffffffffffffffff1673ffffffffffffffffffffffffffffffffffffffff163373ffffffffffffffffffffffffffffffffffffffff1614610b9957600080fd5b3460016000828254610bab919061154b565b925050819055507fe03f2fbffd55aceaa08b8e27b348ae6b7607e8a520dfe6a92b053c2ce0ac850a3334604051610be39291906116b5565b60405180910390a1565b60026020528060005260406000206000915090508060000160009054906101000a900460ff16908060000160019054906101000a900460ff16905082565b60015481565b6000800160009054906101000a900473ffffffffffffffffffffffffffffffffffffffff1673ffffffffffffffffffffffffffffffffffffffff163373ffffffffffffffffffffffffffffffffffffffff1614610c8d57600080fd5b60008151905060005b81811015610d2657600160026000858481518110610cb757610cb661151c565b5b602002602001015173ffffffffffffffffffffffffffffffffffffffff1673ffffffffffffffffffffffffffffffffffffffff16815260200190815260200160002060000160006101000a81548160ff0219169083151502179055508080610d1e906115a1565b915050610c96565b508160039080519060200190610d3d929190610edc565b507fbb8d8b423660b82de5f2ac9a04fd44584e1a7caf11aed34e35d06e9741495e3082604051610d6d919061179c565b60405180910390a15050565b6000600260008373ffffffffffffffffffffffffffffffffffffffff1673ffffffffffffffffffffffffffffffffffffffff16815260200190815260200160002060000160009054906101000a900460ff169050919050565b60008060000160149054906101000a900460ff16610df35760009050610ed9565b6000600190506000600380549050905060005b81811015610eb8576002600060038381548110610e2657610e2561151c565b5b9060005260206000200160009054906101000a900473ffffffffffffffffffffffffffffffffffffffff1673ffffffffffffffffffffffffffffffffffffffff1673ffffffffffffffffffffffffffffffffffffffff16815260200190815260200160002060000160019054906101000a900460ff16610ea557600092505b8080610eb0906115a1565b915050610e06565b506000800160149054906101000a900460ff168015610ed45750815b925050505b90565b828054828255906000526020600020908101928215610f55579160200282015b82811115610f545782518260006101000a81548173ffffffffffffffffffffffffffffffffffffffff021916908373ffffffffffffffffffffffffffffffffffffffff16021790555091602001919060010190610efc565b5b509050610f629190610f66565b5090565b5b80821115610f7f576000816000905550600101610f67565b5090565b6000604051905090565b600080fd5b600080fd5b600073ffffffffffffffffffffffffffffffffffffffff82169050919050565b6000610fc282610f97565b9050919050565b610fd281610fb7565b8114610fdd57600080fd5b50565b600081359050610fef81610fc9565b92915050565b6000819050919050565b61100881610ff5565b811461101357600080fd5b50565b60008135905061102581610fff565b92915050565b60008060006060848603121561104457611043610f8d565b5b600061105286828701610fe0565b935050602061106386828701611016565b925050604061107486828701611016565b9150509250925092565b60006020828403121561109457611093610f8d565b5b60006110a284828501610fe0565b91505092915050565b6110b481610ff5565b82525050565b60006040820190506110cf60008301856110ab565b6110dc60208301846110ab565b9392505050565b60008115159050919050565b6110f8816110e3565b82525050565b600060408201905061111360008301856110ef565b61112060208301846110ef565b9392505050565b600060208201905061113c60008301846110ab565b92915050565b600080fd5b6000601f19601f8301169050919050565b7f4e487b7100000000000000000000000000000000000000000000000000000000600052604160045260246000fd5b61119082611147565b810181811067ffffffffffffffff821117156111af576111ae611158565b5b80604052505050565b60006111c2610f83565b90506111ce8282611187565b919050565b600067ffffffffffffffff8211156111ee576111ed611158565b5b602082029050602081019050919050565b600080fd5b6000611217611212846111d3565b6111b8565b9050808382526020820190506020840283018581111561123a576112396111ff565b5b835b81811015611263578061124f8882610fe0565b84526020840193505060208101905061123c565b5050509392505050565b600082601f83011261128257611281611142565b5b8135611292848260208601611204565b91505092915050565b6000602082840312156112b1576112b0610f8d565b5b600082013567ffffffffffffffff8111156112cf576112ce610f92565b5b6112db8482850161126d565b91505092915050565b600082825260208201905092915050565b7f41646472657373206973206e6f742077686974656c6973746564000000000000600082015250565b600061132b601a836112e4565b9150611336826112f5565b602082019050919050565b6000602082019050818103600083015261135a8161131e565b9050919050565b7f4e487b7100000000000000000000000000000000000000000000000000000000600052601160045260246000fd5b600061139b82610ff5565b91506113a683610ff5565b9250817fffffffffffffffffffffffffffffffffffffffffffffffffffffffffffffffff04831182151516156113df576113de611361565b5b828202905092915050565b7f4e6f7420656e6f7567682066756e6473206c6f636b656420696e20746865207660008201527f61756c7400000000000000000000000000000000000000000000000000000000602082015250565b60006114466024836112e4565b9150611451826113ea565b604082019050919050565b6000602082019050818103600083015261147581611439565b9050919050565b600061148782610ff5565b915061149283610ff5565b9250828210156114a5576114a4611361565b5b828203905092915050565b7f436f6e7472616374206973206e6f74207369676e656400000000000000000000600082015250565b60006114e66016836112e4565b91506114f1826114b0565b602082019050919050565b60006020820190508181036000830152611515816114d9565b9050919050565b7f4e487b7100000000000000000000000000000000000000000000000000000000600052603260045260246000fd5b600061155682610ff5565b915061156183610ff5565b9250827fffffffffffffffffffffffffffffffffffffffffffffffffffffffffffffffff0382111561159657611595611361565b5b828201905092915050565b60006115ac82610ff5565b91507fffffffffffffffffffffffffffffffffffffffffffffffffffffffffffffffff8214156115df576115de611361565b5b600182019050919050565b7f4e6f7420656e6f7567682066756e647320746f2065786563757465207468652060008201527f7472616e73616374696f6e000000000000000000000000000000000000000000602082015250565b6000611646602b836112e4565b9150611651826115ea565b604082019050919050565b6000602082019050818103600083015261167581611639565b9050919050565b600061168782610ff5565b9150600082141561169b5761169a611361565b5b600182039050919050565b6116af81610fb7565b82525050565b60006040820190506116ca60008301856116a6565b6116d760208301846110ab565b9392505050565b600081519050919050565b600082825260208201905092915050565b6000819050602082019050919050565b61171381610fb7565b82525050565b6000611725838361170a565b60208301905092915050565b6000602082019050919050565b6000611749826116de565b61175381856116e9565b935061175e836116fa565b8060005b8381101561178f5781516117768882611719565b975061178183611731565b925050600181019050611762565b5085935050505092915050565b600060208201905081810360008301526117b6818461173e565b90509291505056fea26469706673582212207578b4474d6235e3a5ca003421efbc1bb0961d17c1f8e7fe80a4cc7e1da400ba64736f6c634300080b0033",
  "immutableReferences": {},
  "source": "// SPDX-License-Identifier: GPL-3.0\n\npragma solidity >=0.4.22 <0.9.0;\n\ncontract Vault {\n    struct Payment {\n        uint256 amount;\n        uint256 numberOfTransactions;\n    }\n\n    struct Reciever {\n        bool isWhiteListed;\n        bool hasSigned;\n    }\n\n    struct Owner {\n        address addr;\n        bool hasSigned;\n    }\n\n    event Recieved(address sender, uint value);\n    event WhitelistSet(address[] whitelist);\n    event Sent(address addr, uint256 value);\n    event Withdrawed(uint256 value);\n\n    Owner owner;\n    uint256 public currentAmount = 0;\n    mapping(address => Reciever) public recievers;\n    address[] whitelist;\n    mapping(address => Payment) public paymentDetails;\n\n    modifier onlyOwner() {\n        require(msg.sender == owner.addr);\n        _;\n    }\n\n    modifier onlyReciever() {\n        require(isWhiteListed(msg.sender));\n        _;\n    }\n\n    constructor() payable {\n        owner.addr = msg.sender;\n    }\n\n    function setWhitelistAddresses(address[] memory _whitelist) public onlyOwner {\n       uint length = _whitelist.length;\n       for(uint i = 0; i < length; i++) {\n           recievers[_whitelist[i]].isWhiteListed = true;\n       }\n       whitelist = _whitelist;\n       emit WhitelistSet(_whitelist);\n    }\n\n    function isWhiteListed(address _wallet) internal view returns (bool) {\n        return recievers[_wallet].isWhiteListed;\n    }\n\n    function recieverApprove() public onlyReciever {\n        recievers[msg.sender].hasSigned = true;\n    }\n\n    function ownerApprove() public onlyOwner {\n        owner.hasSigned = true;\n    }\n\n    function isContractSigned() internal view returns (bool) {\n        if(!owner.hasSigned) {\n            return false;\n        }\n        bool areRecieversSigned = true;\n        uint256 length = whitelist.length;\n        for(uint256 i = 0; i < length; i++) {\n            if(!recievers[whitelist[i]].hasSigned) {\n                areRecieversSigned = false;\n            }\n        }\n        return owner.hasSigned && areRecieversSigned;\n    }\n\n    function deposit() public payable onlyOwner{\n        currentAmount += msg.value;\n        emit Recieved(msg.sender, msg.value);\n    }\n\n    function withdraw() public payable onlyOwner {\n        require(isContractSigned(), \"Contract is not signed\");\n        uint256 balanceAmount = address(this).balance;\n        payable(address(owner.addr)).transfer(balanceAmount);\n        emit Withdrawed(balanceAmount);\n    }\n\n\n    function setPaymentDetails(address _reciever, uint256 _amount, uint256 _numberOfTransactions) public {\n        require(isWhiteListed(_reciever), \"Address is not whitelisted\");\n        require(currentAmount >= _amount*_numberOfTransactions, \"Not enough funds locked in the vault\");\n        paymentDetails[_reciever] = Payment({\n            amount: _amount,\n            numberOfTransactions: _numberOfTransactions\n            });\n        currentAmount -= _amount*_numberOfTransactions;\n    }\n\n    function createPaymentTo(address _reciever) public payable {\n        require(isContractSigned(), \"Contract is not signed\");\n        uint256 amountToBeSent = paymentDetails[_reciever].amount;\n        require(amountToBeSent <= address(this).balance, \"Not enough funds to execute the transaction\");\n        payable(address(_reciever)).transfer(amountToBeSent);\n        paymentDetails[_reciever].numberOfTransactions--;\n        emit Sent(address(_reciever), amountToBeSent);\n    }\n\n    function createPaymentToAll() public payable {\n        require(isContractSigned(), \"Contract is not signed\");\n        uint256 length = whitelist.length;\n        uint256 paymentAmount = 0;\n        for(uint256 i = 0; i < length; i++) {\n                paymentAmount += paymentDetails[whitelist[i]].amount;\n        }\n        require(paymentAmount <= address(this).balance, \"Not enough funds to execute the transaction\");\n        for(uint256 i = 0; i < length; i++) {\n            if(paymentDetails[whitelist[i]].numberOfTransactions > 0) {\n                uint256 amountToBeSent = paymentDetails[whitelist[i]].amount;\n                payable(address(whitelist[i])).transfer(amountToBeSent);\n                paymentDetails[whitelist[i]].numberOfTransactions--;  \n                emit Sent(address(whitelist[i]), amountToBeSent);\n            }\n        }\n    }\n}\n",
  "sourcePath": "/Users/I538212/Documents/git/fmi-vault/fmi-blockchain-vault/main/src/contracts/Vault.sol",
  "compiler": {
    "name": "solc",
    "version": "0.8.11+commit.d7f03943.Emscripten.clang"
  },
  "schemaVersion": "3.4.4",
  "updatedAt": "2022-01-15T08:42:53.168Z",
  "networkType": "ethereum",
  "devdoc": {
    "kind": "dev",
    "methods": {},
    "version": 1
  },
  "userdoc": {
    "kind": "user",
    "methods": {},
    "version": 1
  }
}