{
  "_format": "hh-sol-artifact-1",
  "contractName": "VaultERC20",
  "sourceName": "main/src/contracts/vault/VaultERC20.sol",
  "abi": [
    {
      "inputs": [
        {
          "internalType": "address",
          "name": "asset_",
          "type": "address"
        }
      ],
      "stateMutability": "nonpayable",
      "type": "constructor"
    },
    {
      "inputs": [],
      "name": "V_ALREADY_SIGNED",
      "type": "error"
    },
    {
      "inputs": [],
      "name": "V_NOT_ENOUGH_FUNDS_LOCKED",
      "type": "error"
    },
    {
      "inputs": [],
      "name": "V_NOT_SIGNED",
      "type": "error"
    },
    {
      "inputs": [],
      "name": "V_NOT_WHITELISTED",
      "type": "error"
    },
    {
      "inputs": [],
      "name": "V_NO_TRANSACTIONS_LEFT",
      "type": "error"
    },
    {
      "anonymous": false,
      "inputs": [
        {
          "indexed": true,
          "internalType": "address",
          "name": "previousOwner",
          "type": "address"
        },
        {
          "indexed": true,
          "internalType": "address",
          "name": "newOwner",
          "type": "address"
        }
      ],
      "name": "OwnershipTransferred",
      "type": "event"
    },
    {
      "anonymous": false,
      "inputs": [
        {
          "indexed": true,
          "internalType": "address",
          "name": "sender",
          "type": "address"
        },
        {
          "indexed": false,
          "internalType": "uint256",
          "name": "value",
          "type": "uint256"
        }
      ],
      "name": "Recieved",
      "type": "event"
    },
    {
      "anonymous": false,
      "inputs": [
        {
          "indexed": true,
          "internalType": "address",
          "name": "addr",
          "type": "address"
        },
        {
          "indexed": false,
          "internalType": "uint256",
          "name": "value",
          "type": "uint256"
        }
      ],
      "name": "Sent",
      "type": "event"
    },
    {
      "anonymous": false,
      "inputs": [
        {
          "indexed": false,
          "internalType": "address[]",
          "name": "whitelist",
          "type": "address[]"
        }
      ],
      "name": "WhitelistSet",
      "type": "event"
    },
    {
      "anonymous": false,
      "inputs": [
        {
          "indexed": false,
          "internalType": "uint256",
          "name": "value",
          "type": "uint256"
        }
      ],
      "name": "Withdrawn",
      "type": "event"
    },
    {
      "inputs": [],
      "name": "asset",
      "outputs": [
        {
          "internalType": "address",
          "name": "",
          "type": "address"
        }
      ],
      "stateMutability": "view",
      "type": "function"
    },
    {
      "inputs": [],
      "name": "contractSigned",
      "outputs": [
        {
          "internalType": "bool",
          "name": "",
          "type": "bool"
        }
      ],
      "stateMutability": "view",
      "type": "function"
    },
    {
      "inputs": [
        {
          "internalType": "address",
          "name": "_receiver",
          "type": "address"
        }
      ],
      "name": "createPaymentTo",
      "outputs": [],
      "stateMutability": "nonpayable",
      "type": "function"
    },
    {
      "inputs": [],
      "name": "createPaymentToAll",
      "outputs": [],
      "stateMutability": "nonpayable",
      "type": "function"
    },
    {
      "inputs": [],
      "name": "currentAmount",
      "outputs": [
        {
          "internalType": "uint256",
          "name": "",
          "type": "uint256"
        }
      ],
      "stateMutability": "view",
      "type": "function"
    },
    {
      "inputs": [
        {
          "internalType": "uint256",
          "name": "amount",
          "type": "uint256"
        }
      ],
      "name": "deposit",
      "outputs": [],
      "stateMutability": "nonpayable",
      "type": "function"
    },
    {
      "inputs": [],
      "name": "hasOwnerSigned",
      "outputs": [
        {
          "internalType": "bool",
          "name": "",
          "type": "bool"
        }
      ],
      "stateMutability": "view",
      "type": "function"
    },
    {
      "inputs": [],
      "name": "isContractSigned",
      "outputs": [
        {
          "internalType": "bool",
          "name": "",
          "type": "bool"
        }
      ],
      "stateMutability": "view",
      "type": "function"
    },
    {
      "inputs": [],
      "name": "owner",
      "outputs": [
        {
          "internalType": "address",
          "name": "",
          "type": "address"
        }
      ],
      "stateMutability": "view",
      "type": "function"
    },
    {
      "inputs": [],
      "name": "ownerApprove",
      "outputs": [],
      "stateMutability": "nonpayable",
      "type": "function"
    },
    {
      "inputs": [
        {
          "internalType": "address",
          "name": "",
          "type": "address"
        }
      ],
      "name": "paymentDetails",
      "outputs": [
        {
          "internalType": "uint256",
          "name": "amount",
          "type": "uint256"
        },
        {
          "internalType": "uint256",
          "name": "numberOfTransactions",
          "type": "uint256"
        }
      ],
      "stateMutability": "view",
      "type": "function"
    },
    {
      "inputs": [],
      "name": "receiverApprove",
      "outputs": [],
      "stateMutability": "nonpayable",
      "type": "function"
    },
    {
      "inputs": [
        {
          "internalType": "address",
          "name": "",
          "type": "address"
        }
      ],
      "name": "receivers",
      "outputs": [
        {
          "internalType": "bool",
          "name": "isWhiteListed",
          "type": "bool"
        },
        {
          "internalType": "bool",
          "name": "hasSigned",
          "type": "bool"
        }
      ],
      "stateMutability": "view",
      "type": "function"
    },
    {
      "inputs": [],
      "name": "renounceOwnership",
      "outputs": [],
      "stateMutability": "nonpayable",
      "type": "function"
    },
    {
      "inputs": [
        {
          "internalType": "address",
          "name": "_receiver",
          "type": "address"
        },
        {
          "internalType": "uint256",
          "name": "_amount",
          "type": "uint256"
        },
        {
          "internalType": "uint256",
          "name": "_numberOfTransactions",
          "type": "uint256"
        }
      ],
      "name": "setPaymentDetails",
      "outputs": [],
      "stateMutability": "nonpayable",
      "type": "function"
    },
    {
      "inputs": [
        {
          "internalType": "address[]",
          "name": "_whitelist",
          "type": "address[]"
        }
      ],
      "name": "setWhitelistAddresses",
      "outputs": [],
      "stateMutability": "nonpayable",
      "type": "function"
    },
    {
      "inputs": [
        {
          "internalType": "address",
          "name": "newOwner",
          "type": "address"
        }
      ],
      "name": "transferOwnership",
      "outputs": [],
      "stateMutability": "nonpayable",
      "type": "function"
    },
    {
      "inputs": [
        {
          "internalType": "uint256",
          "name": "",
          "type": "uint256"
        }
      ],
      "name": "whitelist",
      "outputs": [
        {
          "internalType": "address",
          "name": "",
          "type": "address"
        }
      ],
      "stateMutability": "view",
      "type": "function"
    },
    {
      "inputs": [],
      "name": "withdraw",
      "outputs": [],
      "stateMutability": "nonpayable",
      "type": "function"
    }
  ],
  "bytecode": "0x608060405234801561001057600080fd5b5060405161128b38038061128b83398101604081905261002f916100af565b806100393361005f565b600280546001600160a01b0319166001600160a01b0392909216919091179055506100df565b600080546001600160a01b038381166001600160a01b0319831681178455604051919092169283917f8be0079c531659141344cd1fd0a4f28419497f9722a3daafe3b4186f6b6457e09190a35050565b6000602082840312156100c157600080fd5b81516001600160a01b03811681146100d857600080fd5b9392505050565b61119d806100ee6000396000f3fe608060405234801561001057600080fd5b50600436106101215760003560e01c806388c49637116100ad578063ce548a3611610071578063ce548a3614610275578063e65eeb1f14610288578063f2fde38b1461029c578063f441b1c8146102af578063f52ccc2d146102c657600080fd5b806388c49637146102055780638da5cb5b14610241578063b5a6af7814610252578063b6b55f251461025a578063c0ef904e1461026d57600080fd5b806338d52e0f116100f457806338d52e0f146101a35780633ccfd60b146101ce578063715018a6146101d65780637ebd1b30146101de57806388966cfd146101f157600080fd5b80630c662c5b146101265780630cb8150f14610130578063122553f914610178578063322f09411461018b575b600080fd5b61012e6102d9565b005b61015c61013e366004610eb7565b60046020526000908152604090205460ff8082169161010090041682565b6040805192151583529015156020830152015b60405180910390f35b61012e610186366004610ed9565b610345565b610193610404565b604051901515815260200161016f565b6002546101b6906001600160a01b031681565b6040516001600160a01b03909116815260200161016f565b61012e610497565b61012e610666565b6101b66101ec366004610f0c565b61069c565b60005461019390600160a81b900460ff1681565b61022c610213366004610eb7565b6005602052600090815260409020805460019091015482565b6040805192835260208301919091520161016f565b6000546001600160a01b03166101b6565b61012e6106c6565b61012e610268366004610f0c565b610739565b61012e61082e565b61012e610283366004610eb7565b610a2b565b60005461019390600160a01b900460ff1681565b61012e6102aa366004610eb7565b610c61565b6102b860015481565b60405190815260200161016f565b61012e6102d4366004610f3b565b610cfc565b6000546001600160a01b0316331461030c5760405162461bcd60e51b815260040161030390611000565b60405180910390fd5b6000805460ff60a81b1916600160a81b179055610327610404565b60008054911515600160a01b0260ff60a01b19909216919091179055565b6001600160a01b038316600090815260046020526040902054839060ff16610380576040516365b3b45160e11b815260040160405180910390fd5b600061038c838561104b565b90508060015410156103b1576040516303b0c90b60e01b815260040160405180910390fd5b60408051808201825285815260208082018681526001600160a01b0389166000908152600590925292812091518255915160019182015580548392906103f890849061106a565b90915550505050505050565b60008054600160a81b900460ff1661041c5750600090565b60035460005b8181101561048e57600460006003838154811061044157610441611081565b60009182526020808320909101546001600160a01b0316835282019290925260400190205460ff6101009091041661047c5760009250505090565b8061048681611097565b915050610422565b50600191505090565b60008054600160a01b900460ff16158015906104b05750805b156104ce57604051633ca4ed0d60e21b815260040160405180910390fd5b60005460ff600160a01b909104161515811515146104ff57604051639222366360e01b815260040160405180910390fd5b6000546001600160a01b031633146105295760405162461bcd60e51b815260040161030390611000565b6002546040516370a0823160e01b81523060048201526000916001600160a01b0316906370a0823190602401602060405180830381865afa158015610572573d6000803e3d6000fd5b505050506040513d601f19601f8201168201806040525081019061059691906110b0565b6002549091506001600160a01b031663a9059cbb6105bc6000546001600160a01b031690565b6040516001600160e01b031960e084901b1681526001600160a01b039091166004820152602481018490526044016020604051808303816000875af1158015610609573d6000803e3d6000fd5b505050506040513d601f19601f8201168201806040525081019061062d91906110c9565b506040518181527f430648de173157e069201c943adb2d4e340e7cf5b27b1b09c9cb852f03d63b56906020015b60405180910390a15050565b6000546001600160a01b031633146106905760405162461bcd60e51b815260040161030390611000565b61069a6000610dd1565b565b600381815481106106ac57600080fd5b6000918252602090912001546001600160a01b0316905081565b3360008181526004602052604090205460ff166106f6576040516365b3b45160e11b815260040160405180910390fd5b336000908152600460205260409020805461ff00191661010017905561071a610404565b60008054911515600160a01b0260ff60a01b1990921691909117905550565b6000546001600160a01b031633146107635760405162461bcd60e51b815260040161030390611000565b6002546040516323b872dd60e01b8152336004820152306024820152604481018390526001600160a01b03909116906323b872dd906064016020604051808303816000875af11580156107ba573d6000803e3d6000fd5b505050506040513d601f19601f820116820180604052508101906107de91906110c9565b5080600160008282546107f191906110eb565b909155505060405181815233907fe03f2fbffd55aceaa08b8e27b348ae6b7607e8a520dfe6a92b053c2ce0ac850a9060200160405180910390a250565b600054600190600160a01b900460ff161515811480159061084c5750805b1561086a57604051633ca4ed0d60e21b815260040160405180910390fd5b60005460ff600160a01b9091041615158115151461089b57604051639222366360e01b815260040160405180910390fd5b6003546000805b828110156109045760056000600383815481106108c1576108c1611081565b60009182526020808320909101546001600160a01b031683528201929092526040019020546108f090836110eb565b9150806108fc81611097565b9150506108a2565b506002546040516370a0823160e01b81523060048201526001600160a01b03909116906370a0823190602401602060405180830381865afa15801561094d573d6000803e3d6000fd5b505050506040513d601f19601f8201168201806040525081019061097191906110b0565b811115610991576040516303b0c90b60e01b815260040160405180910390fd5b60005b82811015610a2557600060056000600384815481106109b5576109b5611081565b60009182526020808320909101546001600160a01b031683528201929092526040019020600101541115610a1357610a13600382815481106109f9576109f9611081565b6000918252602090912001546001600160a01b0316610a2b565b80610a1d81611097565b915050610994565b50505050565b600054600190600160a01b900460ff1615158114801590610a495750805b15610a6757604051633ca4ed0d60e21b815260040160405180910390fd5b60005460ff600160a01b90910416151581151514610a9857604051639222366360e01b815260040160405180910390fd5b6001600160a01b03828116600090815260056020526040908190205460025491516370a0823160e01b8152306004820152909291909116906370a0823190602401602060405180830381865afa158015610af6573d6000803e3d6000fd5b505050506040513d601f19601f82011682018060405250810190610b1a91906110b0565b811115610b3a576040516303b0c90b60e01b815260040160405180910390fd5b6001600160a01b0383166000908152600560205260408120600101549003610b7557604051634c850f2960e01b815260040160405180910390fd5b6001600160a01b0383166000908152600560205260408120600101805491610b9c83611103565b909155505060025460405163a9059cbb60e01b81526001600160a01b038581166004830152602482018490529091169063a9059cbb906044016020604051808303816000875af1158015610bf4573d6000803e3d6000fd5b505050506040513d601f19601f82011682018060405250810190610c1891906110c9565b50826001600160a01b03167f510ffb4dcab972ae9d2007a58e13f1b0881776d23cd8f5cc32f8c5be2dbf70d282604051610c5491815260200190565b60405180910390a2505050565b6000546001600160a01b03163314610c8b5760405162461bcd60e51b815260040161030390611000565b6001600160a01b038116610cf05760405162461bcd60e51b815260206004820152602660248201527f4f776e61626c653a206e6577206f776e657220697320746865207a65726f206160448201526564647265737360d01b6064820152608401610303565b610cf981610dd1565b50565b6000546001600160a01b03163314610d265760405162461bcd60e51b815260040161030390611000565b805160005b81811015610d8d57600160046000858481518110610d4b57610d4b611081565b6020908102919091018101516001600160a01b03168252810191909152604001600020805460ff1916911515919091179055610d8681611097565b9050610d2b565b508151610da1906003906020850190610e21565b507fbb8d8b423660b82de5f2ac9a04fd44584e1a7caf11aed34e35d06e9741495e308260405161065a919061111a565b600080546001600160a01b038381166001600160a01b0319831681178455604051919092169283917f8be0079c531659141344cd1fd0a4f28419497f9722a3daafe3b4186f6b6457e09190a35050565b828054828255906000526020600020908101928215610e76579160200282015b82811115610e7657825182546001600160a01b0319166001600160a01b03909116178255602090920191600190910190610e41565b50610e82929150610e86565b5090565b5b80821115610e825760008155600101610e87565b80356001600160a01b0381168114610eb257600080fd5b919050565b600060208284031215610ec957600080fd5b610ed282610e9b565b9392505050565b600080600060608486031215610eee57600080fd5b610ef784610e9b565b95602085013595506040909401359392505050565b600060208284031215610f1e57600080fd5b5035919050565b634e487b7160e01b600052604160045260246000fd5b60006020808385031215610f4e57600080fd5b823567ffffffffffffffff80821115610f6657600080fd5b818501915085601f830112610f7a57600080fd5b813581811115610f8c57610f8c610f25565b8060051b604051601f19603f83011681018181108582111715610fb157610fb1610f25565b604052918252848201925083810185019188831115610fcf57600080fd5b938501935b82851015610ff457610fe585610e9b565b84529385019392850192610fd4565b98975050505050505050565b6020808252818101527f4f776e61626c653a2063616c6c6572206973206e6f7420746865206f776e6572604082015260600190565b634e487b7160e01b600052601160045260246000fd5b600081600019048311821515161561106557611065611035565b500290565b60008282101561107c5761107c611035565b500390565b634e487b7160e01b600052603260045260246000fd5b6000600182016110a9576110a9611035565b5060010190565b6000602082840312156110c257600080fd5b5051919050565b6000602082840312156110db57600080fd5b81518015158114610ed257600080fd5b600082198211156110fe576110fe611035565b500190565b60008161111257611112611035565b506000190190565b6020808252825182820181905260009190848201906040850190845b8181101561115b5783516001600160a01b031683529284019291840191600101611136565b5090969550505050505056fea26469706673582212200718d022460c214a2f6d10874d8f2dc8feefab627f41946d5836f330a364eab564736f6c634300080e0033",
  "linkReferences": {},
  "deployedLinkReferences": {}
}