{
  "contractName": "Vault",
  "abi": [
    {
      "inputs": [],
      "stateMutability": "payable",
      "type": "constructor",
      "payable": true
    },
    {
      "anonymous": false,
      "inputs": [
        {
          "indexed": false,
          "internalType": "address",
          "name": "sender",
          "type": "address"
        },
        {
          "indexed": false,
          "internalType": "uint256",
          "name": "value",
          "type": "uint256"
        }
      ],
      "name": "Recieved",
      "type": "event"
    },
    {
      "anonymous": false,
      "inputs": [
        {
          "indexed": false,
          "internalType": "address",
          "name": "addr",
          "type": "address"
        },
        {
          "indexed": false,
          "internalType": "uint256",
          "name": "value",
          "type": "uint256"
        }
      ],
      "name": "Sent",
      "type": "event"
    },
    {
      "anonymous": false,
      "inputs": [
        {
          "indexed": false,
          "internalType": "address[]",
          "name": "whitelist",
          "type": "address[]"
        }
      ],
      "name": "WhitelistSet",
      "type": "event"
    },
    {
      "anonymous": false,
      "inputs": [
        {
          "indexed": false,
          "internalType": "uint256",
          "name": "value",
          "type": "uint256"
        }
      ],
      "name": "Withdrawed",
      "type": "event"
    },
    {
      "inputs": [],
      "name": "currentAmount",
      "outputs": [
        {
          "internalType": "uint256",
          "name": "",
          "type": "uint256"
        }
      ],
      "stateMutability": "view",
      "type": "function",
      "constant": true
    },
    {
      "inputs": [],
      "name": "owner",
      "outputs": [
        {
          "internalType": "address",
          "name": "addr",
          "type": "address"
        },
        {
          "internalType": "bool",
          "name": "hasSigned",
          "type": "bool"
        }
      ],
      "stateMutability": "view",
      "type": "function",
      "constant": true
    },
    {
      "inputs": [
        {
          "internalType": "address",
          "name": "",
          "type": "address"
        }
      ],
      "name": "paymentDetails",
      "outputs": [
        {
          "internalType": "uint256",
          "name": "amount",
          "type": "uint256"
        },
        {
          "internalType": "uint256",
          "name": "numberOfTransactions",
          "type": "uint256"
        }
      ],
      "stateMutability": "view",
      "type": "function",
      "constant": true
    },
    {
      "inputs": [
        {
          "internalType": "address",
          "name": "",
          "type": "address"
        }
      ],
      "name": "recievers",
      "outputs": [
        {
          "internalType": "bool",
          "name": "isWhiteListed",
          "type": "bool"
        },
        {
          "internalType": "bool",
          "name": "hasSigned",
          "type": "bool"
        }
      ],
      "stateMutability": "view",
      "type": "function",
      "constant": true
    },
    {
      "inputs": [],
      "name": "whiteListLength",
      "outputs": [
        {
          "internalType": "uint256",
          "name": "",
          "type": "uint256"
        }
      ],
      "stateMutability": "view",
      "type": "function",
      "constant": true
    },
    {
      "inputs": [
        {
          "internalType": "uint256",
          "name": "",
          "type": "uint256"
        }
      ],
      "name": "whitelist",
      "outputs": [
        {
          "internalType": "address",
          "name": "",
          "type": "address"
        }
      ],
      "stateMutability": "view",
      "type": "function",
      "constant": true
    },
    {
      "inputs": [
        {
          "internalType": "address[]",
          "name": "_whitelist",
          "type": "address[]"
        }
      ],
      "name": "setWhitelistAddresses",
      "outputs": [],
      "stateMutability": "nonpayable",
      "type": "function"
    },
    {
      "inputs": [],
      "name": "recieverApprove",
      "outputs": [],
      "stateMutability": "nonpayable",
      "type": "function"
    },
    {
      "inputs": [],
      "name": "ownerApprove",
      "outputs": [],
      "stateMutability": "nonpayable",
      "type": "function"
    },
    {
      "inputs": [],
      "name": "isContractSigned",
      "outputs": [
        {
          "internalType": "bool",
          "name": "",
          "type": "bool"
        }
      ],
      "stateMutability": "view",
      "type": "function",
      "constant": true
    },
    {
      "inputs": [],
      "name": "deposit",
      "outputs": [],
      "stateMutability": "payable",
      "type": "function",
      "payable": true
    },
    {
      "inputs": [],
      "name": "withdraw",
      "outputs": [],
      "stateMutability": "payable",
      "type": "function",
      "payable": true
    },
    {
      "inputs": [
        {
          "internalType": "address",
          "name": "_reciever",
          "type": "address"
        },
        {
          "internalType": "uint256",
          "name": "_amount",
          "type": "uint256"
        },
        {
          "internalType": "uint256",
          "name": "_numberOfTransactions",
          "type": "uint256"
        }
      ],
      "name": "setPaymentDetails",
      "outputs": [],
      "stateMutability": "nonpayable",
      "type": "function"
    },
    {
      "inputs": [
        {
          "internalType": "address",
          "name": "_reciever",
          "type": "address"
        }
      ],
      "name": "createPaymentTo",
      "outputs": [],
      "stateMutability": "payable",
      "type": "function",
      "payable": true
    },
    {
      "inputs": [],
      "name": "createPaymentToAll",
      "outputs": [],
      "stateMutability": "payable",
      "type": "function",
      "payable": true
    }
  ],
  "bytecode": "0x608060405260006001556000600455336000800160006101000a81548173ffffffffffffffffffffffffffffffffffffffff021916908373ffffffffffffffffffffffffffffffffffffffff16021790555061199f806100606000396000f3fe6080604052600436106100e85760003560e01c806390ca72361161008a578063d0e30db011610059578063d0e30db014610271578063f1b0821e1461027b578063f441b1c8146102b9578063f52ccc2d146102e4576100e8565b806390ca723614610209578063c0ef904e14610220578063ce548a361461022a578063cfe684f514610246576100e8565b80633ccfd60b116100c65780633ccfd60b146101585780637ebd1b301461016257806388c496371461019f5780638da5cb5b146101dd576100e8565b80630c662c5b146100ed578063122553f914610104578063322f09411461012d575b600080fd5b3480156100f957600080fd5b5061010261030d565b005b34801561011057600080fd5b5061012b60048036038101906101269190611072565b610388565b005b34801561013957600080fd5b506101426104b4565b60405161014f91906110e0565b60405180910390f35b6101606105be565b005b34801561016e57600080fd5b50610189600480360381019061018491906110fb565b61070c565b6040516101969190611137565b60405180910390f35b3480156101ab57600080fd5b506101c660048036038101906101c19190611152565b61074b565b6040516101d492919061118e565b60405180910390f35b3480156101e957600080fd5b506101f261076f565b6040516102009291906111b7565b60405180910390f35b34801561021557600080fd5b5061021e6107ae565b005b61022861081d565b005b610244600480360381019061023f9190611152565b610a53565b005b34801561025257600080fd5b5061025b610c85565b60405161026891906111e0565b60405180910390f35b610279610c8b565b005b34801561028757600080fd5b506102a2600480360381019061029d9190611152565b610d3b565b6040516102b09291906111fb565b60405180910390f35b3480156102c557600080fd5b506102ce610d79565b6040516102db91906111e0565b60405180910390f35b3480156102f057600080fd5b5061030b6004803603810190610306919061137d565b610d7f565b005b6000800160009054906101000a900473ffffffffffffffffffffffffffffffffffffffff1673ffffffffffffffffffffffffffffffffffffffff163373ffffffffffffffffffffffffffffffffffffffff161461036957600080fd5b60016000800160146101000a81548160ff021916908315150217905550565b61039183610eca565b6103d0576040517f08c379a00000000000000000000000000000000000000000000000000000000081526004016103c790611423565b60405180910390fd5b80826103dc9190611472565b6001541015610420576040517f08c379a00000000000000000000000000000000000000000000000000000000081526004016104179061153e565b60405180910390fd5b604051806040016040528083815260200182815250600560008573ffffffffffffffffffffffffffffffffffffffff1673ffffffffffffffffffffffffffffffffffffffff168152602001908152602001600020600082015181600001556020820151816001015590505080826104979190611472565b600160008282546104a8919061155e565b92505081905550505050565b60008060000160149054906101000a900460ff166104d557600090506105bb565b6000600190506000600380549050905060005b8181101561059a57600260006003838154811061050857610507611592565b5b9060005260206000200160009054906101000a900473ffffffffffffffffffffffffffffffffffffffff1673ffffffffffffffffffffffffffffffffffffffff1673ffffffffffffffffffffffffffffffffffffffff16815260200190815260200160002060000160019054906101000a900460ff1661058757600092505b8080610592906115c1565b9150506104e8565b506000800160149054906101000a900460ff1680156105b65750815b925050505b90565b6000800160009054906101000a900473ffffffffffffffffffffffffffffffffffffffff1673ffffffffffffffffffffffffffffffffffffffff163373ffffffffffffffffffffffffffffffffffffffff161461061a57600080fd5b6106226104b4565b15610662576040517f08c379a000000000000000000000000000000000000000000000000000000000815260040161065990611656565b60405180910390fd5b60004790506000800160009054906101000a900473ffffffffffffffffffffffffffffffffffffffff1673ffffffffffffffffffffffffffffffffffffffff166108fc829081150290604051600060405180830381858888f193505050501580156106d1573d6000803e3d6000fd5b507f11e9d9f7a772129e26cb0560945658c96b41c42ac6712d233e20c894bfcd00fd8160405161070191906111e0565b60405180910390a150565b6003818154811061071c57600080fd5b906000526020600020016000915054906101000a900473ffffffffffffffffffffffffffffffffffffffff1681565b60056020528060005260406000206000915090508060000154908060010154905082565b60008060000160009054906101000a900473ffffffffffffffffffffffffffffffffffffffff16908060000160149054906101000a900460ff16905082565b6107b733610eca565b6107c057600080fd5b6001600260003373ffffffffffffffffffffffffffffffffffffffff1673ffffffffffffffffffffffffffffffffffffffff16815260200190815260200160002060000160016101000a81548160ff021916908315150217905550565b6108256104b4565b610864576040517f08c379a000000000000000000000000000000000000000000000000000000000815260040161085b906116c2565b60405180910390fd5b600060038054905090506000805b8281101561091b57600560006003838154811061089257610891611592565b5b9060005260206000200160009054906101000a900473ffffffffffffffffffffffffffffffffffffffff1673ffffffffffffffffffffffffffffffffffffffff1673ffffffffffffffffffffffffffffffffffffffff168152602001908152602001600020600001548261090691906116e2565b91508080610913906115c1565b915050610872565b504781111561095f576040517f08c379a0000000000000000000000000000000000000000000000000000000008152600401610956906117aa565b60405180910390fd5b60005b82811015610a4e576000600560006003848154811061098457610983611592565b5b9060005260206000200160009054906101000a900473ffffffffffffffffffffffffffffffffffffffff1673ffffffffffffffffffffffffffffffffffffffff1673ffffffffffffffffffffffffffffffffffffffff168152602001908152602001600020600101541115610a3b57610a3a60038281548110610a0a57610a09611592565b5b9060005260206000200160009054906101000a900473ffffffffffffffffffffffffffffffffffffffff16610a53565b5b8080610a46906115c1565b915050610962565b505050565b610a5b6104b4565b610a9a576040517f08c379a0000000000000000000000000000000000000000000000000000000008152600401610a91906116c2565b60405180910390fd5b6000600560008373ffffffffffffffffffffffffffffffffffffffff1673ffffffffffffffffffffffffffffffffffffffff16815260200190815260200160002060000154905047811115610b24576040517f08c379a0000000000000000000000000000000000000000000000000000000008152600401610b1b906117aa565b60405180910390fd5b6000600560008473ffffffffffffffffffffffffffffffffffffffff1673ffffffffffffffffffffffffffffffffffffffff1681526020019081526020016000206001015411610ba9576040517f08c379a0000000000000000000000000000000000000000000000000000000008152600401610ba090611816565b60405180910390fd5b8173ffffffffffffffffffffffffffffffffffffffff166108fc829081150290604051600060405180830381858888f19350505050158015610bef573d6000803e3d6000fd5b50600560008373ffffffffffffffffffffffffffffffffffffffff1673ffffffffffffffffffffffffffffffffffffffff1681526020019081526020016000206001016000815480929190610c4390611836565b91905055507f510ffb4dcab972ae9d2007a58e13f1b0881776d23cd8f5cc32f8c5be2dbf70d28282604051610c79929190611860565b60405180910390a15050565b60045481565b6000800160009054906101000a900473ffffffffffffffffffffffffffffffffffffffff1673ffffffffffffffffffffffffffffffffffffffff163373ffffffffffffffffffffffffffffffffffffffff1614610ce757600080fd5b3460016000828254610cf991906116e2565b925050819055507fe03f2fbffd55aceaa08b8e27b348ae6b7607e8a520dfe6a92b053c2ce0ac850a3334604051610d31929190611860565b60405180910390a1565b60026020528060005260406000206000915090508060000160009054906101000a900460ff16908060000160019054906101000a900460ff16905082565b60015481565b6000800160009054906101000a900473ffffffffffffffffffffffffffffffffffffffff1673ffffffffffffffffffffffffffffffffffffffff163373ffffffffffffffffffffffffffffffffffffffff1614610ddb57600080fd5b805160048190555060005b600454811015610e7857600160026000848481518110610e0957610e08611592565b5b602002602001015173ffffffffffffffffffffffffffffffffffffffff1673ffffffffffffffffffffffffffffffffffffffff16815260200190815260200160002060000160006101000a81548160ff0219169083151502179055508080610e70906115c1565b915050610de6565b508060039080519060200190610e8f929190610f23565b507fbb8d8b423660b82de5f2ac9a04fd44584e1a7caf11aed34e35d06e9741495e3081604051610ebf9190611947565b60405180910390a150565b6000600260008373ffffffffffffffffffffffffffffffffffffffff1673ffffffffffffffffffffffffffffffffffffffff16815260200190815260200160002060000160009054906101000a900460ff169050919050565b828054828255906000526020600020908101928215610f9c579160200282015b82811115610f9b5782518260006101000a81548173ffffffffffffffffffffffffffffffffffffffff021916908373ffffffffffffffffffffffffffffffffffffffff16021790555091602001919060010190610f43565b5b509050610fa99190610fad565b5090565b5b80821115610fc6576000816000905550600101610fae565b5090565b6000604051905090565b600080fd5b600080fd5b600073ffffffffffffffffffffffffffffffffffffffff82169050919050565b600061100982610fde565b9050919050565b61101981610ffe565b811461102457600080fd5b50565b60008135905061103681611010565b92915050565b6000819050919050565b61104f8161103c565b811461105a57600080fd5b50565b60008135905061106c81611046565b92915050565b60008060006060848603121561108b5761108a610fd4565b5b600061109986828701611027565b93505060206110aa8682870161105d565b92505060406110bb8682870161105d565b9150509250925092565b60008115159050919050565b6110da816110c5565b82525050565b60006020820190506110f560008301846110d1565b92915050565b60006020828403121561111157611110610fd4565b5b600061111f8482850161105d565b91505092915050565b61113181610ffe565b82525050565b600060208201905061114c6000830184611128565b92915050565b60006020828403121561116857611167610fd4565b5b600061117684828501611027565b91505092915050565b6111888161103c565b82525050565b60006040820190506111a3600083018561117f565b6111b0602083018461117f565b9392505050565b60006040820190506111cc6000830185611128565b6111d960208301846110d1565b9392505050565b60006020820190506111f5600083018461117f565b92915050565b600060408201905061121060008301856110d1565b61121d60208301846110d1565b9392505050565b600080fd5b6000601f19601f8301169050919050565b7f4e487b7100000000000000000000000000000000000000000000000000000000600052604160045260246000fd5b61127282611229565b810181811067ffffffffffffffff821117156112915761129061123a565b5b80604052505050565b60006112a4610fca565b90506112b08282611269565b919050565b600067ffffffffffffffff8211156112d0576112cf61123a565b5b602082029050602081019050919050565b600080fd5b60006112f96112f4846112b5565b61129a565b9050808382526020820190506020840283018581111561131c5761131b6112e1565b5b835b8181101561134557806113318882611027565b84526020840193505060208101905061131e565b5050509392505050565b600082601f83011261136457611363611224565b5b81356113748482602086016112e6565b91505092915050565b60006020828403121561139357611392610fd4565b5b600082013567ffffffffffffffff8111156113b1576113b0610fd9565b5b6113bd8482850161134f565b91505092915050565b600082825260208201905092915050565b7f41646472657373206973206e6f742077686974656c6973746564000000000000600082015250565b600061140d601a836113c6565b9150611418826113d7565b602082019050919050565b6000602082019050818103600083015261143c81611400565b9050919050565b7f4e487b7100000000000000000000000000000000000000000000000000000000600052601160045260246000fd5b600061147d8261103c565b91506114888361103c565b9250817fffffffffffffffffffffffffffffffffffffffffffffffffffffffffffffffff04831182151516156114c1576114c0611443565b5b828202905092915050565b7f4e6f7420656e6f7567682066756e6473206c6f636b656420696e20746865207660008201527f61756c7400000000000000000000000000000000000000000000000000000000602082015250565b60006115286024836113c6565b9150611533826114cc565b604082019050919050565b600060208201905081810360008301526115578161151b565b9050919050565b60006115698261103c565b91506115748361103c565b92508282101561158757611586611443565b5b828203905092915050565b7f4e487b7100000000000000000000000000000000000000000000000000000000600052603260045260246000fd5b60006115cc8261103c565b91507fffffffffffffffffffffffffffffffffffffffffffffffffffffffffffffffff8214156115ff576115fe611443565b5b600182019050919050565b7f436f6e747261637420697320616c7265616479207369676e6564000000000000600082015250565b6000611640601a836113c6565b915061164b8261160a565b602082019050919050565b6000602082019050818103600083015261166f81611633565b9050919050565b7f436f6e7472616374206973206e6f74207369676e656400000000000000000000600082015250565b60006116ac6016836113c6565b91506116b782611676565b602082019050919050565b600060208201905081810360008301526116db8161169f565b9050919050565b60006116ed8261103c565b91506116f88361103c565b9250827fffffffffffffffffffffffffffffffffffffffffffffffffffffffffffffffff0382111561172d5761172c611443565b5b828201905092915050565b7f4e6f7420656e6f7567682066756e647320746f2065786563757465207468652060008201527f7472616e73616374696f6e000000000000000000000000000000000000000000602082015250565b6000611794602b836113c6565b915061179f82611738565b604082019050919050565b600060208201905081810360008301526117c381611787565b9050919050565b7f4e6f207472616e73616374696f6e73206c656674000000000000000000000000600082015250565b60006118006014836113c6565b915061180b826117ca565b602082019050919050565b6000602082019050818103600083015261182f816117f3565b9050919050565b60006118418261103c565b9150600082141561185557611854611443565b5b600182039050919050565b60006040820190506118756000830185611128565b611882602083018461117f565b9392505050565b600081519050919050565b600082825260208201905092915050565b6000819050602082019050919050565b6118be81610ffe565b82525050565b60006118d083836118b5565b60208301905092915050565b6000602082019050919050565b60006118f482611889565b6118fe8185611894565b9350611909836118a5565b8060005b8381101561193a57815161192188826118c4565b975061192c836118dc565b92505060018101905061190d565b5085935050505092915050565b6000602082019050818103600083015261196181846118e9565b90509291505056fea26469706673582212209f4ba6f22fa81786ff3f635d6455e8484ad01f77cf04b1f0f8f7591b3d5931b264736f6c634300080b0033",
  "immutableReferences": {},
  "source": "// SPDX-License-Identifier: GPL-3.0\n\npragma solidity >=0.4.22 <0.9.0;\n\ncontract Vault {\n    struct Payment {\n        uint256 amount;\n        uint256 numberOfTransactions;\n    }\n\n    struct Reciever {\n        bool isWhiteListed;\n        bool hasSigned;\n    }\n\n    struct Owner {\n        address addr;\n        bool hasSigned;\n    }\n\n    event Recieved(address sender, uint value);\n    event WhitelistSet(address[] whitelist);\n    event Sent(address addr, uint256 value);\n    event Withdrawed(uint256 value);\n\n    Owner public owner;\n    uint256 public currentAmount = 0;\n    mapping(address => Reciever) public recievers;\n    address[] public whitelist;\n    uint256 public whiteListLength = 0;\n    mapping(address => Payment) public paymentDetails;\n\n    modifier onlyOwner() {\n        require(msg.sender == owner.addr);\n        _;\n    }\n\n    modifier onlyReciever() {\n        require(isWhiteListed(msg.sender));\n        _;\n    }\n\n    constructor() payable {\n        owner.addr = msg.sender;\n    }\n\n    function setWhitelistAddresses(address[] memory _whitelist) public onlyOwner {\n       whiteListLength = _whitelist.length;\n       for(uint i = 0; i < whiteListLength; i++) {\n           recievers[_whitelist[i]].isWhiteListed = true;\n       }\n       whitelist = _whitelist;\n       emit WhitelistSet(_whitelist);\n    }\n\n    function isWhiteListed(address _wallet) internal view returns (bool) {\n        return recievers[_wallet].isWhiteListed;\n    }\n\n    function recieverApprove() public onlyReciever {\n        recievers[msg.sender].hasSigned = true;\n    }\n\n    function ownerApprove() public onlyOwner {\n        owner.hasSigned = true;\n    }\n\n    function isContractSigned() public view returns (bool) {\n        if(!owner.hasSigned) {\n            return false;\n        }\n        bool areRecieversSigned = true;\n        uint256 length = whitelist.length;\n        for(uint256 i = 0; i < length; i++) {\n            if(!recievers[whitelist[i]].hasSigned) {\n                areRecieversSigned = false;\n            }\n        }\n        return owner.hasSigned && areRecieversSigned;\n    }\n\n    function deposit() public payable onlyOwner{\n        currentAmount += msg.value;\n        emit Recieved(msg.sender, msg.value);\n    }\n\n    function withdraw() public payable onlyOwner {\n        require(!isContractSigned(), \"Contract is already signed\");\n        uint256 balanceAmount = address(this).balance;\n        payable(address(owner.addr)).transfer(balanceAmount);\n        emit Withdrawed(balanceAmount);\n    }\n\n\n    function setPaymentDetails(address _reciever, uint256 _amount, uint256 _numberOfTransactions) public {\n        require(isWhiteListed(_reciever), \"Address is not whitelisted\");\n        require(currentAmount >= _amount*_numberOfTransactions, \"Not enough funds locked in the vault\");\n        paymentDetails[_reciever] = Payment({\n            amount: _amount,\n            numberOfTransactions: _numberOfTransactions\n            });\n        currentAmount -= _amount*_numberOfTransactions;\n    }\n\n    function createPaymentTo(address _reciever) public payable {\n        require(isContractSigned(), \"Contract is not signed\");\n        uint256 amountToBeSent = paymentDetails[_reciever].amount;\n        require(amountToBeSent <= address(this).balance, \"Not enough funds to execute the transaction\");\n        require(paymentDetails[_reciever].numberOfTransactions > 0, \"No transactions left\");\n        payable(address(_reciever)).transfer(amountToBeSent);\n        paymentDetails[_reciever].numberOfTransactions--;\n        emit Sent(address(_reciever), amountToBeSent);\n    }\n\n    function createPaymentToAll() public payable {\n        require(isContractSigned(), \"Contract is not signed\");\n        uint256 length = whitelist.length;\n        uint256 paymentAmount = 0;\n        for(uint256 i = 0; i < length; i++) {\n                paymentAmount += paymentDetails[whitelist[i]].amount;\n        }\n        require(paymentAmount <= address(this).balance, \"Not enough funds to execute the transaction\");\n        for(uint256 i = 0; i < length; i++) {\n            if(paymentDetails[whitelist[i]].numberOfTransactions > 0) {\n                createPaymentTo(whitelist[i]);\n            }\n        }\n    }\n}\n",
  "sourcePath": "/Users/I538212/Documents/git/fmi-vault/fmi-blockchain-vault/main/src/contracts/Vault.sol",
  "compiler": {
    "name": "solc",
    "version": "0.8.11+commit.d7f03943.Emscripten.clang"
  },
  "schemaVersion": "3.4.4",
  "updatedAt": "2022-01-20T19:33:59.064Z",
  "networkType": "ethereum",
  "devdoc": {
    "kind": "dev",
    "methods": {},
    "version": 1
  },
  "userdoc": {
    "kind": "user",
    "methods": {},
    "version": 1
  }
}