{
  "contractName": "Vault",
  "abi": [
    {
      "inputs": [],
      "stateMutability": "payable",
      "type": "constructor"
    },
    {
      "anonymous": false,
      "inputs": [
        {
          "indexed": false,
          "internalType": "address",
          "name": "sender",
          "type": "address"
        },
        {
          "indexed": false,
          "internalType": "uint256",
          "name": "value",
          "type": "uint256"
        }
      ],
      "name": "Recieved",
      "type": "event"
    },
    {
      "anonymous": false,
      "inputs": [
        {
          "indexed": false,
          "internalType": "address",
          "name": "addr",
          "type": "address"
        },
        {
          "indexed": false,
          "internalType": "uint256",
          "name": "value",
          "type": "uint256"
        }
      ],
      "name": "Sent",
      "type": "event"
    },
    {
      "anonymous": false,
      "inputs": [
        {
          "indexed": false,
          "internalType": "address[]",
          "name": "whitelist",
          "type": "address[]"
        }
      ],
      "name": "WhitelistSet",
      "type": "event"
    },
    {
      "anonymous": false,
      "inputs": [
        {
          "indexed": false,
          "internalType": "uint256",
          "name": "value",
          "type": "uint256"
        }
      ],
      "name": "Withdrawed",
      "type": "event"
    },
    {
      "inputs": [
        {
          "internalType": "address",
          "name": "",
          "type": "address"
        }
      ],
      "name": "paymentDetails",
      "outputs": [
        {
          "internalType": "uint256",
          "name": "amount",
          "type": "uint256"
        },
        {
          "internalType": "uint256",
          "name": "numberOfTransactions",
          "type": "uint256"
        }
      ],
      "stateMutability": "view",
      "type": "function"
    },
    {
      "inputs": [
        {
          "internalType": "address",
          "name": "",
          "type": "address"
        }
      ],
      "name": "recievers",
      "outputs": [
        {
          "internalType": "bool",
          "name": "isWhiteListed",
          "type": "bool"
        },
        {
          "internalType": "bool",
          "name": "hasSigned",
          "type": "bool"
        }
      ],
      "stateMutability": "view",
      "type": "function"
    },
    {
      "inputs": [
        {
          "internalType": "address[]",
          "name": "_whitelist",
          "type": "address[]"
        }
      ],
      "name": "setWhitelistAddresses",
      "outputs": [],
      "stateMutability": "nonpayable",
      "type": "function"
    },
    {
      "inputs": [],
      "name": "recieverApprove",
      "outputs": [],
      "stateMutability": "nonpayable",
      "type": "function"
    },
    {
      "inputs": [],
      "name": "ownerApprove",
      "outputs": [],
      "stateMutability": "nonpayable",
      "type": "function"
    },
    {
      "inputs": [],
      "name": "deposit",
      "outputs": [],
      "stateMutability": "payable",
      "type": "function"
    },
    {
      "inputs": [],
      "name": "withdraw",
      "outputs": [],
      "stateMutability": "payable",
      "type": "function"
    },
    {
      "inputs": [
        {
          "internalType": "address",
          "name": "_reciever",
          "type": "address"
        },
        {
          "internalType": "uint256",
          "name": "_amount",
          "type": "uint256"
        },
        {
          "internalType": "uint256",
          "name": "_numberOfTransactions",
          "type": "uint256"
        }
      ],
      "name": "setPaymentDetails",
      "outputs": [],
      "stateMutability": "nonpayable",
      "type": "function"
    },
    {
      "inputs": [
        {
          "internalType": "address",
          "name": "_reciever",
          "type": "address"
        }
      ],
      "name": "createPaymentTo",
      "outputs": [],
      "stateMutability": "payable",
      "type": "function"
    },
    {
      "inputs": [],
      "name": "createPaymentToAll",
      "outputs": [],
      "stateMutability": "payable",
      "type": "function"
    }
  ],
  "bytecode": "0x60806040526000600155336000800160006101000a81548173ffffffffffffffffffffffffffffffffffffffff021916908373ffffffffffffffffffffffffffffffffffffffff1602179055506117b88061005b6000396000f3fe6080604052600436106100915760003560e01c8063c0ef904e11610059578063c0ef904e14610135578063ce548a361461013f578063d0e30db01461015b578063f1b0821e14610165578063f52ccc2d146101a357610091565b80630c662c5b14610096578063122553f9146100ad5780633ccfd60b146100d657806388c49637146100e057806390ca72361461011e575b600080fd5b3480156100a257600080fd5b506100ab6101cc565b005b3480156100b957600080fd5b506100d460048036038101906100cf9190610fef565b610247565b005b6100de610373565b005b3480156100ec57600080fd5b5061010760048036038101906101029190611042565b6104c0565b60405161011592919061107e565b60405180910390f35b34801561012a57600080fd5b506101336104e4565b005b61013d610553565b005b61015960048036038101906101549190611042565b61095a565b005b610163610b07565b005b34801561017157600080fd5b5061018c60048036038101906101879190611042565b610bb7565b60405161019a9291906110c2565b60405180910390f35b3480156101af57600080fd5b506101ca60048036038101906101c59190611244565b610bf5565b005b6000800160009054906101000a900473ffffffffffffffffffffffffffffffffffffffff1673ffffffffffffffffffffffffffffffffffffffff163373ffffffffffffffffffffffffffffffffffffffff161461022857600080fd5b60016000800160146101000a81548160ff021916908315150217905550565b61025083610d3d565b61028f576040517f08c379a0000000000000000000000000000000000000000000000000000000008152600401610286906112ea565b60405180910390fd5b808261029b9190611339565b60015410156102df576040517f08c379a00000000000000000000000000000000000000000000000000000000081526004016102d690611405565b60405180910390fd5b604051806040016040528083815260200182815250600460008573ffffffffffffffffffffffffffffffffffffffff1673ffffffffffffffffffffffffffffffffffffffff168152602001908152602001600020600082015181600001556020820151816001015590505080826103569190611339565b600160008282546103679190611425565b92505081905550505050565b6000800160009054906101000a900473ffffffffffffffffffffffffffffffffffffffff1673ffffffffffffffffffffffffffffffffffffffff163373ffffffffffffffffffffffffffffffffffffffff16146103cf57600080fd5b6103d7610d96565b610416576040517f08c379a000000000000000000000000000000000000000000000000000000000815260040161040d906114a5565b60405180910390fd5b60004790506000800160009054906101000a900473ffffffffffffffffffffffffffffffffffffffff1673ffffffffffffffffffffffffffffffffffffffff166108fc829081150290604051600060405180830381858888f19350505050158015610485573d6000803e3d6000fd5b507f11e9d9f7a772129e26cb0560945658c96b41c42ac6712d233e20c894bfcd00fd816040516104b591906114c5565b60405180910390a150565b60046020528060005260406000206000915090508060000154908060010154905082565b6104ed33610d3d565b6104f657600080fd5b6001600260003373ffffffffffffffffffffffffffffffffffffffff1673ffffffffffffffffffffffffffffffffffffffff16815260200190815260200160002060000160016101000a81548160ff021916908315150217905550565b61055b610d96565b61059a576040517f08c379a0000000000000000000000000000000000000000000000000000000008152600401610591906114a5565b60405180910390fd5b600060038054905090506000805b828110156106515760046000600383815481106105c8576105c76114e0565b5b9060005260206000200160009054906101000a900473ffffffffffffffffffffffffffffffffffffffff1673ffffffffffffffffffffffffffffffffffffffff1673ffffffffffffffffffffffffffffffffffffffff168152602001908152602001600020600001548261063c919061150f565b9150808061064990611565565b9150506105a8565b5047811115610695576040517f08c379a000000000000000000000000000000000000000000000000000000000815260040161068c90611620565b60405180910390fd5b60005b8281101561095557600060046000600384815481106106ba576106b96114e0565b5b9060005260206000200160009054906101000a900473ffffffffffffffffffffffffffffffffffffffff1673ffffffffffffffffffffffffffffffffffffffff1673ffffffffffffffffffffffffffffffffffffffff1681526020019081526020016000206001015411156109425760006004600060038481548110610743576107426114e0565b5b9060005260206000200160009054906101000a900473ffffffffffffffffffffffffffffffffffffffff1673ffffffffffffffffffffffffffffffffffffffff1673ffffffffffffffffffffffffffffffffffffffff168152602001908152602001600020600001549050600382815481106107c2576107c16114e0565b5b9060005260206000200160009054906101000a900473ffffffffffffffffffffffffffffffffffffffff1673ffffffffffffffffffffffffffffffffffffffff166108fc829081150290604051600060405180830381858888f19350505050158015610832573d6000803e3d6000fd5b50600460006003848154811061084b5761084a6114e0565b5b9060005260206000200160009054906101000a900473ffffffffffffffffffffffffffffffffffffffff1673ffffffffffffffffffffffffffffffffffffffff1673ffffffffffffffffffffffffffffffffffffffff16815260200190815260200160002060010160008154809291906108c490611640565b91905055507f510ffb4dcab972ae9d2007a58e13f1b0881776d23cd8f5cc32f8c5be2dbf70d2600383815481106108fe576108fd6114e0565b5b9060005260206000200160009054906101000a900473ffffffffffffffffffffffffffffffffffffffff1682604051610938929190611679565b60405180910390a1505b808061094d90611565565b915050610698565b505050565b610962610d96565b6109a1576040517f08c379a0000000000000000000000000000000000000000000000000000000008152600401610998906114a5565b60405180910390fd5b6000600460008373ffffffffffffffffffffffffffffffffffffffff1673ffffffffffffffffffffffffffffffffffffffff16815260200190815260200160002060000154905047811115610a2b576040517f08c379a0000000000000000000000000000000000000000000000000000000008152600401610a2290611620565b60405180910390fd5b8173ffffffffffffffffffffffffffffffffffffffff166108fc829081150290604051600060405180830381858888f19350505050158015610a71573d6000803e3d6000fd5b50600460008373ffffffffffffffffffffffffffffffffffffffff1673ffffffffffffffffffffffffffffffffffffffff1681526020019081526020016000206001016000815480929190610ac590611640565b91905055507f510ffb4dcab972ae9d2007a58e13f1b0881776d23cd8f5cc32f8c5be2dbf70d28282604051610afb929190611679565b60405180910390a15050565b6000800160009054906101000a900473ffffffffffffffffffffffffffffffffffffffff1673ffffffffffffffffffffffffffffffffffffffff163373ffffffffffffffffffffffffffffffffffffffff1614610b6357600080fd5b3460016000828254610b75919061150f565b925050819055507fe03f2fbffd55aceaa08b8e27b348ae6b7607e8a520dfe6a92b053c2ce0ac850a3334604051610bad929190611679565b60405180910390a1565b60026020528060005260406000206000915090508060000160009054906101000a900460ff16908060000160019054906101000a900460ff16905082565b6000800160009054906101000a900473ffffffffffffffffffffffffffffffffffffffff1673ffffffffffffffffffffffffffffffffffffffff163373ffffffffffffffffffffffffffffffffffffffff1614610c5157600080fd5b60008151905060005b81811015610cea57600160026000858481518110610c7b57610c7a6114e0565b5b602002602001015173ffffffffffffffffffffffffffffffffffffffff1673ffffffffffffffffffffffffffffffffffffffff16815260200190815260200160002060000160006101000a81548160ff0219169083151502179055508080610ce290611565565b915050610c5a565b508160039080519060200190610d01929190610ea0565b507fbb8d8b423660b82de5f2ac9a04fd44584e1a7caf11aed34e35d06e9741495e3082604051610d319190611760565b60405180910390a15050565b6000600260008373ffffffffffffffffffffffffffffffffffffffff1673ffffffffffffffffffffffffffffffffffffffff16815260200190815260200160002060000160009054906101000a900460ff169050919050565b60008060000160149054906101000a900460ff16610db75760009050610e9d565b6000600190506000600380549050905060005b81811015610e7c576002600060038381548110610dea57610de96114e0565b5b9060005260206000200160009054906101000a900473ffffffffffffffffffffffffffffffffffffffff1673ffffffffffffffffffffffffffffffffffffffff1673ffffffffffffffffffffffffffffffffffffffff16815260200190815260200160002060000160019054906101000a900460ff16610e6957600092505b8080610e7490611565565b915050610dca565b506000800160149054906101000a900460ff168015610e985750815b925050505b90565b828054828255906000526020600020908101928215610f19579160200282015b82811115610f185782518260006101000a81548173ffffffffffffffffffffffffffffffffffffffff021916908373ffffffffffffffffffffffffffffffffffffffff16021790555091602001919060010190610ec0565b5b509050610f269190610f2a565b5090565b5b80821115610f43576000816000905550600101610f2b565b5090565b6000604051905090565b600080fd5b600080fd5b600073ffffffffffffffffffffffffffffffffffffffff82169050919050565b6000610f8682610f5b565b9050919050565b610f9681610f7b565b8114610fa157600080fd5b50565b600081359050610fb381610f8d565b92915050565b6000819050919050565b610fcc81610fb9565b8114610fd757600080fd5b50565b600081359050610fe981610fc3565b92915050565b60008060006060848603121561100857611007610f51565b5b600061101686828701610fa4565b935050602061102786828701610fda565b925050604061103886828701610fda565b9150509250925092565b60006020828403121561105857611057610f51565b5b600061106684828501610fa4565b91505092915050565b61107881610fb9565b82525050565b6000604082019050611093600083018561106f565b6110a0602083018461106f565b9392505050565b60008115159050919050565b6110bc816110a7565b82525050565b60006040820190506110d760008301856110b3565b6110e460208301846110b3565b9392505050565b600080fd5b6000601f19601f8301169050919050565b7f4e487b7100000000000000000000000000000000000000000000000000000000600052604160045260246000fd5b611139826110f0565b810181811067ffffffffffffffff8211171561115857611157611101565b5b80604052505050565b600061116b610f47565b90506111778282611130565b919050565b600067ffffffffffffffff82111561119757611196611101565b5b602082029050602081019050919050565b600080fd5b60006111c06111bb8461117c565b611161565b905080838252602082019050602084028301858111156111e3576111e26111a8565b5b835b8181101561120c57806111f88882610fa4565b8452602084019350506020810190506111e5565b5050509392505050565b600082601f83011261122b5761122a6110eb565b5b813561123b8482602086016111ad565b91505092915050565b60006020828403121561125a57611259610f51565b5b600082013567ffffffffffffffff81111561127857611277610f56565b5b61128484828501611216565b91505092915050565b600082825260208201905092915050565b7f41646472657373206973206e6f742077686974656c6973746564000000000000600082015250565b60006112d4601a8361128d565b91506112df8261129e565b602082019050919050565b60006020820190508181036000830152611303816112c7565b9050919050565b7f4e487b7100000000000000000000000000000000000000000000000000000000600052601160045260246000fd5b600061134482610fb9565b915061134f83610fb9565b9250817fffffffffffffffffffffffffffffffffffffffffffffffffffffffffffffffff04831182151516156113885761138761130a565b5b828202905092915050565b7f4e6f7420656e6f7567682066756e6473206c6f636b656420696e20746865207660008201527f61756c7400000000000000000000000000000000000000000000000000000000602082015250565b60006113ef60248361128d565b91506113fa82611393565b604082019050919050565b6000602082019050818103600083015261141e816113e2565b9050919050565b600061143082610fb9565b915061143b83610fb9565b92508282101561144e5761144d61130a565b5b828203905092915050565b7f436f6e7472616374206973206e6f74207369676e656400000000000000000000600082015250565b600061148f60168361128d565b915061149a82611459565b602082019050919050565b600060208201905081810360008301526114be81611482565b9050919050565b60006020820190506114da600083018461106f565b92915050565b7f4e487b7100000000000000000000000000000000000000000000000000000000600052603260045260246000fd5b600061151a82610fb9565b915061152583610fb9565b9250827fffffffffffffffffffffffffffffffffffffffffffffffffffffffffffffffff0382111561155a5761155961130a565b5b828201905092915050565b600061157082610fb9565b91507fffffffffffffffffffffffffffffffffffffffffffffffffffffffffffffffff8214156115a3576115a261130a565b5b600182019050919050565b7f4e6f7420656e6f7567682066756e647320746f2065786563757465207468652060008201527f7472616e73616374696f6e000000000000000000000000000000000000000000602082015250565b600061160a602b8361128d565b9150611615826115ae565b604082019050919050565b60006020820190508181036000830152611639816115fd565b9050919050565b600061164b82610fb9565b9150600082141561165f5761165e61130a565b5b600182039050919050565b61167381610f7b565b82525050565b600060408201905061168e600083018561166a565b61169b602083018461106f565b9392505050565b600081519050919050565b600082825260208201905092915050565b6000819050602082019050919050565b6116d781610f7b565b82525050565b60006116e983836116ce565b60208301905092915050565b6000602082019050919050565b600061170d826116a2565b61171781856116ad565b9350611722836116be565b8060005b8381101561175357815161173a88826116dd565b9750611745836116f5565b925050600181019050611726565b5085935050505092915050565b6000602082019050818103600083015261177a8184611702565b90509291505056fea26469706673582212205e2cf8f898fad5f80a75723db559fa14c45d1df57b884555ac4e6fffb7f9c11364736f6c634300080b0033",
  "immutableReferences": {},
  "source": "// SPDX-License-Identifier: GPL-3.0\n\npragma solidity >=0.4.22 <0.9.0;\n\ncontract Vault {\n    struct Payment {\n        uint256 amount;\n        uint256 numberOfTransactions;\n    }\n\n    struct Reciever {\n        bool isWhiteListed;\n        bool hasSigned;\n    }\n\n    struct Owner {\n        address addr;\n        bool hasSigned;\n    }\n\n    event Recieved(address sender, uint value);\n    event WhitelistSet(address[] whitelist);\n    event Sent(address addr, uint256 value);\n    event Withdrawed(uint256 value);\n\n    Owner owner;\n    uint256 currentAmount = 0;\n    mapping(address => Reciever) public recievers;\n    address[] whitelist;\n    mapping(address => Payment) public paymentDetails;\n\n    modifier onlyOwner() {\n        require(msg.sender == owner.addr);\n        _;\n    }\n\n    modifier onlyReciever() {\n        require(isWhiteListed(msg.sender));\n        _;\n    }\n\n    constructor() payable {\n        owner.addr = msg.sender;\n    }\n\n    function setWhitelistAddresses(address[] memory _whitelist) public onlyOwner {\n       uint length = _whitelist.length;\n       for(uint i = 0; i < length; i++) {\n           recievers[_whitelist[i]].isWhiteListed = true;\n       }\n       whitelist = _whitelist;\n       emit WhitelistSet(_whitelist);\n    }\n\n    function isWhiteListed(address _wallet) internal view returns (bool) {\n        return recievers[_wallet].isWhiteListed;\n    }\n\n    function recieverApprove() public onlyReciever {\n        recievers[msg.sender].hasSigned = true;\n    }\n\n    function ownerApprove() public onlyOwner {\n        owner.hasSigned = true;\n    }\n\n    function isContractSigned() internal view returns (bool) {\n        if(!owner.hasSigned) {\n            return false;\n        }\n        bool areRecieversSigned = true;\n        uint256 length = whitelist.length;\n        for(uint256 i = 0; i < length; i++) {\n            if(!recievers[whitelist[i]].hasSigned) {\n                areRecieversSigned = false;\n            }\n        }\n        return owner.hasSigned && areRecieversSigned;\n    }\n\n    function deposit() public payable onlyOwner{\n        currentAmount += msg.value;\n        emit Recieved(msg.sender, msg.value);\n    }\n\n    function withdraw() public payable onlyOwner {\n        require(isContractSigned(), \"Contract is not signed\");\n        uint256 balanceAmount = address(this).balance;\n        payable(address(owner.addr)).transfer(balanceAmount);\n        emit Withdrawed(balanceAmount);\n    }\n\n\n    function setPaymentDetails(address _reciever, uint256 _amount, uint256 _numberOfTransactions) public {\n        require(isWhiteListed(_reciever), \"Address is not whitelisted\");\n        require(currentAmount >= _amount*_numberOfTransactions, \"Not enough funds locked in the vault\");\n        paymentDetails[_reciever] = Payment({\n            amount: _amount,\n            numberOfTransactions: _numberOfTransactions\n            });\n        currentAmount -= _amount*_numberOfTransactions;\n    }\n\n    function createPaymentTo(address _reciever) public payable {\n        require(isContractSigned(), \"Contract is not signed\");\n        uint256 amountToBeSent = paymentDetails[_reciever].amount;\n        require(amountToBeSent <= address(this).balance, \"Not enough funds to execute the transaction\");\n        payable(address(_reciever)).transfer(amountToBeSent);\n        paymentDetails[_reciever].numberOfTransactions--;\n        emit Sent(address(_reciever), amountToBeSent);\n    }\n\n    function createPaymentToAll() public payable {\n        require(isContractSigned(), \"Contract is not signed\");\n        uint256 length = whitelist.length;\n        uint256 paymentAmount = 0;\n        for(uint256 i = 0; i < length; i++) {\n                paymentAmount += paymentDetails[whitelist[i]].amount;\n        }\n        require(paymentAmount <= address(this).balance, \"Not enough funds to execute the transaction\");\n        for(uint256 i = 0; i < length; i++) {\n            if(paymentDetails[whitelist[i]].numberOfTransactions > 0) {\n                uint256 amountToBeSent = paymentDetails[whitelist[i]].amount;\n                payable(address(whitelist[i])).transfer(amountToBeSent);\n                paymentDetails[whitelist[i]].numberOfTransactions--;  \n                emit Sent(address(whitelist[i]), amountToBeSent);\n            }\n        }\n    }\n}\n",
  "sourcePath": "/Users/I538212/Documents/git/fmi-vault/fmi-blockchain-vault/main/src/contracts/Vault.sol",
  "compiler": {
    "name": "solc",
    "version": "0.8.11+commit.d7f03943.Emscripten.clang"
  },
  "schemaVersion": "3.4.4",
  "updatedAt": "2022-01-14T21:40:04.216Z",
  "devdoc": {
    "kind": "dev",
    "methods": {},
    "version": 1
  },
  "userdoc": {
    "kind": "user",
    "methods": {},
    "version": 1
  }
}