{
  "_format": "hh-sol-artifact-1",
  "contractName": "Migrations",
  "sourceName": "main/src/contracts/Migrations.sol",
  "abi": [
    {
      "inputs": [],
      "stateMutability": "nonpayable",
      "type": "constructor"
    },
    {
      "anonymous": false,
      "inputs": [
        {
          "indexed": true,
          "internalType": "address",
          "name": "previousOwner",
          "type": "address"
        },
        {
          "indexed": true,
          "internalType": "address",
          "name": "newOwner",
          "type": "address"
        }
      ],
      "name": "OwnershipTransferred",
      "type": "event"
    },
    {
      "inputs": [],
      "name": "last_completed_migration",
      "outputs": [
        {
          "internalType": "uint256",
          "name": "",
          "type": "uint256"
        }
      ],
      "stateMutability": "view",
      "type": "function"
    },
    {
      "inputs": [],
      "name": "owner",
      "outputs": [
        {
          "internalType": "address",
          "name": "",
          "type": "address"
        }
      ],
      "stateMutability": "view",
      "type": "function"
    },
    {
      "inputs": [],
      "name": "renounceOwnership",
      "outputs": [],
      "stateMutability": "nonpayable",
      "type": "function"
    },
    {
      "inputs": [
        {
          "internalType": "uint256",
          "name": "completed",
          "type": "uint256"
        }
      ],
      "name": "setCompleted",
      "outputs": [],
      "stateMutability": "nonpayable",
      "type": "function"
    },
    {
      "inputs": [
        {
          "internalType": "address",
          "name": "newOwner",
          "type": "address"
        }
      ],
      "name": "transferOwnership",
      "outputs": [],
      "stateMutability": "nonpayable",
      "type": "function"
    }
  ],
  "bytecode": "0x608060405234801561001057600080fd5b5061002161001c610026565b61002a565b61007a565b3390565b600080546001600160a01b038381166001600160a01b0319831681178455604051919092169283917f8be0079c531659141344cd1fd0a4f28419497f9722a3daafe3b4186f6b6457e09190a35050565b610345806100896000396000f3fe608060405234801561001057600080fd5b50600436106100575760003560e01c8063445df0ac1461005c578063715018a61461007a5780638da5cb5b14610084578063f2fde38b14610099578063fdacd576146100ac575b600080fd5b6100646100bf565b6040516100719190610306565b60405180910390f35b6100826100c5565b005b61008c610119565b6040516100719190610277565b6100826100a7366004610231565b610128565b6100826100ba36600461025f565b610199565b60015481565b6100cd6101dd565b6001600160a01b03166100de610119565b6001600160a01b03161461010d5760405162461bcd60e51b8152600401610104906102d1565b60405180910390fd5b61011760006101e1565b565b6000546001600160a01b031690565b6101306101dd565b6001600160a01b0316610141610119565b6001600160a01b0316146101675760405162461bcd60e51b8152600401610104906102d1565b6001600160a01b03811661018d5760405162461bcd60e51b81526004016101049061028b565b610196816101e1565b50565b6101a16101dd565b6001600160a01b03166101b2610119565b6001600160a01b0316146101d85760405162461bcd60e51b8152600401610104906102d1565b600155565b3390565b600080546001600160a01b038381166001600160a01b0319831681178455604051919092169283917f8be0079c531659141344cd1fd0a4f28419497f9722a3daafe3b4186f6b6457e09190a35050565b600060208284031215610242578081fd5b81356001600160a01b0381168114610258578182fd5b9392505050565b600060208284031215610270578081fd5b5035919050565b6001600160a01b0391909116815260200190565b60208082526026908201527f4f776e61626c653a206e6577206f776e657220697320746865207a65726f206160408201526564647265737360d01b606082015260800190565b6020808252818101527f4f776e61626c653a2063616c6c6572206973206e6f7420746865206f776e6572604082015260600190565b9081526020019056fea264697066735822122029b1121546ad5f4fc0fba2406b9daae408c404c9a64c01f5bc0b35941892f4d564736f6c63430008000033",
  "linkReferences": {},
  "deployedLinkReferences": {}
}