{
  "_format": "hh-sol-artifact-1",
  "contractName": "Vault",
  "sourceName": "main/src/contracts/Vault.sol",
  "abi": [
    {
      "inputs": [],
      "stateMutability": "nonpayable",
      "type": "constructor"
    },
    {
      "anonymous": false,
      "inputs": [
        {
          "indexed": true,
          "internalType": "address",
          "name": "previousOwner",
          "type": "address"
        },
        {
          "indexed": true,
          "internalType": "address",
          "name": "newOwner",
          "type": "address"
        }
      ],
      "name": "OwnershipTransferred",
      "type": "event"
    },
    {
      "anonymous": false,
      "inputs": [
        {
          "indexed": true,
          "internalType": "address",
          "name": "sender",
          "type": "address"
        },
        {
          "indexed": false,
          "internalType": "uint256",
          "name": "value",
          "type": "uint256"
        }
      ],
      "name": "Recieved",
      "type": "event"
    },
    {
      "anonymous": false,
      "inputs": [
        {
          "indexed": true,
          "internalType": "address",
          "name": "addr",
          "type": "address"
        },
        {
          "indexed": false,
          "internalType": "uint256",
          "name": "value",
          "type": "uint256"
        }
      ],
      "name": "Sent",
      "type": "event"
    },
    {
      "anonymous": false,
      "inputs": [
        {
          "indexed": false,
          "internalType": "address[]",
          "name": "whitelist",
          "type": "address[]"
        }
      ],
      "name": "WhitelistSet",
      "type": "event"
    },
    {
      "anonymous": false,
      "inputs": [
        {
          "indexed": false,
          "internalType": "uint256",
          "name": "value",
          "type": "uint256"
        }
      ],
      "name": "Withdrawn",
      "type": "event"
    },
    {
      "inputs": [],
      "name": "contractSigned",
      "outputs": [
        {
          "internalType": "bool",
          "name": "",
          "type": "bool"
        }
      ],
      "stateMutability": "view",
      "type": "function"
    },
    {
      "inputs": [
        {
          "internalType": "address",
          "name": "_reciever",
          "type": "address"
        }
      ],
      "name": "createPaymentTo",
      "outputs": [],
      "stateMutability": "payable",
      "type": "function"
    },
    {
      "inputs": [],
      "name": "createPaymentToAll",
      "outputs": [],
      "stateMutability": "payable",
      "type": "function"
    },
    {
      "inputs": [],
      "name": "currentAmount",
      "outputs": [
        {
          "internalType": "uint256",
          "name": "",
          "type": "uint256"
        }
      ],
      "stateMutability": "view",
      "type": "function"
    },
    {
      "inputs": [],
      "name": "deposit",
      "outputs": [],
      "stateMutability": "payable",
      "type": "function"
    },
    {
      "inputs": [],
      "name": "hasOwnerSigned",
      "outputs": [
        {
          "internalType": "bool",
          "name": "",
          "type": "bool"
        }
      ],
      "stateMutability": "view",
      "type": "function"
    },
    {
      "inputs": [],
      "name": "isContractSigned",
      "outputs": [
        {
          "internalType": "bool",
          "name": "",
          "type": "bool"
        }
      ],
      "stateMutability": "view",
      "type": "function"
    },
    {
      "inputs": [],
      "name": "owner",
      "outputs": [
        {
          "internalType": "address",
          "name": "",
          "type": "address"
        }
      ],
      "stateMutability": "view",
      "type": "function"
    },
    {
      "inputs": [],
      "name": "ownerApprove",
      "outputs": [],
      "stateMutability": "nonpayable",
      "type": "function"
    },
    {
      "inputs": [
        {
          "internalType": "address",
          "name": "",
          "type": "address"
        }
      ],
      "name": "paymentDetails",
      "outputs": [
        {
          "internalType": "uint256",
          "name": "amount",
          "type": "uint256"
        },
        {
          "internalType": "uint256",
          "name": "numberOfTransactions",
          "type": "uint256"
        }
      ],
      "stateMutability": "view",
      "type": "function"
    },
    {
      "inputs": [],
      "name": "receiverApprove",
      "outputs": [],
      "stateMutability": "nonpayable",
      "type": "function"
    },
    {
      "inputs": [
        {
          "internalType": "address",
          "name": "",
          "type": "address"
        }
      ],
      "name": "receivers",
      "outputs": [
        {
          "internalType": "bool",
          "name": "isWhiteListed",
          "type": "bool"
        },
        {
          "internalType": "bool",
          "name": "hasSigned",
          "type": "bool"
        }
      ],
      "stateMutability": "view",
      "type": "function"
    },
    {
      "inputs": [],
      "name": "renounceOwnership",
      "outputs": [],
      "stateMutability": "nonpayable",
      "type": "function"
    },
    {
      "inputs": [
        {
          "internalType": "address",
          "name": "_reciever",
          "type": "address"
        },
        {
          "internalType": "uint256",
          "name": "_amount",
          "type": "uint256"
        },
        {
          "internalType": "uint256",
          "name": "_numberOfTransactions",
          "type": "uint256"
        }
      ],
      "name": "setPaymentDetails",
      "outputs": [],
      "stateMutability": "nonpayable",
      "type": "function"
    },
    {
      "inputs": [
        {
          "internalType": "address[]",
          "name": "_whitelist",
          "type": "address[]"
        }
      ],
      "name": "setWhitelistAddresses",
      "outputs": [],
      "stateMutability": "nonpayable",
      "type": "function"
    },
    {
      "inputs": [
        {
          "internalType": "address",
          "name": "newOwner",
          "type": "address"
        }
      ],
      "name": "transferOwnership",
      "outputs": [],
      "stateMutability": "nonpayable",
      "type": "function"
    },
    {
      "inputs": [],
      "name": "whiteListLength",
      "outputs": [
        {
          "internalType": "uint256",
          "name": "",
          "type": "uint256"
        }
      ],
      "stateMutability": "view",
      "type": "function"
    },
    {
      "inputs": [
        {
          "internalType": "uint256",
          "name": "",
          "type": "uint256"
        }
      ],
      "name": "whitelist",
      "outputs": [
        {
          "internalType": "address",
          "name": "",
          "type": "address"
        }
      ],
      "stateMutability": "view",
      "type": "function"
    },
    {
      "inputs": [],
      "name": "withdraw",
      "outputs": [],
      "stateMutability": "payable",
      "type": "function"
    }
  ],
  "bytecode": "0x608060405234801561001057600080fd5b5061002161001c610026565b61002a565b61007a565b3390565b600080546001600160a01b038381166001600160a01b0319831681178455604051919092169283917f8be0079c531659141344cd1fd0a4f28419497f9722a3daafe3b4186f6b6457e09190a35050565b611140806100896000396000f3fe6080604052600436106101145760003560e01c80638da5cb5b116100a0578063d0e30db011610064578063d0e30db01461029d578063e65eeb1f146102a5578063f2fde38b146102ba578063f441b1c8146102da578063f52ccc2d146102ef57610114565b80638da5cb5b14610236578063b5a6af781461024b578063c0ef904e14610260578063ce548a3614610268578063cfe684f51461027b57610114565b80633ccfd60b116100e75780633ccfd60b146101a9578063715018a6146101b15780637ebd1b30146101c657806388966cfd146101f357806388c496371461020857610114565b80630c662c5b146101195780630cb8150f14610130578063122553f914610167578063322f094114610187575b600080fd5b34801561012557600080fd5b5061012e61030f565b005b34801561013c57600080fd5b5061015061014b366004610cd5565b610390565b60405161015e929190610e6d565b60405180910390f35b34801561017357600080fd5b5061012e610182366004610cf6565b6103ae565b34801561019357600080fd5b5061019c61046d565b60405161015e9190610e62565b61012e610513565b3480156101bd57600080fd5b5061012e6105f8565b3480156101d257600080fd5b506101e66101e1366004610de9565b610643565b60405161015e9190610e01565b3480156101ff57600080fd5b5061019c61066d565b34801561021457600080fd5b50610228610223366004610cd5565b61067d565b60405161015e929190611050565b34801561024257600080fd5b506101e6610696565b34801561025757600080fd5b5061012e6106a5565b61012e610717565b61012e610276366004610cd5565b61088d565b34801561028757600080fd5b506102906109cf565b60405161015e9190611047565b61012e6109d5565b3480156102b157600080fd5b5061019c610a67565b3480156102c657600080fd5b5061012e6102d5366004610cd5565b610a77565b3480156102e657600080fd5b50610290610ae8565b3480156102fb57600080fd5b5061012e61030a366004610d28565b610aee565b610317610beb565b6001600160a01b0316610328610696565b6001600160a01b0316146103575760405162461bcd60e51b815260040161034e90610fa0565b60405180910390fd5b6000805460ff60a81b1916600160a81b17905561037261046d565b60008054911515600160a01b0260ff60a01b19909216919091179055565b60046020526000908152604090205460ff8082169161010090041682565b6001600160a01b038316600090815260046020526040902054839060ff166103e85760405162461bcd60e51b815260040161034e90610f40565b60006103f48385611076565b90508060025410156104185760405162461bcd60e51b815260040161034e90611003565b60408051808201825285815260208082018681526001600160a01b0389166000908152600590925292812091518255915160019091015560028054839290610461908490611095565b90915550505050505050565b60008054600160a81b900460ff1661048757506000610510565b60035460005b818110156105095760046000600383815481106104ba57634e487b7160e01b600052603260045260246000fd5b60009182526020808320909101546001600160a01b0316835282019290925260400190205460ff610100909104166104f757600092505050610510565b80610501816110c3565b91505061048d565b5060019150505b90565b61051b610beb565b6001600160a01b031661052c610696565b6001600160a01b0316146105525760405162461bcd60e51b815260040161034e90610fa0565b600054600160a01b900460ff161561057c5760405162461bcd60e51b815260040161034e90610f69565b47610585610696565b6001600160a01b03166108fc829081150290604051600060405180830381858888f193505050501580156105bd573d6000803e3d6000fd5b507f430648de173157e069201c943adb2d4e340e7cf5b27b1b09c9cb852f03d63b56816040516105ed9190611047565b60405180910390a150565b610600610beb565b6001600160a01b0316610611610696565b6001600160a01b0316146106375760405162461bcd60e51b815260040161034e90610fa0565b6106416000610bef565b565b6003818154811061065357600080fd5b6000918252602090912001546001600160a01b0316905081565b600054600160a81b900460ff1681565b6005602052600090815260409020805460019091015482565b6000546001600160a01b031690565b3360008181526004602052604090205460ff166106d45760405162461bcd60e51b815260040161034e90610f40565b336000908152600460205260409020805461ff0019166101001790556106f861046d565b60008054911515600160a01b0260ff60a01b1990921691909117905550565b600054600160a01b900460ff166107405760405162461bcd60e51b815260040161034e90610e7f565b6003546000805b828110156107b757600560006003838154811061077457634e487b7160e01b600052603260045260246000fd5b60009182526020808320909101546001600160a01b031683528201929092526040019020546107a3908361105e565b9150806107af816110c3565b915050610747565b50478111156107d85760405162461bcd60e51b815260040161034e90610ef5565b60005b82811015610888576000600560006003848154811061080a57634e487b7160e01b600052603260045260246000fd5b60009182526020808320909101546001600160a01b031683528201929092526040019020600101541115610876576108766003828154811061085c57634e487b7160e01b600052603260045260246000fd5b6000918252602090912001546001600160a01b031661088d565b80610880816110c3565b9150506107db565b505050565b600054600160a01b900460ff166108b65760405162461bcd60e51b815260040161034e90610e7f565b6001600160a01b038116600090815260056020526040902054478111156108ef5760405162461bcd60e51b815260040161034e90610ef5565b6001600160a01b0382166000908152600560205260409020600101546109275760405162461bcd60e51b815260040161034e90610fd5565b6040516001600160a01b0383169082156108fc029083906000818181858888f1935050505015801561095d573d6000803e3d6000fd5b506001600160a01b0382166000908152600560205260408120600101805491610985836110ac565b9190505550816001600160a01b03167f510ffb4dcab972ae9d2007a58e13f1b0881776d23cd8f5cc32f8c5be2dbf70d2826040516109c39190611047565b60405180910390a25050565b60015481565b6109dd610beb565b6001600160a01b03166109ee610696565b6001600160a01b031614610a145760405162461bcd60e51b815260040161034e90610fa0565b3460026000828254610a26919061105e565b909155505060405133907fe03f2fbffd55aceaa08b8e27b348ae6b7607e8a520dfe6a92b053c2ce0ac850a90610a5d903490611047565b60405180910390a2565b600054600160a01b900460ff1681565b610a7f610beb565b6001600160a01b0316610a90610696565b6001600160a01b031614610ab65760405162461bcd60e51b815260040161034e90610fa0565b6001600160a01b038116610adc5760405162461bcd60e51b815260040161034e90610eaf565b610ae581610bef565b50565b60025481565b610af6610beb565b6001600160a01b0316610b07610696565b6001600160a01b031614610b2d5760405162461bcd60e51b815260040161034e90610fa0565b805160015560005b600154811015610ba757600160046000848481518110610b6557634e487b7160e01b600052603260045260246000fd5b6020908102919091018101516001600160a01b03168252810191909152604001600020805460ff1916911515919091179055610ba0816110c3565b9050610b35565b508051610bbb906003906020840190610c3f565b507fbb8d8b423660b82de5f2ac9a04fd44584e1a7caf11aed34e35d06e9741495e30816040516105ed9190610e15565b3390565b600080546001600160a01b038381166001600160a01b0319831681178455604051919092169283917f8be0079c531659141344cd1fd0a4f28419497f9722a3daafe3b4186f6b6457e09190a35050565b828054828255906000526020600020908101928215610c94579160200282015b82811115610c9457825182546001600160a01b0319166001600160a01b03909116178255602090920191600190910190610c5f565b50610ca0929150610ca4565b5090565b5b80821115610ca05760008155600101610ca5565b80356001600160a01b0381168114610cd057600080fd5b919050565b600060208284031215610ce6578081fd5b610cef82610cb9565b9392505050565b600080600060608486031215610d0a578182fd5b610d1384610cb9565b95602085013595506040909401359392505050565b60006020808385031215610d3a578182fd5b823567ffffffffffffffff80821115610d51578384fd5b818501915085601f830112610d64578384fd5b813581811115610d7657610d766110f4565b83810260405185828201018181108582111715610d9557610d956110f4565b604052828152858101935084860182860187018a1015610db3578788fd5b8795505b83861015610ddc57610dc881610cb9565b855260019590950194938601938601610db7565b5098975050505050505050565b600060208284031215610dfa578081fd5b5035919050565b6001600160a01b0391909116815260200190565b6020808252825182820181905260009190848201906040850190845b81811015610e565783516001600160a01b031683529284019291840191600101610e31565b50909695505050505050565b901515815260200190565b91151582521515602082015260400190565b60208082526016908201527510dbdb9d1c9858dd081a5cc81b9bdd081cda59db995960521b604082015260600190565b60208082526026908201527f4f776e61626c653a206e6577206f776e657220697320746865207a65726f206160408201526564647265737360d01b606082015260800190565b6020808252602b908201527f4e6f7420656e6f7567682066756e647320746f2065786563757465207468652060408201526a3a3930b739b0b1ba34b7b760a91b606082015260800190565b6020808252600f908201526e139bdd081dda1a5d195b1a5cdd1959608a1b604082015260600190565b6020808252601a908201527f436f6e747261637420697320616c7265616479207369676e6564000000000000604082015260600190565b6020808252818101527f4f776e61626c653a2063616c6c6572206973206e6f7420746865206f776e6572604082015260600190565b602080825260149082015273139bc81d1c985b9cd858dd1a5bdb9cc81b19599d60621b604082015260600190565b60208082526024908201527f4e6f7420656e6f7567682066756e6473206c6f636b656420696e207468652076604082015263185d5b1d60e21b606082015260800190565b90815260200190565b918252602082015260400190565b60008219821115611071576110716110de565b500190565b6000816000190483118215151615611090576110906110de565b500290565b6000828210156110a7576110a76110de565b500390565b6000816110bb576110bb6110de565b506000190190565b60006000198214156110d7576110d76110de565b5060010190565b634e487b7160e01b600052601160045260246000fd5b634e487b7160e01b600052604160045260246000fdfea264697066735822122047a5c3578685e2d1a5e1895091648b0cfc7d48e2e4b9e4a300c2057f2e1a6ec764736f6c63430008000033",
  "linkReferences": {},
  "deployedLinkReferences": {}
}